{
	"data": {
		"bytecode": {
			"linkReferences": {},
			"object": "6080604052600180556101f46005556107d060065534801561001f575f5ffd5b506040516142ca3803806142ca833981810160405281019061004191906102a8565b335f73ffffffffffffffffffffffffffffffffffffffff168173ffffffffffffffffffffffffffffffffffffffff16036100b2575f6040517f1e4fbdf70000000000000000000000000000000000000000000000000000000081526004016100a991906102f5565b60405180910390fd5b6100c18161018960201b60201c565b508160025f6101000a81548173ffffffffffffffffffffffffffffffffffffffff021916908373ffffffffffffffffffffffffffffffffffffffff1602179055508060035f6101000a81548173ffffffffffffffffffffffffffffffffffffffff021916908373ffffffffffffffffffffffffffffffffffffffff1602179055503360075f6101000a81548173ffffffffffffffffffffffffffffffffffffffff021916908373ffffffffffffffffffffffffffffffffffffffff160217905550505061030e565b5f5f5f9054906101000a900473ffffffffffffffffffffffffffffffffffffffff169050815f5f6101000a81548173ffffffffffffffffffffffffffffffffffffffff021916908373ffffffffffffffffffffffffffffffffffffffff1602179055508173ffffffffffffffffffffffffffffffffffffffff168173ffffffffffffffffffffffffffffffffffffffff167f8be0079c531659141344cd1fd0a4f28419497f9722a3daafe3b4186f6b6457e060405160405180910390a35050565b5f5ffd5b5f73ffffffffffffffffffffffffffffffffffffffff82169050919050565b5f6102778261024e565b9050919050565b6102878161026d565b8114610291575f5ffd5b50565b5f815190506102a28161027e565b92915050565b5f5f604083850312156102be576102bd61024a565b5b5f6102cb85828601610294565b92505060206102dc85828601610294565b9150509250929050565b6102ef8161026d565b82525050565b5f6020820190506103085f8301846102e6565b92915050565b613faf8061031b5f395ff3fe60806040526004361061014e575f3560e01c8063addf3804116100b5578063ec9790821161006e578063ec9790821461044c578063eec8138e14610476578063f0f44260146104b8578063f2fde38b146104e0578063fe33ae7a14610508578063feaca5831461053057610155565b8063addf380414610346578063b187bd2614610370578063c1de13431461039a578063d1f8301a146103b6578063e4cfcc23146103e0578063e50e64d51461042457610155565b806370e5deb91161010757806370e5deb91461024f578063715018a6146102775780637c16cd9e1461028d5780637d06a8e1146102b55780638da5cb5b146102f45780639c6720a31461031e57610155565b806304f3bcec1461015957806316c38b3c146101835780635a94ee46146101ab5780635cabbbf8146101d557806361d027b3146101fd578063677bd9ff1461022757610155565b3661015557005b5f5ffd5b348015610164575f5ffd5b5061016d610558565b60405161017a9190612564565b60405180910390f35b34801561018e575f5ffd5b506101a960048036038101906101a491906125c3565b61057d565b005b3480156101b6575f5ffd5b506101bf6105a2565b6040516101cc9190612606565b60405180910390f35b3480156101e0575f5ffd5b506101fb60048036038101906101f69190612688565b6105a8565b005b348015610208575f5ffd5b50610211610839565b60405161021e91906126e6565b60405180910390f35b348015610232575f5ffd5b5061024d600480360381019061024891906126ff565b61085e565b005b34801561025a575f5ffd5b50610275600480360381019061027091906126ff565b610dfa565b005b348015610282575f5ffd5b5061028b610f88565b005b348015610298575f5ffd5b506102b360048036038101906102ae91906126ff565b610f9b565b005b3480156102c0575f5ffd5b506102db60048036038101906102d69190612754565b61109b565b6040516102eb94939291906127a1565b60405180910390f35b3480156102ff575f5ffd5b506103086110fe565b60405161031591906126e6565b60405180910390f35b348015610329575f5ffd5b50610344600480360381019061033f9190612807565b611125565b005b348015610351575f5ffd5b5061035a61127a565b604051610367919061286e565b60405180910390f35b34801561037b575f5ffd5b5061038461129f565b6040516103919190612887565b60405180910390f35b6103b460048036038101906103af91906128a0565b6112b2565b005b3480156103c1575f5ffd5b506103ca6117d2565b6040516103d79190612606565b60405180910390f35b3480156103eb575f5ffd5b50610406600480360381019061040191906126ff565b6117d8565b60405161041b9998979695949392919061298c565b60405180910390f35b34801561042f575f5ffd5b5061044a600480360381019061044591906126ff565b611979565b005b348015610457575f5ffd5b50610460611b1a565b60405161046d9190612606565b60405180910390f35b348015610481575f5ffd5b5061049c600480360381019061049791906126ff565b611b20565b6040516104af9796959493929190612a98565b60405180910390f35b3480156104c3575f5ffd5b506104de60048036038101906104d99190612b05565b611b82565b005b3480156104eb575f5ffd5b5061050660048036038101906105019190612b05565b611bcd565b005b348015610513575f5ffd5b5061052e60048036038101906105299190612b66565b611c51565b005b34801561053b575f5ffd5b5061055660048036038101906105519190612ba4565b611e55565b005b60035f9054906101000a900473ffffffffffffffffffffffffffffffffffffffff1681565b610585611eb4565b80600760146101000a81548160ff02191690831515021790555050565b60055481565b6105b0611eb4565b5f60095f8481526020019081526020015f2090505f60085f8581526020019081526020015f209050815f015f9054906101000a900460ff1615610628576040517f08c379a000000000000000000000000000000000000000000000000000000000815260040161061f90612c2c565b60405180910390fd5b5f73ffffffffffffffffffffffffffffffffffffffff16816005015f9054906101000a900473ffffffffffffffffffffffffffffffffffffffff1673ffffffffffffffffffffffffffffffffffffffff16036106b9576040517f08c379a00000000000000000000000000000000000000000000000000000000081526004016106b090612c94565b60405180910390fd5b5f5f60035f9054906101000a900473ffffffffffffffffffffffffffffffffffffffff1673ffffffffffffffffffffffffffffffffffffffff1663fce6093d846005015f9054906101000a900473ffffffffffffffffffffffffffffffffffffffff1687866003015487600401548860060160149054906101000a900460ff166040518663ffffffff1660e01b8152600401610759959493929190612cc1565b606060405180830381865afa158015610774573d5f5f3e3d5ffd5b505050506040513d601f19601f820116820180604052508101906107989190612d64565b9250509150806107dd576040517f08c379a00000000000000000000000000000000000000000000000000000000081526004016107d490612dfe565b60405180910390fd5b6107e78683611f3b565b857feb81c972317adb92322af1a2faf2bef5309afe1b1537c0d196b2dfcb36b91988855f0160029054906101000a900460ff165f604051610829929190612e1c565b60405180910390a2505050505050565b60075f9054906101000a900473ffffffffffffffffffffffffffffffffffffffff1681565b60018054146108a2576040517f08c379a000000000000000000000000000000000000000000000000000000000815260040161089990612e8d565b60405180910390fd5b60026001819055505f60095f8381526020019081526020015f2090505f600a5f8481526020019081526020015f205f3373ffffffffffffffffffffffffffffffffffffffff1673ffffffffffffffffffffffffffffffffffffffff1681526020019081526020015f209050815f015f9054906101000a900460ff16801561093857508060020160149054906101000a900460ff16155b610977576040517f08c379a000000000000000000000000000000000000000000000000000000000815260040161096e90612ef5565b60405180910390fd5b5f6002600381111561098c5761098b612a25565b5b835f0160029054906101000a900460ff1660038111156109af576109ae612a25565b5b036109bf57815f01549050610a5a565b600160038111156109d3576109d2612a25565b5b835f0160029054906101000a900460ff1660038111156109f6576109f5612a25565b5b03610a075781600101549050610a59565b600380811115610a1a57610a19612a25565b5b835f0160029054906101000a900460ff166003811115610a3d57610a3c612a25565b5b03610a58578160010154825f0154610a559190612f40565b90505b5b5b5f8111610a9c576040517f08c379a0000000000000000000000000000000000000000000000000000000008152600401610a9390612fbd565b60405180910390fd5b60018260020160146101000a81548160ff021916908315150217905550600380811115610acc57610acb612a25565b5b835f0160029054906101000a900460ff166003811115610aef57610aee612a25565b5b03610b8b57610b3260085f8681526020019081526020015f206006015f9054906101000a900473ffffffffffffffffffffffffffffffffffffffff16338361216b565b3373ffffffffffffffffffffffffffffffffffffffff16847f6256309dc4c6375473b26b31fc0e88b0ca9ebca0e558d39fec5aa96863ad40cb835f604051610b7b929190613014565b60405180910390a3505050610df0565b5f60025f9054906101000a900473ffffffffffffffffffffffffffffffffffffffff1673ffffffffffffffffffffffffffffffffffffffff1663c494293b83866001015487600401546005546006545f73ffffffffffffffffffffffffffffffffffffffff168a6002015f9054906101000a900473ffffffffffffffffffffffffffffffffffffffff1673ffffffffffffffffffffffffffffffffffffffff1614156040518763ffffffff1660e01b8152600401610c4e9695949392919061303b565b608060405180830381865afa158015610c69573d5f5f3e3d5ffd5b505050506040513d601f19601f82011682018060405250810190610c8d919061319f565b90505f60085f8781526020019081526020015f206006015f9054906101000a900473ffffffffffffffffffffffffffffffffffffffff169050610cd48133845f015161216b565b5f82602001511115610d9257610d108160075f9054906101000a900473ffffffffffffffffffffffffffffffffffffffff16846040015161216b565b5f82606001511115610d4f57610d4e81856002015f9054906101000a900473ffffffffffffffffffffffffffffffffffffffff16846060015161216b565b5b857f312c5308f42848705a866c73dec11fd0783c2d64aac6a97e94467062ad3f405883604001518460600151604051610d899291906131ca565b60405180910390a25b3373ffffffffffffffffffffffffffffffffffffffff16867f6256309dc4c6375473b26b31fc0e88b0ca9ebca0e558d39fec5aa96863ad40cb845f01518560200151604051610de29291906131ca565b60405180910390a350505050505b6001808190555050565b6001805414610e3e576040517f08c379a0000000000000000000000000000000000000000000000000000000008152600401610e3590612e8d565b60405180910390fd5b60026001819055505f60095f8381526020019081526020015f2090505f60085f8481526020019081526020015f209050815f015f9054906101000a900460ff16158015610e9c57506203f4808160030154610e999190612f40565b42115b610ea4575f5ffd5b5f600a5f8581526020019081526020015f205f3373ffffffffffffffffffffffffffffffffffffffff1673ffffffffffffffffffffffffffffffffffffffff1681526020019081526020015f2090505f8160010154825f0154610f079190612f40565b90505f81118015610f2757508160020160149054906101000a900460ff16155b610f2f575f5ffd5b60018260020160146101000a81548160ff021916908315150217905550610f7a836006015f9054906101000a900473ffffffffffffffffffffffffffffffffffffffff16338361216b565b505050506001808190555050565b610f90611eb4565b610f995f612286565b565b610fa3611eb4565b5f60095f8381526020019081526020015f209050805f015f9054906101000a900460ff1615611007576040517f08c379a0000000000000000000000000000000000000000000000000000000008152600401610ffe9061323b565b60405180910390fd5b6001815f0160016101000a81548160ff0219169083151502179055506001815f015f6101000a81548160ff0219169083151502179055506003815f0160026101000a81548160ff0219169083600381111561106557611064612a25565b5b0217905550817f2ca440fb7fca85d7f55d395a4abd94817330b83a62f3502efbb4770144e4ca9760405160405180910390a25050565b600a602052815f5260405f20602052805f5260405f205f9150915050805f015490806001015490806002015f9054906101000a900473ffffffffffffffffffffffffffffffffffffffff16908060020160149054906101000a900460ff16905084565b5f5f5f9054906101000a900473ffffffffffffffffffffffffffffffffffffffff16905090565b61112d611eb4565b42816040013511611173576040517f08c379a000000000000000000000000000000000000000000000000000000000815260040161116a906132a3565b60405180910390fd5b8060400135816060013510156111be576040517f08c379a00000000000000000000000000000000000000000000000000000000081526004016111b59061330b565b60405180910390fd5b60045f8154809291906111d090613329565b91905055508060085f60045481526020019081526020015f2081816111f591906139e6565b9050508060c001602081019061120b9190612b05565b73ffffffffffffffffffffffffffffffffffffffff166004547f0db58922b371f1d73e8a0732fc0d8f3e264441c5330391644e2f20098008d44783805f0190611254919061337c565b856101000135866060013560405161126f9493929190613a2e565b60405180910390a350565b60025f9054906101000a900473ffffffffffffffffffffffffffffffffffffffff1681565b600760149054906101000a900460ff1681565b60018054146112f6576040517f08c379a00000000000000000000000000000000000000000000000000000000081526004016112ed90612e8d565b60405180910390fd5b6002600181905550600760149054906101000a900460ff161561134e576040517f08c379a000000000000000000000000000000000000000000000000000000000815260040161134590613ab6565b60405180910390fd5b5f60095f8681526020019081526020015f2090505f60085f8781526020019081526020015f209050815f015f9054906101000a900460ff161580156113a15750815f0160019054906101000a900460ff16155b80156113b05750806002015442105b6113ef576040517f08c379a00000000000000000000000000000000000000000000000000000000081526004016113e690613b1e565b60405180910390fd5b8060070154841015611436576040517f08c379a000000000000000000000000000000000000000000000000000000000815260040161142d90613b86565b60405180910390fd5b5f73ffffffffffffffffffffffffffffffffffffffff16816006015f9054906101000a900473ffffffffffffffffffffffffffffffffffffffff1673ffffffffffffffffffffffffffffffffffffffff16036114d3578334146114ce576040517f08c379a00000000000000000000000000000000000000000000000000000000081526004016114c590613bee565b60405180910390fd5b611566565b5f3414611515576040517f08c379a000000000000000000000000000000000000000000000000000000000815260040161150c90613c56565b60405180910390fd5b611565333086846006015f9054906101000a900473ffffffffffffffffffffffffffffffffffffffff1673ffffffffffffffffffffffffffffffffffffffff16612347909392919063ffffffff16565b5b5f600a5f8881526020019081526020015f205f3373ffffffffffffffffffffffffffffffffffffffff1673ffffffffffffffffffffffffffffffffffffffff1681526020019081526020015f2090505f73ffffffffffffffffffffffffffffffffffffffff16816002015f9054906101000a900473ffffffffffffffffffffffffffffffffffffffff1673ffffffffffffffffffffffffffffffffffffffff1614801561163f57505f73ffffffffffffffffffffffffffffffffffffffff168473ffffffffffffffffffffffffffffffffffffffff1614155b801561167757503373ffffffffffffffffffffffffffffffffffffffff168473ffffffffffffffffffffffffffffffffffffffff1614155b156116bf5783816002015f6101000a81548173ffffffffffffffffffffffffffffffffffffffff021916908373ffffffffffffffffffffffffffffffffffffffff1602179055505b85156116fd5784815f015f8282546116d79190612f40565b9250508190555084836002015f8282546116f19190612f40565b92505081905550611732565b84816001015f8282546117109190612f40565b9250508190555084836003015f82825461172a9190612f40565b925050819055505b84836001015f8282546117459190612f40565b925050819055503373ffffffffffffffffffffffffffffffffffffffff16877f1f6e85c010a3003b061f788065fddd4a159e8fae2662ba5afe75f5583c89b65b8789856002015f9054906101000a900473ffffffffffffffffffffffffffffffffffffffff166040516117ba93929190613c74565b60405180910390a35050506001808190555050505050565b60065481565b6008602052805f5260405f205f91509050805f0180546117f790613415565b80601f016020809104026020016040519081016040528092919081815260200182805461182390613415565b801561186e5780601f106118455761010080835404028352916020019161186e565b820191905f5260205f20905b81548152906001019060200180831161185157829003601f168201915b50505050509080600101805461188390613415565b80601f01602080910402602001604051908101604052809291908181526020018280546118af90613415565b80156118fa5780601f106118d1576101008083540402835291602001916118fa565b820191905f5260205f20905b8154815290600101906020018083116118dd57829003601f168201915b505050505090806002015490806003015490806004015490806005015f9054906101000a900473ffffffffffffffffffffffffffffffffffffffff1690806006015f9054906101000a900473ffffffffffffffffffffffffffffffffffffffff16908060060160149054906101000a900460ff16908060070154905089565b611981611eb4565b60095f8281526020019081526020015f205f015f9054906101000a900460ff1680156119cf57506301e1338060085f8381526020019081526020015f20600301546119cc9190612f40565b42115b6119d7575f5ffd5b5f60085f8381526020019081526020015f206006015f9054906101000a900473ffffffffffffffffffffffffffffffffffffffff1690505f73ffffffffffffffffffffffffffffffffffffffff168173ffffffffffffffffffffffffffffffffffffffff1603611a7257611a6d5f60075f9054906101000a900473ffffffffffffffffffffffffffffffffffffffff164761216b565b611b16565b611b158160075f9054906101000a900473ffffffffffffffffffffffffffffffffffffffff168373ffffffffffffffffffffffffffffffffffffffff166370a08231306040518263ffffffff1660e01b8152600401611ad191906126e6565b602060405180830381865afa158015611aec573d5f5f3e3d5ffd5b505050506040513d601f19601f82011682018060405250810190611b109190613ca9565b61216b565b5b5050565b60045481565b6009602052805f5260405f205f91509050805f015f9054906101000a900460ff1690805f0160019054906101000a900460ff1690805f0160029054906101000a900460ff16908060010154908060020154908060030154908060040154905087565b611b8a611eb4565b8060075f6101000a81548173ffffffffffffffffffffffffffffffffffffffff021916908373ffffffffffffffffffffffffffffffffffffffff16021790555050565b611bd5611eb4565b5f73ffffffffffffffffffffffffffffffffffffffff168173ffffffffffffffffffffffffffffffffffffffff1603611c45575f6040517f1e4fbdf7000000000000000000000000000000000000000000000000000000008152600401611c3c91906126e6565b60405180910390fd5b611c4e81612286565b50565b611c59611eb4565b5f60095f8481526020019081526020015f2090505f60085f8581526020019081526020015f209050815f015f9054906101000a900460ff1615611cd1576040517f08c379a0000000000000000000000000000000000000000000000000000000008152600401611cc890612c2c565b60405180910390fd5b815f0160019054906101000a900460ff1615611d22576040517f08c379a0000000000000000000000000000000000000000000000000000000008152600401611d1990613d1e565b60405180910390fd5b5f73ffffffffffffffffffffffffffffffffffffffff16816005015f9054906101000a900473ffffffffffffffffffffffffffffffffffffffff1673ffffffffffffffffffffffffffffffffffffffff1614611db3576040517f08c379a0000000000000000000000000000000000000000000000000000000008152600401611daa90613d86565b60405180910390fd5b8060030154421015611dfa576040517f08c379a0000000000000000000000000000000000000000000000000000000008152600401611df190613dee565b60405180910390fd5b611e048484611f3b565b837feb81c972317adb92322af1a2faf2bef5309afe1b1537c0d196b2dfcb36b91988835f0160029054906101000a900460ff166001604051611e47929190612e1c565b60405180910390a250505050565b611e5d611eb4565b6101f4821115611ea2576040517f08c379a0000000000000000000000000000000000000000000000000000000008152600401611e9990613e56565b60405180910390fd5b81600581905550806006819055505050565b611ebc6123c9565b73ffffffffffffffffffffffffffffffffffffffff16611eda6110fe565b73ffffffffffffffffffffffffffffffffffffffff1614611f3957611efd6123c9565b6040517f118cdaa7000000000000000000000000000000000000000000000000000000008152600401611f3091906126e6565b60405180910390fd5b565b5f60095f8481526020019081526020015f2090505f60085f8581526020019081526020015f20905060028360ff1603611f9f576002825f0160026101000a81548160ff02191690836003811115611f9557611f94612a25565b5b0217905550612009565b60018360ff1603611fdb576001825f0160026101000a81548160ff02191690836003811115611fd157611fd0612a25565b5b0217905550612008565b6003825f0160026101000a81548160ff0219169083600381111561200257612001612a25565b5b02179055505b5b6001825f015f6101000a81548160ff0219169083151502179055506002600381111561203857612037612a25565b5b825f0160029054906101000a900460ff16600381111561205b5761205a612a25565b5b1461206a578160030154612070565b81600201545b826004018190555060038081111561208b5761208a612a25565b5b825f0160029054906101000a900460ff1660038111156120ae576120ad612a25565b5b141580156120bf57505f8260040154145b80156120ce57505f8260010154115b1561216557612126816006015f9054906101000a900473ffffffffffffffffffffffffffffffffffffffff1660075f9054906101000a900473ffffffffffffffffffffffffffffffffffffffff16846001015461216b565b837f312c5308f42848705a866c73dec11fd0783c2d64aac6a97e94467062ad3f405883600101545f60405161215c929190613014565b60405180910390a25b50505050565b5f810315612281575f73ffffffffffffffffffffffffffffffffffffffff168373ffffffffffffffffffffffffffffffffffffffff1603612254575f8273ffffffffffffffffffffffffffffffffffffffff16826040516121cb90613ea1565b5f6040518083038185875af1925050503d805f8114612205576040519150601f19603f3d011682016040523d82523d5f602084013e61220a565b606091505b505090508061224e576040517f08c379a000000000000000000000000000000000000000000000000000000000815260040161224590613eff565b60405180910390fd5b50612280565b61227f82828573ffffffffffffffffffffffffffffffffffffffff166123d09092919063ffffffff16565b5b5b505050565b5f5f5f9054906101000a900473ffffffffffffffffffffffffffffffffffffffff169050815f5f6101000a81548173ffffffffffffffffffffffffffffffffffffffff021916908373ffffffffffffffffffffffffffffffffffffffff1602179055508173ffffffffffffffffffffffffffffffffffffffff168173ffffffffffffffffffffffffffffffffffffffff167f8be0079c531659141344cd1fd0a4f28419497f9722a3daafe3b4186f6b6457e060405160405180910390a35050565b6123c3848573ffffffffffffffffffffffffffffffffffffffff166323b872dd86868660405160240161237c93929190613f1d565b604051602081830303815290604052915060e01b6020820180517bffffffffffffffffffffffffffffffffffffffffffffffffffffffff838183161783525050505061244f565b50505050565b5f33905090565b61244a838473ffffffffffffffffffffffffffffffffffffffff1663a9059cbb8585604051602401612403929190613f52565b604051602081830303815290604052915060e01b6020820180517bffffffffffffffffffffffffffffffffffffffffffffffffffffffff838183161783525050505061244f565b505050565b5f5f60205f8451602086015f885af18061246e576040513d5f823e3d81fd5b3d92505f519150505f82146124875760018114156124a2565b5f8473ffffffffffffffffffffffffffffffffffffffff163b145b156124e457836040517f5274afe70000000000000000000000000000000000000000000000000000000081526004016124db91906126e6565b60405180910390fd5b50505050565b5f73ffffffffffffffffffffffffffffffffffffffff82169050919050565b5f819050919050565b5f61252c612527612522846124ea565b612509565b6124ea565b9050919050565b5f61253d82612512565b9050919050565b5f61254e82612533565b9050919050565b61255e81612544565b82525050565b5f6020820190506125775f830184612555565b92915050565b5f604051905090565b5f5ffd5b5f5ffd5b5f8115159050919050565b6125a28161258e565b81146125ac575f5ffd5b50565b5f813590506125bd81612599565b92915050565b5f602082840312156125d8576125d7612586565b5b5f6125e5848285016125af565b91505092915050565b5f819050919050565b612600816125ee565b82525050565b5f6020820190506126195f8301846125f7565b92915050565b612628816125ee565b8114612632575f5ffd5b50565b5f813590506126438161261f565b92915050565b5f69ffffffffffffffffffff82169050919050565b61266781612649565b8114612671575f5ffd5b50565b5f813590506126828161265e565b92915050565b5f5f6040838503121561269e5761269d612586565b5b5f6126ab85828601612635565b92505060206126bc85828601612674565b9150509250929050565b5f6126d0826124ea565b9050919050565b6126e0816126c6565b82525050565b5f6020820190506126f95f8301846126d7565b92915050565b5f6020828403121561271457612713612586565b5b5f61272184828501612635565b91505092915050565b612733816126c6565b811461273d575f5ffd5b50565b5f8135905061274e8161272a565b92915050565b5f5f6040838503121561276a57612769612586565b5b5f61277785828601612635565b925050602061278885828601612740565b9150509250929050565b61279b8161258e565b82525050565b5f6080820190506127b45f8301876125f7565b6127c160208301866125f7565b6127ce60408301856126d7565b6127db6060830184612792565b95945050505050565b5f5ffd5b5f61012082840312156127fe576127fd6127e4565b5b81905092915050565b5f6020828403121561281c5761281b612586565b5b5f82013567ffffffffffffffff8111156128395761283861258a565b5b612845848285016127e8565b91505092915050565b5f61285882612533565b9050919050565b6128688161284e565b82525050565b5f6020820190506128815f83018461285f565b92915050565b5f60208201905061289a5f830184612792565b92915050565b5f5f5f5f608085870312156128b8576128b7612586565b5b5f6128c587828801612635565b94505060206128d6878288016125af565b93505060406128e787828801612635565b92505060606128f887828801612740565b91505092959194509250565b5f81519050919050565b5f82825260208201905092915050565b8281835e5f83830152505050565b5f601f19601f8301169050919050565b5f61294682612904565b612950818561290e565b935061296081856020860161291e565b6129698161292c565b840191505092915050565b5f819050919050565b61298681612974565b82525050565b5f610120820190508181035f8301526129a5818c61293c565b905081810360208301526129b9818b61293c565b90506129c8604083018a6125f7565b6129d560608301896125f7565b6129e2608083018861297d565b6129ef60a08301876126d7565b6129fc60c08301866126d7565b612a0960e0830185612792565b612a176101008301846125f7565b9a9950505050505050505050565b7f4e487b71000000000000000000000000000000000000000000000000000000005f52602160045260245ffd5b60048110612a6357612a62612a25565b5b50565b5f819050612a7382612a52565b919050565b5f612a8282612a66565b9050919050565b612a9281612a78565b82525050565b5f60e082019050612aab5f83018a612792565b612ab86020830189612792565b612ac56040830188612a89565b612ad260608301876125f7565b612adf60808301866125f7565b612aec60a08301856125f7565b612af960c08301846125f7565b98975050505050505050565b5f60208284031215612b1a57612b19612586565b5b5f612b2784828501612740565b91505092915050565b5f60ff82169050919050565b612b4581612b30565b8114612b4f575f5ffd5b50565b5f81359050612b6081612b3c565b92915050565b5f5f60408385031215612b7c57612b7b612586565b5b5f612b8985828601612635565b9250506020612b9a85828601612b52565b9150509250929050565b5f5f60408385031215612bba57612bb9612586565b5b5f612bc785828601612635565b9250506020612bd885828601612635565b9150509250929050565b7f5265736f6c7665640000000000000000000000000000000000000000000000005f82015250565b5f612c1660088361290e565b9150612c2182612be2565b602082019050919050565b5f6020820190508181035f830152612c4381612c0a565b9050919050565b7f557365204d616e75616c000000000000000000000000000000000000000000005f82015250565b5f612c7e600a8361290e565b9150612c8982612c4a565b602082019050919050565b5f6020820190508181035f830152612cab81612c72565b9050919050565b612cbb81612649565b82525050565b5f60a082019050612cd45f8301886126d7565b612ce16020830187612cb2565b612cee60408301866125f7565b612cfb606083018561297d565b612d086080830184612792565b9695505050505050565b5f81519050612d2081612b3c565b92915050565b612d2f81612974565b8114612d39575f5ffd5b50565b5f81519050612d4a81612d26565b92915050565b5f81519050612d5e81612599565b92915050565b5f5f5f60608486031215612d7b57612d7a612586565b5b5f612d8886828701612d12565b9350506020612d9986828701612d3c565b9250506040612daa86828701612d50565b9150509250925092565b7f496e76616c696420526f756e64000000000000000000000000000000000000005f82015250565b5f612de8600d8361290e565b9150612df382612db4565b602082019050919050565b5f6020820190508181035f830152612e1581612ddc565b9050919050565b5f604082019050612e2f5f830185612a89565b612e3c6020830184612792565b9392505050565b7f5265656e7472616e7400000000000000000000000000000000000000000000005f82015250565b5f612e7760098361290e565b9150612e8282612e43565b602082019050919050565b5f6020820190508181035f830152612ea481612e6b565b9050919050565b7f496e76616c696420636c61696d000000000000000000000000000000000000005f82015250565b5f612edf600d8361290e565b9150612eea82612eab565b602082019050919050565b5f6020820190508181035f830152612f0c81612ed3565b9050919050565b7f4e487b71000000000000000000000000000000000000000000000000000000005f52601160045260245ffd5b5f612f4a826125ee565b9150612f55836125ee565b9250828201905080821115612f6d57612f6c612f13565b5b92915050565b7f4e6f7468696e6720746f20636c61696d000000000000000000000000000000005f82015250565b5f612fa760108361290e565b9150612fb282612f73565b602082019050919050565b5f6020820190508181035f830152612fd481612f9b565b9050919050565b5f819050919050565b5f612ffe612ff9612ff484612fdb565b612509565b6125ee565b9050919050565b61300e81612fe4565b82525050565b5f6040820190506130275f8301856125f7565b6130346020830184613005565b9392505050565b5f60c08201905061304e5f8301896125f7565b61305b60208301886125f7565b61306860408301876125f7565b61307560608301866125f7565b61308260808301856125f7565b61308f60a0830184612792565b979650505050505050565b5f5ffd5b7f4e487b71000000000000000000000000000000000000000000000000000000005f52604160045260245ffd5b6130d48261292c565b810181811067ffffffffffffffff821117156130f3576130f261309e565b5b80604052505050565b5f61310561257d565b905061311182826130cb565b919050565b5f815190506131248161261f565b92915050565b5f6080828403121561313f5761313e61309a565b5b61314960806130fc565b90505f61315884828501613116565b5f83015250602061316b84828501613116565b602083015250604061317f84828501613116565b604083015250606061319384828501613116565b60608301525092915050565b5f608082840312156131b4576131b3612586565b5b5f6131c18482850161312a565b91505092915050565b5f6040820190506131dd5f8301856125f7565b6131ea60208301846125f7565b9392505050565b7f416c7265616479207265736f6c766564000000000000000000000000000000005f82015250565b5f61322560108361290e565b9150613230826131f1565b602082019050919050565b5f6020820190508181035f83015261325281613219565b9050919050565b7f456e642074696d652070617374000000000000000000000000000000000000005f82015250565b5f61328d600d8361290e565b915061329882613259565b602082019050919050565b5f6020820190508181035f8301526132ba81613281565b9050919050565b7f5265732074696d65203c20456e642074696d65000000000000000000000000005f82015250565b5f6132f560138361290e565b9150613300826132c1565b602082019050919050565b5f6020820190508181035f830152613322816132e9565b9050919050565b5f613333826125ee565b91507fffffffffffffffffffffffffffffffffffffffffffffffffffffffffffffffff820361336557613364612f13565b5b600182019050919050565b5f5ffd5b5f5ffd5b5f5ffd5b5f5f8335600160200384360303811261339857613397613370565b5b80840192508235915067ffffffffffffffff8211156133ba576133b9613374565b5b6020830192506001820236038313156133d6576133d5613378565b5b509250929050565b5f82905092915050565b7f4e487b71000000000000000000000000000000000000000000000000000000005f52602260045260245ffd5b5f600282049050600182168061342c57607f821691505b60208210810361343f5761343e6133e8565b5b50919050565b5f819050815f5260205f209050919050565b5f6020601f8301049050919050565b5f82821b905092915050565b5f600883026134a17fffffffffffffffffffffffffffffffffffffffffffffffffffffffffffffffff82613466565b6134ab8683613466565b95508019841693508086168417925050509392505050565b5f6134dd6134d86134d3846125ee565b612509565b6125ee565b9050919050565b5f819050919050565b6134f6836134c3565b61350a613502826134e4565b848454613472565b825550505050565b5f5f905090565b613521613512565b61352c8184846134ed565b505050565b5b8181101561354f576135445f82613519565b600181019050613532565b5050565b601f8211156135945761356581613445565b61356e84613457565b8101602085101561357d578190505b61359161358985613457565b830182613531565b50505b505050565b5f82821c905092915050565b5f6135b45f1984600802613599565b1980831691505092915050565b5f6135cc83836135a5565b9150826002028217905092915050565b6135e683836133de565b67ffffffffffffffff8111156135ff576135fe61309e565b5b6136098254613415565b613614828285613553565b5f601f831160018114613641575f841561362f578287013590505b61363985826135c1565b8655506136a0565b601f19841661364f86613445565b5f5b8281101561367657848901358255600182019150602085019450602081019050613651565b86831015613693578489013561368f601f8916826135a5565b8355505b6001600288020188555050505b50505050505050565b6136b48383836135dc565b505050565b5f81356136c58161261f565b80915050919050565b5f815f1b9050919050565b5f7fffffffffffffffffffffffffffffffffffffffffffffffffffffffffffffffff613704846136ce565b9350801983169250808416831791505092915050565b613723826134c3565b61373661372f826134e4565b83546136d9565b8255505050565b5f813561374981612d26565b80915050919050565b5f61376c61376761376284612974565b612509565b612974565b9050919050565b5f819050919050565b61378582613752565b61379861379182613773565b83546136d9565b8255505050565b5f81356137ab8161272a565b80915050919050565b5f73ffffffffffffffffffffffffffffffffffffffff6137d3846136ce565b9350801983169250808416831791505092915050565b5f6137f382612533565b9050919050565b5f819050919050565b61380c826137e9565b61381f613818826137fa565b83546137b4565b8255505050565b5f813561383281612599565b80915050919050565b5f8160a01b9050919050565b5f74ff00000000000000000000000000000000000000006138678461383b565b9350801983169250808416831791505092915050565b5f6138878261258e565b9050919050565b5f819050919050565b6138a08261387d565b6138b36138ac8261388e565b8354613847565b8255505050565b5f81015f83016138ca818561337c565b6138d58183866136a9565b5050505060018101602083016138eb818561337c565b6138f68183866136a9565b5050505060028101604083018061390c816136b9565b9050613918818461371a565b50505060038101606083018061392d816136b9565b9050613939818461371a565b50505060048101608083018061394e8161373d565b905061395a818461377c565b5050506005810160a083018061396f8161379f565b905061397b8184613803565b5050506006810160c08301806139908161379f565b905061399c8184613803565b5050506006810160e08301806139b181613826565b90506139bd8184613897565b505050600781016101008301806139d3816136b9565b90506139df818461371a565b5050505050565b6139f082826138ba565b5050565b828183375f83830152505050565b5f613a0d838561290e565b9350613a1a8385846139f4565b613a238361292c565b840190509392505050565b5f6060820190508181035f830152613a47818688613a02565b9050613a5660208301856125f7565b613a6360408301846125f7565b95945050505050565b7f50617573656400000000000000000000000000000000000000000000000000005f82015250565b5f613aa060068361290e565b9150613aab82613a6c565b602082019050919050565b5f6020820190508181035f830152613acd81613a94565b9050919050565b7f42657474696e6720636c6f7365640000000000000000000000000000000000005f82015250565b5f613b08600e8361290e565b9150613b1382613ad4565b602082019050919050565b5f6020820190508181035f830152613b3581613afc565b9050919050565b7f42656c6f77206d696e20626574000000000000000000000000000000000000005f82015250565b5f613b70600d8361290e565b9150613b7b82613b3c565b602082019050919050565b5f6020820190508181035f830152613b9d81613b64565b9050919050565b7f455448206d69736d6174636800000000000000000000000000000000000000005f82015250565b5f613bd8600c8361290e565b9150613be382613ba4565b602082019050919050565b5f6020820190508181035f830152613c0581613bcc565b9050919050565b7f446f6e27742073656e64204554480000000000000000000000000000000000005f82015250565b5f613c40600e8361290e565b9150613c4b82613c0c565b602082019050919050565b5f6020820190508181035f830152613c6d81613c34565b9050919050565b5f606082019050613c875f8301866125f7565b613c946020830185612792565b613ca160408301846126d7565b949350505050565b5f60208284031215613cbe57613cbd612586565b5b5f613ccb84828501613116565b91505092915050565b7f43616e63656c6c656400000000000000000000000000000000000000000000005f82015250565b5f613d0860098361290e565b9150613d1382613cd4565b602082019050919050565b5f6020820190508181035f830152613d3581613cfc565b9050919050565b7f557365204175746f0000000000000000000000000000000000000000000000005f82015250565b5f613d7060088361290e565b9150613d7b82613d3c565b602082019050919050565b5f6020820190508181035f830152613d9d81613d64565b9050919050565b7f4e6f7420796574207265736f6c7574696f6e2074696d650000000000000000005f82015250565b5f613dd860178361290e565b9150613de382613da4565b602082019050919050565b5f6020820190508181035f830152613e0581613dcc565b9050919050565b7f4d617820666565203525000000000000000000000000000000000000000000005f82015250565b5f613e40600a8361290e565b9150613e4b82613e0c565b602082019050919050565b5f6020820190508181035f830152613e6d81613e34565b9050919050565b5f81905092915050565b50565b5f613e8c5f83613e74565b9150613e9782613e7e565b5f82019050919050565b5f613eab82613e81565b9150819050919050565b7f455448205472616e73666572206661696c6564000000000000000000000000005f82015250565b5f613ee960138361290e565b9150613ef482613eb5565b602082019050919050565b5f6020820190508181035f830152613f1681613edd565b9050919050565b5f606082019050613f305f8301866126d7565b613f3d60208301856126d7565b613f4a60408301846125f7565b949350505050565b5f604082019050613f655f8301856126d7565b613f7260208301846125f7565b939250505056fea2646970667358221220e9f799856da94a864290a4f82e37bb08af302cef608383c92a7b893529c2743164736f6c634300081f0033",
			"opcodes": "PUSH1 0x80 PUSH1 0x40 MSTORE PUSH1 0x1 DUP1 SSTORE PUSH2 0x1F4 PUSH1 0x5 SSTORE PUSH2 0x7D0 PUSH1 0x6 SSTORE CALLVALUE DUP1 ISZERO PUSH2 0x1F JUMPI PUSH0 PUSH0 REVERT JUMPDEST POP PUSH1 0x40 MLOAD PUSH2 0x42CA CODESIZE SUB DUP1 PUSH2 0x42CA DUP4 CODECOPY DUP2 DUP2 ADD PUSH1 0x40 MSTORE DUP2 ADD SWAP1 PUSH2 0x41 SWAP2 SWAP1 PUSH2 0x2A8 JUMP JUMPDEST CALLER PUSH0 PUSH20 0xFFFFFFFFFFFFFFFFFFFFFFFFFFFFFFFFFFFFFFFF AND DUP2 PUSH20 0xFFFFFFFFFFFFFFFFFFFFFFFFFFFFFFFFFFFFFFFF AND SUB PUSH2 0xB2 JUMPI PUSH0 PUSH1 0x40 MLOAD PUSH32 0x1E4FBDF700000000000000000000000000000000000000000000000000000000 DUP2 MSTORE PUSH1 0x4 ADD PUSH2 0xA9 SWAP2 SWAP1 PUSH2 0x2F5 JUMP JUMPDEST PUSH1 0x40 MLOAD DUP1 SWAP2 SUB SWAP1 REVERT JUMPDEST PUSH2 0xC1 DUP2 PUSH2 0x189 PUSH1 0x20 SHL PUSH1 0x20 SHR JUMP JUMPDEST POP DUP2 PUSH1 0x2 PUSH0 PUSH2 0x100 EXP DUP2 SLOAD DUP2 PUSH20 0xFFFFFFFFFFFFFFFFFFFFFFFFFFFFFFFFFFFFFFFF MUL NOT AND SWAP1 DUP4 PUSH20 0xFFFFFFFFFFFFFFFFFFFFFFFFFFFFFFFFFFFFFFFF AND MUL OR SWAP1 SSTORE POP DUP1 PUSH1 0x3 PUSH0 PUSH2 0x100 EXP DUP2 SLOAD DUP2 PUSH20 0xFFFFFFFFFFFFFFFFFFFFFFFFFFFFFFFFFFFFFFFF MUL NOT AND SWAP1 DUP4 PUSH20 0xFFFFFFFFFFFFFFFFFFFFFFFFFFFFFFFFFFFFFFFF AND MUL OR SWAP1 SSTORE POP CALLER PUSH1 0x7 PUSH0 PUSH2 0x100 EXP DUP2 SLOAD DUP2 PUSH20 0xFFFFFFFFFFFFFFFFFFFFFFFFFFFFFFFFFFFFFFFF MUL NOT AND SWAP1 DUP4 PUSH20 0xFFFFFFFFFFFFFFFFFFFFFFFFFFFFFFFFFFFFFFFF AND MUL OR SWAP1 SSTORE POP POP POP PUSH2 0x30E JUMP JUMPDEST PUSH0 PUSH0 PUSH0 SWAP1 SLOAD SWAP1 PUSH2 0x100 EXP SWAP1 DIV PUSH20 0xFFFFFFFFFFFFFFFFFFFFFFFFFFFFFFFFFFFFFFFF AND SWAP1 POP DUP2 PUSH0 PUSH0 PUSH2 0x100 EXP DUP2 SLOAD DUP2 PUSH20 0xFFFFFFFFFFFFFFFFFFFFFFFFFFFFFFFFFFFFFFFF MUL NOT AND SWAP1 DUP4 PUSH20 0xFFFFFFFFFFFFFFFFFFFFFFFFFFFFFFFFFFFFFFFF AND MUL OR SWAP1 SSTORE POP DUP2 PUSH20 0xFFFFFFFFFFFFFFFFFFFFFFFFFFFFFFFFFFFFFFFF AND DUP2 PUSH20 0xFFFFFFFFFFFFFFFFFFFFFFFFFFFFFFFFFFFFFFFF AND PUSH32 0x8BE0079C531659141344CD1FD0A4F28419497F9722A3DAAFE3B4186F6B6457E0 PUSH1 0x40 MLOAD PUSH1 0x40 MLOAD DUP1 SWAP2 SUB SWAP1 LOG3 POP POP JUMP JUMPDEST PUSH0 PUSH0 REVERT JUMPDEST PUSH0 PUSH20 0xFFFFFFFFFFFFFFFFFFFFFFFFFFFFFFFFFFFFFFFF DUP3 AND SWAP1 POP SWAP2 SWAP1 POP JUMP JUMPDEST PUSH0 PUSH2 0x277 DUP3 PUSH2 0x24E JUMP JUMPDEST SWAP1 POP SWAP2 SWAP1 POP JUMP JUMPDEST PUSH2 0x287 DUP2 PUSH2 0x26D JUMP JUMPDEST DUP2 EQ PUSH2 0x291 JUMPI PUSH0 PUSH0 REVERT JUMPDEST POP JUMP JUMPDEST PUSH0 DUP2 MLOAD SWAP1 POP PUSH2 0x2A2 DUP2 PUSH2 0x27E JUMP JUMPDEST SWAP3 SWAP2 POP POP JUMP JUMPDEST PUSH0 PUSH0 PUSH1 0x40 DUP4 DUP6 SUB SLT ISZERO PUSH2 0x2BE JUMPI PUSH2 0x2BD PUSH2 0x24A JUMP JUMPDEST JUMPDEST PUSH0 PUSH2 0x2CB DUP6 DUP3 DUP7 ADD PUSH2 0x294 JUMP JUMPDEST SWAP3 POP POP PUSH1 0x20 PUSH2 0x2DC DUP6 DUP3 DUP7 ADD PUSH2 0x294 JUMP JUMPDEST SWAP2 POP POP SWAP3 POP SWAP3 SWAP1 POP JUMP JUMPDEST PUSH2 0x2EF DUP2 PUSH2 0x26D JUMP JUMPDEST DUP3 MSTORE POP POP JUMP JUMPDEST PUSH0 PUSH1 0x20 DUP3 ADD SWAP1 POP PUSH2 0x308 PUSH0 DUP4 ADD DUP5 PUSH2 0x2E6 JUMP JUMPDEST SWAP3 SWAP2 POP POP JUMP JUMPDEST PUSH2 0x3FAF DUP1 PUSH2 0x31B PUSH0 CODECOPY PUSH0 RETURN INVALID PUSH1 0x80 PUSH1 0x40 MSTORE PUSH1 0x4 CALLDATASIZE LT PUSH2 0x14E JUMPI PUSH0 CALLDATALOAD PUSH1 0xE0 SHR DUP1 PUSH4 0xADDF3804 GT PUSH2 0xB5 JUMPI DUP1 PUSH4 0xEC979082 GT PUSH2 0x6E JUMPI DUP1 PUSH4 0xEC979082 EQ PUSH2 0x44C JUMPI DUP1 PUSH4 0xEEC8138E EQ PUSH2 0x476 JUMPI DUP1 PUSH4 0xF0F44260 EQ PUSH2 0x4B8 JUMPI DUP1 PUSH4 0xF2FDE38B EQ PUSH2 0x4E0 JUMPI DUP1 PUSH4 0xFE33AE7A EQ PUSH2 0x508 JUMPI DUP1 PUSH4 0xFEACA583 EQ PUSH2 0x530 JUMPI PUSH2 0x155 JUMP JUMPDEST DUP1 PUSH4 0xADDF3804 EQ PUSH2 0x346 JUMPI DUP1 PUSH4 0xB187BD26 EQ PUSH2 0x370 JUMPI DUP1 PUSH4 0xC1DE1343 EQ PUSH2 0x39A JUMPI DUP1 PUSH4 0xD1F8301A EQ PUSH2 0x3B6 JUMPI DUP1 PUSH4 0xE4CFCC23 EQ PUSH2 0x3E0 JUMPI DUP1 PUSH4 0xE50E64D5 EQ PUSH2 0x424 JUMPI PUSH2 0x155 JUMP JUMPDEST DUP1 PUSH4 0x70E5DEB9 GT PUSH2 0x107 JUMPI DUP1 PUSH4 0x70E5DEB9 EQ PUSH2 0x24F JUMPI DUP1 PUSH4 0x715018A6 EQ PUSH2 0x277 JUMPI DUP1 PUSH4 0x7C16CD9E EQ PUSH2 0x28D JUMPI DUP1 PUSH4 0x7D06A8E1 EQ PUSH2 0x2B5 JUMPI DUP1 PUSH4 0x8DA5CB5B EQ PUSH2 0x2F4 JUMPI DUP1 PUSH4 0x9C6720A3 EQ PUSH2 0x31E JUMPI PUSH2 0x155 JUMP JUMPDEST DUP1 PUSH4 0x4F3BCEC EQ PUSH2 0x159 JUMPI DUP1 PUSH4 0x16C38B3C EQ PUSH2 0x183 JUMPI DUP1 PUSH4 0x5A94EE46 EQ PUSH2 0x1AB JUMPI DUP1 PUSH4 0x5CABBBF8 EQ PUSH2 0x1D5 JUMPI DUP1 PUSH4 0x61D027B3 EQ PUSH2 0x1FD JUMPI DUP1 PUSH4 0x677BD9FF EQ PUSH2 0x227 JUMPI PUSH2 0x155 JUMP JUMPDEST CALLDATASIZE PUSH2 0x155 JUMPI STOP JUMPDEST PUSH0 PUSH0 REVERT JUMPDEST CALLVALUE DUP1 ISZERO PUSH2 0x164 JUMPI PUSH0 PUSH0 REVERT JUMPDEST POP PUSH2 0x16D PUSH2 0x558 JUMP JUMPDEST PUSH1 0x40 MLOAD PUSH2 0x17A SWAP2 SWAP1 PUSH2 0x2564 JUMP JUMPDEST PUSH1 0x40 MLOAD DUP1 SWAP2 SUB SWAP1 RETURN JUMPDEST CALLVALUE DUP1 ISZERO PUSH2 0x18E JUMPI PUSH0 PUSH0 REVERT JUMPDEST POP PUSH2 0x1A9 PUSH1 0x4 DUP1 CALLDATASIZE SUB DUP2 ADD SWAP1 PUSH2 0x1A4 SWAP2 SWAP1 PUSH2 0x25C3 JUMP JUMPDEST PUSH2 0x57D JUMP JUMPDEST STOP JUMPDEST CALLVALUE DUP1 ISZERO PUSH2 0x1B6 JUMPI PUSH0 PUSH0 REVERT JUMPDEST POP PUSH2 0x1BF PUSH2 0x5A2 JUMP JUMPDEST PUSH1 0x40 MLOAD PUSH2 0x1CC SWAP2 SWAP1 PUSH2 0x2606 JUMP JUMPDEST PUSH1 0x40 MLOAD DUP1 SWAP2 SUB SWAP1 RETURN JUMPDEST CALLVALUE DUP1 ISZERO PUSH2 0x1E0 JUMPI PUSH0 PUSH0 REVERT JUMPDEST POP PUSH2 0x1FB PUSH1 0x4 DUP1 CALLDATASIZE SUB DUP2 ADD SWAP1 PUSH2 0x1F6 SWAP2 SWAP1 PUSH2 0x2688 JUMP JUMPDEST PUSH2 0x5A8 JUMP JUMPDEST STOP JUMPDEST CALLVALUE DUP1 ISZERO PUSH2 0x208 JUMPI PUSH0 PUSH0 REVERT JUMPDEST POP PUSH2 0x211 PUSH2 0x839 JUMP JUMPDEST PUSH1 0x40 MLOAD PUSH2 0x21E SWAP2 SWAP1 PUSH2 0x26E6 JUMP JUMPDEST PUSH1 0x40 MLOAD DUP1 SWAP2 SUB SWAP1 RETURN JUMPDEST CALLVALUE DUP1 ISZERO PUSH2 0x232 JUMPI PUSH0 PUSH0 REVERT JUMPDEST POP PUSH2 0x24D PUSH1 0x4 DUP1 CALLDATASIZE SUB DUP2 ADD SWAP1 PUSH2 0x248 SWAP2 SWAP1 PUSH2 0x26FF JUMP JUMPDEST PUSH2 0x85E JUMP JUMPDEST STOP JUMPDEST CALLVALUE DUP1 ISZERO PUSH2 0x25A JUMPI PUSH0 PUSH0 REVERT JUMPDEST POP PUSH2 0x275 PUSH1 0x4 DUP1 CALLDATASIZE SUB DUP2 ADD SWAP1 PUSH2 0x270 SWAP2 SWAP1 PUSH2 0x26FF JUMP JUMPDEST PUSH2 0xDFA JUMP JUMPDEST STOP JUMPDEST CALLVALUE DUP1 ISZERO PUSH2 0x282 JUMPI PUSH0 PUSH0 REVERT JUMPDEST POP PUSH2 0x28B PUSH2 0xF88 JUMP JUMPDEST STOP JUMPDEST CALLVALUE DUP1 ISZERO PUSH2 0x298 JUMPI PUSH0 PUSH0 REVERT JUMPDEST POP PUSH2 0x2B3 PUSH1 0x4 DUP1 CALLDATASIZE SUB DUP2 ADD SWAP1 PUSH2 0x2AE SWAP2 SWAP1 PUSH2 0x26FF JUMP JUMPDEST PUSH2 0xF9B JUMP JUMPDEST STOP JUMPDEST CALLVALUE DUP1 ISZERO PUSH2 0x2C0 JUMPI PUSH0 PUSH0 REVERT JUMPDEST POP PUSH2 0x2DB PUSH1 0x4 DUP1 CALLDATASIZE SUB DUP2 ADD SWAP1 PUSH2 0x2D6 SWAP2 SWAP1 PUSH2 0x2754 JUMP JUMPDEST PUSH2 0x109B JUMP JUMPDEST PUSH1 0x40 MLOAD PUSH2 0x2EB SWAP5 SWAP4 SWAP3 SWAP2 SWAP1 PUSH2 0x27A1 JUMP JUMPDEST PUSH1 0x40 MLOAD DUP1 SWAP2 SUB SWAP1 RETURN JUMPDEST CALLVALUE DUP1 ISZERO PUSH2 0x2FF JUMPI PUSH0 PUSH0 REVERT JUMPDEST POP PUSH2 0x308 PUSH2 0x10FE JUMP JUMPDEST PUSH1 0x40 MLOAD PUSH2 0x315 SWAP2 SWAP1 PUSH2 0x26E6 JUMP JUMPDEST PUSH1 0x40 MLOAD DUP1 SWAP2 SUB SWAP1 RETURN JUMPDEST CALLVALUE DUP1 ISZERO PUSH2 0x329 JUMPI PUSH0 PUSH0 REVERT JUMPDEST POP PUSH2 0x344 PUSH1 0x4 DUP1 CALLDATASIZE SUB DUP2 ADD SWAP1 PUSH2 0x33F SWAP2 SWAP1 PUSH2 0x2807 JUMP JUMPDEST PUSH2 0x1125 JUMP JUMPDEST STOP JUMPDEST CALLVALUE DUP1 ISZERO PUSH2 0x351 JUMPI PUSH0 PUSH0 REVERT JUMPDEST POP PUSH2 0x35A PUSH2 0x127A JUMP JUMPDEST PUSH1 0x40 MLOAD PUSH2 0x367 SWAP2 SWAP1 PUSH2 0x286E JUMP JUMPDEST PUSH1 0x40 MLOAD DUP1 SWAP2 SUB SWAP1 RETURN JUMPDEST CALLVALUE DUP1 ISZERO PUSH2 0x37B JUMPI PUSH0 PUSH0 REVERT JUMPDEST POP PUSH2 0x384 PUSH2 0x129F JUMP JUMPDEST PUSH1 0x40 MLOAD PUSH2 0x391 SWAP2 SWAP1 PUSH2 0x2887 JUMP JUMPDEST PUSH1 0x40 MLOAD DUP1 SWAP2 SUB SWAP1 RETURN JUMPDEST PUSH2 0x3B4 PUSH1 0x4 DUP1 CALLDATASIZE SUB DUP2 ADD SWAP1 PUSH2 0x3AF SWAP2 SWAP1 PUSH2 0x28A0 JUMP JUMPDEST PUSH2 0x12B2 JUMP JUMPDEST STOP JUMPDEST CALLVALUE DUP1 ISZERO PUSH2 0x3C1 JUMPI PUSH0 PUSH0 REVERT JUMPDEST POP PUSH2 0x3CA PUSH2 0x17D2 JUMP JUMPDEST PUSH1 0x40 MLOAD PUSH2 0x3D7 SWAP2 SWAP1 PUSH2 0x2606 JUMP JUMPDEST PUSH1 0x40 MLOAD DUP1 SWAP2 SUB SWAP1 RETURN JUMPDEST CALLVALUE DUP1 ISZERO PUSH2 0x3EB JUMPI PUSH0 PUSH0 REVERT JUMPDEST POP PUSH2 0x406 PUSH1 0x4 DUP1 CALLDATASIZE SUB DUP2 ADD SWAP1 PUSH2 0x401 SWAP2 SWAP1 PUSH2 0x26FF JUMP JUMPDEST PUSH2 0x17D8 JUMP JUMPDEST PUSH1 0x40 MLOAD PUSH2 0x41B SWAP10 SWAP9 SWAP8 SWAP7 SWAP6 SWAP5 SWAP4 SWAP3 SWAP2 SWAP1 PUSH2 0x298C JUMP JUMPDEST PUSH1 0x40 MLOAD DUP1 SWAP2 SUB SWAP1 RETURN JUMPDEST CALLVALUE DUP1 ISZERO PUSH2 0x42F JUMPI PUSH0 PUSH0 REVERT JUMPDEST POP PUSH2 0x44A PUSH1 0x4 DUP1 CALLDATASIZE SUB DUP2 ADD SWAP1 PUSH2 0x445 SWAP2 SWAP1 PUSH2 0x26FF JUMP JUMPDEST PUSH2 0x1979 JUMP JUMPDEST STOP JUMPDEST CALLVALUE DUP1 ISZERO PUSH2 0x457 JUMPI PUSH0 PUSH0 REVERT JUMPDEST POP PUSH2 0x460 PUSH2 0x1B1A JUMP JUMPDEST PUSH1 0x40 MLOAD PUSH2 0x46D SWAP2 SWAP1 PUSH2 0x2606 JUMP JUMPDEST PUSH1 0x40 MLOAD DUP1 SWAP2 SUB SWAP1 RETURN JUMPDEST CALLVALUE DUP1 ISZERO PUSH2 0x481 JUMPI PUSH0 PUSH0 REVERT JUMPDEST POP PUSH2 0x49C PUSH1 0x4 DUP1 CALLDATASIZE SUB DUP2 ADD SWAP1 PUSH2 0x497 SWAP2 SWAP1 PUSH2 0x26FF JUMP JUMPDEST PUSH2 0x1B20 JUMP JUMPDEST PUSH1 0x40 MLOAD PUSH2 0x4AF SWAP8 SWAP7 SWAP6 SWAP5 SWAP4 SWAP3 SWAP2 SWAP1 PUSH2 0x2A98 JUMP JUMPDEST PUSH1 0x40 MLOAD DUP1 SWAP2 SUB SWAP1 RETURN JUMPDEST CALLVALUE DUP1 ISZERO PUSH2 0x4C3 JUMPI PUSH0 PUSH0 REVERT JUMPDEST POP PUSH2 0x4DE PUSH1 0x4 DUP1 CALLDATASIZE SUB DUP2 ADD SWAP1 PUSH2 0x4D9 SWAP2 SWAP1 PUSH2 0x2B05 JUMP JUMPDEST PUSH2 0x1B82 JUMP JUMPDEST STOP JUMPDEST CALLVALUE DUP1 ISZERO PUSH2 0x4EB JUMPI PUSH0 PUSH0 REVERT JUMPDEST POP PUSH2 0x506 PUSH1 0x4 DUP1 CALLDATASIZE SUB DUP2 ADD SWAP1 PUSH2 0x501 SWAP2 SWAP1 PUSH2 0x2B05 JUMP JUMPDEST PUSH2 0x1BCD JUMP JUMPDEST STOP JUMPDEST CALLVALUE DUP1 ISZERO PUSH2 0x513 JUMPI PUSH0 PUSH0 REVERT JUMPDEST POP PUSH2 0x52E PUSH1 0x4 DUP1 CALLDATASIZE SUB DUP2 ADD SWAP1 PUSH2 0x529 SWAP2 SWAP1 PUSH2 0x2B66 JUMP JUMPDEST PUSH2 0x1C51 JUMP JUMPDEST STOP JUMPDEST CALLVALUE DUP1 ISZERO PUSH2 0x53B JUMPI PUSH0 PUSH0 REVERT JUMPDEST POP PUSH2 0x556 PUSH1 0x4 DUP1 CALLDATASIZE SUB DUP2 ADD SWAP1 PUSH2 0x551 SWAP2 SWAP1 PUSH2 0x2BA4 JUMP JUMPDEST PUSH2 0x1E55 JUMP JUMPDEST STOP JUMPDEST PUSH1 0x3 PUSH0 SWAP1 SLOAD SWAP1 PUSH2 0x100 EXP SWAP1 DIV PUSH20 0xFFFFFFFFFFFFFFFFFFFFFFFFFFFFFFFFFFFFFFFF AND DUP2 JUMP JUMPDEST PUSH2 0x585 PUSH2 0x1EB4 JUMP JUMPDEST DUP1 PUSH1 0x7 PUSH1 0x14 PUSH2 0x100 EXP DUP2 SLOAD DUP2 PUSH1 0xFF MUL NOT AND SWAP1 DUP4 ISZERO ISZERO MUL OR SWAP1 SSTORE POP POP JUMP JUMPDEST PUSH1 0x5 SLOAD DUP2 JUMP JUMPDEST PUSH2 0x5B0 PUSH2 0x1EB4 JUMP JUMPDEST PUSH0 PUSH1 0x9 PUSH0 DUP5 DUP2 MSTORE PUSH1 0x20 ADD SWAP1 DUP2 MSTORE PUSH1 0x20 ADD PUSH0 KECCAK256 SWAP1 POP PUSH0 PUSH1 0x8 PUSH0 DUP6 DUP2 MSTORE PUSH1 0x20 ADD SWAP1 DUP2 MSTORE PUSH1 0x20 ADD PUSH0 KECCAK256 SWAP1 POP DUP2 PUSH0 ADD PUSH0 SWAP1 SLOAD SWAP1 PUSH2 0x100 EXP SWAP1 DIV PUSH1 0xFF AND ISZERO PUSH2 0x628 JUMPI PUSH1 0x40 MLOAD PUSH32 0x8C379A000000000000000000000000000000000000000000000000000000000 DUP2 MSTORE PUSH1 0x4 ADD PUSH2 0x61F SWAP1 PUSH2 0x2C2C JUMP JUMPDEST PUSH1 0x40 MLOAD DUP1 SWAP2 SUB SWAP1 REVERT JUMPDEST PUSH0 PUSH20 0xFFFFFFFFFFFFFFFFFFFFFFFFFFFFFFFFFFFFFFFF AND DUP2 PUSH1 0x5 ADD PUSH0 SWAP1 SLOAD SWAP1 PUSH2 0x100 EXP SWAP1 DIV PUSH20 0xFFFFFFFFFFFFFFFFFFFFFFFFFFFFFFFFFFFFFFFF AND PUSH20 0xFFFFFFFFFFFFFFFFFFFFFFFFFFFFFFFFFFFFFFFF AND SUB PUSH2 0x6B9 JUMPI PUSH1 0x40 MLOAD PUSH32 0x8C379A000000000000000000000000000000000000000000000000000000000 DUP2 MSTORE PUSH1 0x4 ADD PUSH2 0x6B0 SWAP1 PUSH2 0x2C94 JUMP JUMPDEST PUSH1 0x40 MLOAD DUP1 SWAP2 SUB SWAP1 REVERT JUMPDEST PUSH0 PUSH0 PUSH1 0x3 PUSH0 SWAP1 SLOAD SWAP1 PUSH2 0x100 EXP SWAP1 DIV PUSH20 0xFFFFFFFFFFFFFFFFFFFFFFFFFFFFFFFFFFFFFFFF AND PUSH20 0xFFFFFFFFFFFFFFFFFFFFFFFFFFFFFFFFFFFFFFFF AND PUSH4 0xFCE6093D DUP5 PUSH1 0x5 ADD PUSH0 SWAP1 SLOAD SWAP1 PUSH2 0x100 EXP SWAP1 DIV PUSH20 0xFFFFFFFFFFFFFFFFFFFFFFFFFFFFFFFFFFFFFFFF AND DUP8 DUP7 PUSH1 0x3 ADD SLOAD DUP8 PUSH1 0x4 ADD SLOAD DUP9 PUSH1 0x6 ADD PUSH1 0x14 SWAP1 SLOAD SWAP1 PUSH2 0x100 EXP SWAP1 DIV PUSH1 0xFF AND PUSH1 0x40 MLOAD DUP7 PUSH4 0xFFFFFFFF AND PUSH1 0xE0 SHL DUP2 MSTORE PUSH1 0x4 ADD PUSH2 0x759 SWAP6 SWAP5 SWAP4 SWAP3 SWAP2 SWAP1 PUSH2 0x2CC1 JUMP JUMPDEST PUSH1 0x60 PUSH1 0x40 MLOAD DUP1 DUP4 SUB DUP2 DUP7 GAS STATICCALL ISZERO DUP1 ISZERO PUSH2 0x774 JUMPI RETURNDATASIZE PUSH0 PUSH0 RETURNDATACOPY RETURNDATASIZE PUSH0 REVERT JUMPDEST POP POP POP POP PUSH1 0x40 MLOAD RETURNDATASIZE PUSH1 0x1F NOT PUSH1 0x1F DUP3 ADD AND DUP3 ADD DUP1 PUSH1 0x40 MSTORE POP DUP2 ADD SWAP1 PUSH2 0x798 SWAP2 SWAP1 PUSH2 0x2D64 JUMP JUMPDEST SWAP3 POP POP SWAP2 POP DUP1 PUSH2 0x7DD JUMPI PUSH1 0x40 MLOAD PUSH32 0x8C379A000000000000000000000000000000000000000000000000000000000 DUP2 MSTORE PUSH1 0x4 ADD PUSH2 0x7D4 SWAP1 PUSH2 0x2DFE JUMP JUMPDEST PUSH1 0x40 MLOAD DUP1 SWAP2 SUB SWAP1 REVERT JUMPDEST PUSH2 0x7E7 DUP7 DUP4 PUSH2 0x1F3B JUMP JUMPDEST DUP6 PUSH32 0xEB81C972317ADB92322AF1A2FAF2BEF5309AFE1B1537C0D196B2DFCB36B91988 DUP6 PUSH0 ADD PUSH1 0x2 SWAP1 SLOAD SWAP1 PUSH2 0x100 EXP SWAP1 DIV PUSH1 0xFF AND PUSH0 PUSH1 0x40 MLOAD PUSH2 0x829 SWAP3 SWAP2 SWAP1 PUSH2 0x2E1C JUMP JUMPDEST PUSH1 0x40 MLOAD DUP1 SWAP2 SUB SWAP1 LOG2 POP POP POP POP POP POP JUMP JUMPDEST PUSH1 0x7 PUSH0 SWAP1 SLOAD SWAP1 PUSH2 0x100 EXP SWAP1 DIV PUSH20 0xFFFFFFFFFFFFFFFFFFFFFFFFFFFFFFFFFFFFFFFF AND DUP2 JUMP JUMPDEST PUSH1 0x1 DUP1 SLOAD EQ PUSH2 0x8A2 JUMPI PUSH1 0x40 MLOAD PUSH32 0x8C379A000000000000000000000000000000000000000000000000000000000 DUP2 MSTORE PUSH1 0x4 ADD PUSH2 0x899 SWAP1 PUSH2 0x2E8D JUMP JUMPDEST PUSH1 0x40 MLOAD DUP1 SWAP2 SUB SWAP1 REVERT JUMPDEST PUSH1 0x2 PUSH1 0x1 DUP2 SWAP1 SSTORE POP PUSH0 PUSH1 0x9 PUSH0 DUP4 DUP2 MSTORE PUSH1 0x20 ADD SWAP1 DUP2 MSTORE PUSH1 0x20 ADD PUSH0 KECCAK256 SWAP1 POP PUSH0 PUSH1 0xA PUSH0 DUP5 DUP2 MSTORE PUSH1 0x20 ADD SWAP1 DUP2 MSTORE PUSH1 0x20 ADD PUSH0 KECCAK256 PUSH0 CALLER PUSH20 0xFFFFFFFFFFFFFFFFFFFFFFFFFFFFFFFFFFFFFFFF AND PUSH20 0xFFFFFFFFFFFFFFFFFFFFFFFFFFFFFFFFFFFFFFFF AND DUP2 MSTORE PUSH1 0x20 ADD SWAP1 DUP2 MSTORE PUSH1 0x20 ADD PUSH0 KECCAK256 SWAP1 POP DUP2 PUSH0 ADD PUSH0 SWAP1 SLOAD SWAP1 PUSH2 0x100 EXP SWAP1 DIV PUSH1 0xFF AND DUP1 ISZERO PUSH2 0x938 JUMPI POP DUP1 PUSH1 0x2 ADD PUSH1 0x14 SWAP1 SLOAD SWAP1 PUSH2 0x100 EXP SWAP1 DIV PUSH1 0xFF AND ISZERO JUMPDEST PUSH2 0x977 JUMPI PUSH1 0x40 MLOAD PUSH32 0x8C379A000000000000000000000000000000000000000000000000000000000 DUP2 MSTORE PUSH1 0x4 ADD PUSH2 0x96E SWAP1 PUSH2 0x2EF5 JUMP JUMPDEST PUSH1 0x40 MLOAD DUP1 SWAP2 SUB SWAP1 REVERT JUMPDEST PUSH0 PUSH1 0x2 PUSH1 0x3 DUP2 GT ISZERO PUSH2 0x98C JUMPI PUSH2 0x98B PUSH2 0x2A25 JUMP JUMPDEST JUMPDEST DUP4 PUSH0 ADD PUSH1 0x2 SWAP1 SLOAD SWAP1 PUSH2 0x100 EXP SWAP1 DIV PUSH1 0xFF AND PUSH1 0x3 DUP2 GT ISZERO PUSH2 0x9AF JUMPI PUSH2 0x9AE PUSH2 0x2A25 JUMP JUMPDEST JUMPDEST SUB PUSH2 0x9BF JUMPI DUP2 PUSH0 ADD SLOAD SWAP1 POP PUSH2 0xA5A JUMP JUMPDEST PUSH1 0x1 PUSH1 0x3 DUP2 GT ISZERO PUSH2 0x9D3 JUMPI PUSH2 0x9D2 PUSH2 0x2A25 JUMP JUMPDEST JUMPDEST DUP4 PUSH0 ADD PUSH1 0x2 SWAP1 SLOAD SWAP1 PUSH2 0x100 EXP SWAP1 DIV PUSH1 0xFF AND PUSH1 0x3 DUP2 GT ISZERO PUSH2 0x9F6 JUMPI PUSH2 0x9F5 PUSH2 0x2A25 JUMP JUMPDEST JUMPDEST SUB PUSH2 0xA07 JUMPI DUP2 PUSH1 0x1 ADD SLOAD SWAP1 POP PUSH2 0xA59 JUMP JUMPDEST PUSH1 0x3 DUP1 DUP2 GT ISZERO PUSH2 0xA1A JUMPI PUSH2 0xA19 PUSH2 0x2A25 JUMP JUMPDEST JUMPDEST DUP4 PUSH0 ADD PUSH1 0x2 SWAP1 SLOAD SWAP1 PUSH2 0x100 EXP SWAP1 DIV PUSH1 0xFF AND PUSH1 0x3 DUP2 GT ISZERO PUSH2 0xA3D JUMPI PUSH2 0xA3C PUSH2 0x2A25 JUMP JUMPDEST JUMPDEST SUB PUSH2 0xA58 JUMPI DUP2 PUSH1 0x1 ADD SLOAD DUP3 PUSH0 ADD SLOAD PUSH2 0xA55 SWAP2 SWAP1 PUSH2 0x2F40 JUMP JUMPDEST SWAP1 POP JUMPDEST JUMPDEST JUMPDEST PUSH0 DUP2 GT PUSH2 0xA9C JUMPI PUSH1 0x40 MLOAD PUSH32 0x8C379A000000000000000000000000000000000000000000000000000000000 DUP2 MSTORE PUSH1 0x4 ADD PUSH2 0xA93 SWAP1 PUSH2 0x2FBD JUMP JUMPDEST PUSH1 0x40 MLOAD DUP1 SWAP2 SUB SWAP1 REVERT JUMPDEST PUSH1 0x1 DUP3 PUSH1 0x2 ADD PUSH1 0x14 PUSH2 0x100 EXP DUP2 SLOAD DUP2 PUSH1 0xFF MUL NOT AND SWAP1 DUP4 ISZERO ISZERO MUL OR SWAP1 SSTORE POP PUSH1 0x3 DUP1 DUP2 GT ISZERO PUSH2 0xACC JUMPI PUSH2 0xACB PUSH2 0x2A25 JUMP JUMPDEST JUMPDEST DUP4 PUSH0 ADD PUSH1 0x2 SWAP1 SLOAD SWAP1 PUSH2 0x100 EXP SWAP1 DIV PUSH1 0xFF AND PUSH1 0x3 DUP2 GT ISZERO PUSH2 0xAEF JUMPI PUSH2 0xAEE PUSH2 0x2A25 JUMP JUMPDEST JUMPDEST SUB PUSH2 0xB8B JUMPI PUSH2 0xB32 PUSH1 0x8 PUSH0 DUP7 DUP2 MSTORE PUSH1 0x20 ADD SWAP1 DUP2 MSTORE PUSH1 0x20 ADD PUSH0 KECCAK256 PUSH1 0x6 ADD PUSH0 SWAP1 SLOAD SWAP1 PUSH2 0x100 EXP SWAP1 DIV PUSH20 0xFFFFFFFFFFFFFFFFFFFFFFFFFFFFFFFFFFFFFFFF AND CALLER DUP4 PUSH2 0x216B JUMP JUMPDEST CALLER PUSH20 0xFFFFFFFFFFFFFFFFFFFFFFFFFFFFFFFFFFFFFFFF AND DUP5 PUSH32 0x6256309DC4C6375473B26B31FC0E88B0CA9EBCA0E558D39FEC5AA96863AD40CB DUP4 PUSH0 PUSH1 0x40 MLOAD PUSH2 0xB7B SWAP3 SWAP2 SWAP1 PUSH2 0x3014 JUMP JUMPDEST PUSH1 0x40 MLOAD DUP1 SWAP2 SUB SWAP1 LOG3 POP POP POP PUSH2 0xDF0 JUMP JUMPDEST PUSH0 PUSH1 0x2 PUSH0 SWAP1 SLOAD SWAP1 PUSH2 0x100 EXP SWAP1 DIV PUSH20 0xFFFFFFFFFFFFFFFFFFFFFFFFFFFFFFFFFFFFFFFF AND PUSH20 0xFFFFFFFFFFFFFFFFFFFFFFFFFFFFFFFFFFFFFFFF AND PUSH4 0xC494293B DUP4 DUP7 PUSH1 0x1 ADD SLOAD DUP8 PUSH1 0x4 ADD SLOAD PUSH1 0x5 SLOAD PUSH1 0x6 SLOAD PUSH0 PUSH20 0xFFFFFFFFFFFFFFFFFFFFFFFFFFFFFFFFFFFFFFFF AND DUP11 PUSH1 0x2 ADD PUSH0 SWAP1 SLOAD SWAP1 PUSH2 0x100 EXP SWAP1 DIV PUSH20 0xFFFFFFFFFFFFFFFFFFFFFFFFFFFFFFFFFFFFFFFF AND PUSH20 0xFFFFFFFFFFFFFFFFFFFFFFFFFFFFFFFFFFFFFFFF AND EQ ISZERO PUSH1 0x40 MLOAD DUP8 PUSH4 0xFFFFFFFF AND PUSH1 0xE0 SHL DUP2 MSTORE PUSH1 0x4 ADD PUSH2 0xC4E SWAP7 SWAP6 SWAP5 SWAP4 SWAP3 SWAP2 SWAP1 PUSH2 0x303B JUMP JUMPDEST PUSH1 0x80 PUSH1 0x40 MLOAD DUP1 DUP4 SUB DUP2 DUP7 GAS STATICCALL ISZERO DUP1 ISZERO PUSH2 0xC69 JUMPI RETURNDATASIZE PUSH0 PUSH0 RETURNDATACOPY RETURNDATASIZE PUSH0 REVERT JUMPDEST POP POP POP POP PUSH1 0x40 MLOAD RETURNDATASIZE PUSH1 0x1F NOT PUSH1 0x1F DUP3 ADD AND DUP3 ADD DUP1 PUSH1 0x40 MSTORE POP DUP2 ADD SWAP1 PUSH2 0xC8D SWAP2 SWAP1 PUSH2 0x319F JUMP JUMPDEST SWAP1 POP PUSH0 PUSH1 0x8 PUSH0 DUP8 DUP2 MSTORE PUSH1 0x20 ADD SWAP1 DUP2 MSTORE PUSH1 0x20 ADD PUSH0 KECCAK256 PUSH1 0x6 ADD PUSH0 SWAP1 SLOAD SWAP1 PUSH2 0x100 EXP SWAP1 DIV PUSH20 0xFFFFFFFFFFFFFFFFFFFFFFFFFFFFFFFFFFFFFFFF AND SWAP1 POP PUSH2 0xCD4 DUP2 CALLER DUP5 PUSH0 ADD MLOAD PUSH2 0x216B JUMP JUMPDEST PUSH0 DUP3 PUSH1 0x20 ADD MLOAD GT ISZERO PUSH2 0xD92 JUMPI PUSH2 0xD10 DUP2 PUSH1 0x7 PUSH0 SWAP1 SLOAD SWAP1 PUSH2 0x100 EXP SWAP1 DIV PUSH20 0xFFFFFFFFFFFFFFFFFFFFFFFFFFFFFFFFFFFFFFFF AND DUP5 PUSH1 0x40 ADD MLOAD PUSH2 0x216B JUMP JUMPDEST PUSH0 DUP3 PUSH1 0x60 ADD MLOAD GT ISZERO PUSH2 0xD4F JUMPI PUSH2 0xD4E DUP2 DUP6 PUSH1 0x2 ADD PUSH0 SWAP1 SLOAD SWAP1 PUSH2 0x100 EXP SWAP1 DIV PUSH20 0xFFFFFFFFFFFFFFFFFFFFFFFFFFFFFFFFFFFFFFFF AND DUP5 PUSH1 0x60 ADD MLOAD PUSH2 0x216B JUMP JUMPDEST JUMPDEST DUP6 PUSH32 0x312C5308F42848705A866C73DEC11FD0783C2D64AAC6A97E94467062AD3F4058 DUP4 PUSH1 0x40 ADD MLOAD DUP5 PUSH1 0x60 ADD MLOAD PUSH1 0x40 MLOAD PUSH2 0xD89 SWAP3 SWAP2 SWAP1 PUSH2 0x31CA JUMP JUMPDEST PUSH1 0x40 MLOAD DUP1 SWAP2 SUB SWAP1 LOG2 JUMPDEST CALLER PUSH20 0xFFFFFFFFFFFFFFFFFFFFFFFFFFFFFFFFFFFFFFFF AND DUP7 PUSH32 0x6256309DC4C6375473B26B31FC0E88B0CA9EBCA0E558D39FEC5AA96863AD40CB DUP5 PUSH0 ADD MLOAD DUP6 PUSH1 0x20 ADD MLOAD PUSH1 0x40 MLOAD PUSH2 0xDE2 SWAP3 SWAP2 SWAP1 PUSH2 0x31CA JUMP JUMPDEST PUSH1 0x40 MLOAD DUP1 SWAP2 SUB SWAP1 LOG3 POP POP POP POP POP JUMPDEST PUSH1 0x1 DUP1 DUP2 SWAP1 SSTORE POP POP JUMP JUMPDEST PUSH1 0x1 DUP1 SLOAD EQ PUSH2 0xE3E JUMPI PUSH1 0x40 MLOAD PUSH32 0x8C379A000000000000000000000000000000000000000000000000000000000 DUP2 MSTORE PUSH1 0x4 ADD PUSH2 0xE35 SWAP1 PUSH2 0x2E8D JUMP JUMPDEST PUSH1 0x40 MLOAD DUP1 SWAP2 SUB SWAP1 REVERT JUMPDEST PUSH1 0x2 PUSH1 0x1 DUP2 SWAP1 SSTORE POP PUSH0 PUSH1 0x9 PUSH0 DUP4 DUP2 MSTORE PUSH1 0x20 ADD SWAP1 DUP2 MSTORE PUSH1 0x20 ADD PUSH0 KECCAK256 SWAP1 POP PUSH0 PUSH1 0x8 PUSH0 DUP5 DUP2 MSTORE PUSH1 0x20 ADD SWAP1 DUP2 MSTORE PUSH1 0x20 ADD PUSH0 KECCAK256 SWAP1 POP DUP2 PUSH0 ADD PUSH0 SWAP1 SLOAD SWAP1 PUSH2 0x100 EXP SWAP1 DIV PUSH1 0xFF AND ISZERO DUP1 ISZERO PUSH2 0xE9C JUMPI POP PUSH3 0x3F480 DUP2 PUSH1 0x3 ADD SLOAD PUSH2 0xE99 SWAP2 SWAP1 PUSH2 0x2F40 JUMP JUMPDEST TIMESTAMP GT JUMPDEST PUSH2 0xEA4 JUMPI PUSH0 PUSH0 REVERT JUMPDEST PUSH0 PUSH1 0xA PUSH0 DUP6 DUP2 MSTORE PUSH1 0x20 ADD SWAP1 DUP2 MSTORE PUSH1 0x20 ADD PUSH0 KECCAK256 PUSH0 CALLER PUSH20 0xFFFFFFFFFFFFFFFFFFFFFFFFFFFFFFFFFFFFFFFF AND PUSH20 0xFFFFFFFFFFFFFFFFFFFFFFFFFFFFFFFFFFFFFFFF AND DUP2 MSTORE PUSH1 0x20 ADD SWAP1 DUP2 MSTORE PUSH1 0x20 ADD PUSH0 KECCAK256 SWAP1 POP PUSH0 DUP2 PUSH1 0x1 ADD SLOAD DUP3 PUSH0 ADD SLOAD PUSH2 0xF07 SWAP2 SWAP1 PUSH2 0x2F40 JUMP JUMPDEST SWAP1 POP PUSH0 DUP2 GT DUP1 ISZERO PUSH2 0xF27 JUMPI POP DUP2 PUSH1 0x2 ADD PUSH1 0x14 SWAP1 SLOAD SWAP1 PUSH2 0x100 EXP SWAP1 DIV PUSH1 0xFF AND ISZERO JUMPDEST PUSH2 0xF2F JUMPI PUSH0 PUSH0 REVERT JUMPDEST PUSH1 0x1 DUP3 PUSH1 0x2 ADD PUSH1 0x14 PUSH2 0x100 EXP DUP2 SLOAD DUP2 PUSH1 0xFF MUL NOT AND SWAP1 DUP4 ISZERO ISZERO MUL OR SWAP1 SSTORE POP PUSH2 0xF7A DUP4 PUSH1 0x6 ADD PUSH0 SWAP1 SLOAD SWAP1 PUSH2 0x100 EXP SWAP1 DIV PUSH20 0xFFFFFFFFFFFFFFFFFFFFFFFFFFFFFFFFFFFFFFFF AND CALLER DUP4 PUSH2 0x216B JUMP JUMPDEST POP POP POP POP PUSH1 0x1 DUP1 DUP2 SWAP1 SSTORE POP POP JUMP JUMPDEST PUSH2 0xF90 PUSH2 0x1EB4 JUMP JUMPDEST PUSH2 0xF99 PUSH0 PUSH2 0x2286 JUMP JUMPDEST JUMP JUMPDEST PUSH2 0xFA3 PUSH2 0x1EB4 JUMP JUMPDEST PUSH0 PUSH1 0x9 PUSH0 DUP4 DUP2 MSTORE PUSH1 0x20 ADD SWAP1 DUP2 MSTORE PUSH1 0x20 ADD PUSH0 KECCAK256 SWAP1 POP DUP1 PUSH0 ADD PUSH0 SWAP1 SLOAD SWAP1 PUSH2 0x100 EXP SWAP1 DIV PUSH1 0xFF AND ISZERO PUSH2 0x1007 JUMPI PUSH1 0x40 MLOAD PUSH32 0x8C379A000000000000000000000000000000000000000000000000000000000 DUP2 MSTORE PUSH1 0x4 ADD PUSH2 0xFFE SWAP1 PUSH2 0x323B JUMP JUMPDEST PUSH1 0x40 MLOAD DUP1 SWAP2 SUB SWAP1 REVERT JUMPDEST PUSH1 0x1 DUP2 PUSH0 ADD PUSH1 0x1 PUSH2 0x100 EXP DUP2 SLOAD DUP2 PUSH1 0xFF MUL NOT AND SWAP1 DUP4 ISZERO ISZERO MUL OR SWAP1 SSTORE POP PUSH1 0x1 DUP2 PUSH0 ADD PUSH0 PUSH2 0x100 EXP DUP2 SLOAD DUP2 PUSH1 0xFF MUL NOT AND SWAP1 DUP4 ISZERO ISZERO MUL OR SWAP1 SSTORE POP PUSH1 0x3 DUP2 PUSH0 ADD PUSH1 0x2 PUSH2 0x100 EXP DUP2 SLOAD DUP2 PUSH1 0xFF MUL NOT AND SWAP1 DUP4 PUSH1 0x3 DUP2 GT ISZERO PUSH2 0x1065 JUMPI PUSH2 0x1064 PUSH2 0x2A25 JUMP JUMPDEST JUMPDEST MUL OR SWAP1 SSTORE POP DUP2 PUSH32 0x2CA440FB7FCA85D7F55D395A4ABD94817330B83A62F3502EFBB4770144E4CA97 PUSH1 0x40 MLOAD PUSH1 0x40 MLOAD DUP1 SWAP2 SUB SWAP1 LOG2 POP POP JUMP JUMPDEST PUSH1 0xA PUSH1 0x20 MSTORE DUP2 PUSH0 MSTORE PUSH1 0x40 PUSH0 KECCAK256 PUSH1 0x20 MSTORE DUP1 PUSH0 MSTORE PUSH1 0x40 PUSH0 KECCAK256 PUSH0 SWAP2 POP SWAP2 POP POP DUP1 PUSH0 ADD SLOAD SWAP1 DUP1 PUSH1 0x1 ADD SLOAD SWAP1 DUP1 PUSH1 0x2 ADD PUSH0 SWAP1 SLOAD SWAP1 PUSH2 0x100 EXP SWAP1 DIV PUSH20 0xFFFFFFFFFFFFFFFFFFFFFFFFFFFFFFFFFFFFFFFF AND SWAP1 DUP1 PUSH1 0x2 ADD PUSH1 0x14 SWAP1 SLOAD SWAP1 PUSH2 0x100 EXP SWAP1 DIV PUSH1 0xFF AND SWAP1 POP DUP5 JUMP JUMPDEST PUSH0 PUSH0 PUSH0 SWAP1 SLOAD SWAP1 PUSH2 0x100 EXP SWAP1 DIV PUSH20 0xFFFFFFFFFFFFFFFFFFFFFFFFFFFFFFFFFFFFFFFF AND SWAP1 POP SWAP1 JUMP JUMPDEST PUSH2 0x112D PUSH2 0x1EB4 JUMP JUMPDEST TIMESTAMP DUP2 PUSH1 0x40 ADD CALLDATALOAD GT PUSH2 0x1173 JUMPI PUSH1 0x40 MLOAD PUSH32 0x8C379A000000000000000000000000000000000000000000000000000000000 DUP2 MSTORE PUSH1 0x4 ADD PUSH2 0x116A SWAP1 PUSH2 0x32A3 JUMP JUMPDEST PUSH1 0x40 MLOAD DUP1 SWAP2 SUB SWAP1 REVERT JUMPDEST DUP1 PUSH1 0x40 ADD CALLDATALOAD DUP2 PUSH1 0x60 ADD CALLDATALOAD LT ISZERO PUSH2 0x11BE JUMPI PUSH1 0x40 MLOAD PUSH32 0x8C379A000000000000000000000000000000000000000000000000000000000 DUP2 MSTORE PUSH1 0x4 ADD PUSH2 0x11B5 SWAP1 PUSH2 0x330B JUMP JUMPDEST PUSH1 0x40 MLOAD DUP1 SWAP2 SUB SWAP1 REVERT JUMPDEST PUSH1 0x4 PUSH0 DUP2 SLOAD DUP1 SWAP3 SWAP2 SWAP1 PUSH2 0x11D0 SWAP1 PUSH2 0x3329 JUMP JUMPDEST SWAP2 SWAP1 POP SSTORE POP DUP1 PUSH1 0x8 PUSH0 PUSH1 0x4 SLOAD DUP2 MSTORE PUSH1 0x20 ADD SWAP1 DUP2 MSTORE PUSH1 0x20 ADD PUSH0 KECCAK256 DUP2 DUP2 PUSH2 0x11F5 SWAP2 SWAP1 PUSH2 0x39E6 JUMP JUMPDEST SWAP1 POP POP DUP1 PUSH1 0xC0 ADD PUSH1 0x20 DUP2 ADD SWAP1 PUSH2 0x120B SWAP2 SWAP1 PUSH2 0x2B05 JUMP JUMPDEST PUSH20 0xFFFFFFFFFFFFFFFFFFFFFFFFFFFFFFFFFFFFFFFF AND PUSH1 0x4 SLOAD PUSH32 0xDB58922B371F1D73E8A0732FC0D8F3E264441C5330391644E2F20098008D447 DUP4 DUP1 PUSH0 ADD SWAP1 PUSH2 0x1254 SWAP2 SWAP1 PUSH2 0x337C JUMP JUMPDEST DUP6 PUSH2 0x100 ADD CALLDATALOAD DUP7 PUSH1 0x60 ADD CALLDATALOAD PUSH1 0x40 MLOAD PUSH2 0x126F SWAP5 SWAP4 SWAP3 SWAP2 SWAP1 PUSH2 0x3A2E JUMP JUMPDEST PUSH1 0x40 MLOAD DUP1 SWAP2 SUB SWAP1 LOG3 POP JUMP JUMPDEST PUSH1 0x2 PUSH0 SWAP1 SLOAD SWAP1 PUSH2 0x100 EXP SWAP1 DIV PUSH20 0xFFFFFFFFFFFFFFFFFFFFFFFFFFFFFFFFFFFFFFFF AND DUP2 JUMP JUMPDEST PUSH1 0x7 PUSH1 0x14 SWAP1 SLOAD SWAP1 PUSH2 0x100 EXP SWAP1 DIV PUSH1 0xFF AND DUP2 JUMP JUMPDEST PUSH1 0x1 DUP1 SLOAD EQ PUSH2 0x12F6 JUMPI PUSH1 0x40 MLOAD PUSH32 0x8C379A000000000000000000000000000000000000000000000000000000000 DUP2 MSTORE PUSH1 0x4 ADD PUSH2 0x12ED SWAP1 PUSH2 0x2E8D JUMP JUMPDEST PUSH1 0x40 MLOAD DUP1 SWAP2 SUB SWAP1 REVERT JUMPDEST PUSH1 0x2 PUSH1 0x1 DUP2 SWAP1 SSTORE POP PUSH1 0x7 PUSH1 0x14 SWAP1 SLOAD SWAP1 PUSH2 0x100 EXP SWAP1 DIV PUSH1 0xFF AND ISZERO PUSH2 0x134E JUMPI PUSH1 0x40 MLOAD PUSH32 0x8C379A000000000000000000000000000000000000000000000000000000000 DUP2 MSTORE PUSH1 0x4 ADD PUSH2 0x1345 SWAP1 PUSH2 0x3AB6 JUMP JUMPDEST PUSH1 0x40 MLOAD DUP1 SWAP2 SUB SWAP1 REVERT JUMPDEST PUSH0 PUSH1 0x9 PUSH0 DUP7 DUP2 MSTORE PUSH1 0x20 ADD SWAP1 DUP2 MSTORE PUSH1 0x20 ADD PUSH0 KECCAK256 SWAP1 POP PUSH0 PUSH1 0x8 PUSH0 DUP8 DUP2 MSTORE PUSH1 0x20 ADD SWAP1 DUP2 MSTORE PUSH1 0x20 ADD PUSH0 KECCAK256 SWAP1 POP DUP2 PUSH0 ADD PUSH0 SWAP1 SLOAD SWAP1 PUSH2 0x100 EXP SWAP1 DIV PUSH1 0xFF AND ISZERO DUP1 ISZERO PUSH2 0x13A1 JUMPI POP DUP2 PUSH0 ADD PUSH1 0x1 SWAP1 SLOAD SWAP1 PUSH2 0x100 EXP SWAP1 DIV PUSH1 0xFF AND ISZERO JUMPDEST DUP1 ISZERO PUSH2 0x13B0 JUMPI POP DUP1 PUSH1 0x2 ADD SLOAD TIMESTAMP LT JUMPDEST PUSH2 0x13EF JUMPI PUSH1 0x40 MLOAD PUSH32 0x8C379A000000000000000000000000000000000000000000000000000000000 DUP2 MSTORE PUSH1 0x4 ADD PUSH2 0x13E6 SWAP1 PUSH2 0x3B1E JUMP JUMPDEST PUSH1 0x40 MLOAD DUP1 SWAP2 SUB SWAP1 REVERT JUMPDEST DUP1 PUSH1 0x7 ADD SLOAD DUP5 LT ISZERO PUSH2 0x1436 JUMPI PUSH1 0x40 MLOAD PUSH32 0x8C379A000000000000000000000000000000000000000000000000000000000 DUP2 MSTORE PUSH1 0x4 ADD PUSH2 0x142D SWAP1 PUSH2 0x3B86 JUMP JUMPDEST PUSH1 0x40 MLOAD DUP1 SWAP2 SUB SWAP1 REVERT JUMPDEST PUSH0 PUSH20 0xFFFFFFFFFFFFFFFFFFFFFFFFFFFFFFFFFFFFFFFF AND DUP2 PUSH1 0x6 ADD PUSH0 SWAP1 SLOAD SWAP1 PUSH2 0x100 EXP SWAP1 DIV PUSH20 0xFFFFFFFFFFFFFFFFFFFFFFFFFFFFFFFFFFFFFFFF AND PUSH20 0xFFFFFFFFFFFFFFFFFFFFFFFFFFFFFFFFFFFFFFFF AND SUB PUSH2 0x14D3 JUMPI DUP4 CALLVALUE EQ PUSH2 0x14CE JUMPI PUSH1 0x40 MLOAD PUSH32 0x8C379A000000000000000000000000000000000000000000000000000000000 DUP2 MSTORE PUSH1 0x4 ADD PUSH2 0x14C5 SWAP1 PUSH2 0x3BEE JUMP JUMPDEST PUSH1 0x40 MLOAD DUP1 SWAP2 SUB SWAP1 REVERT JUMPDEST PUSH2 0x1566 JUMP JUMPDEST PUSH0 CALLVALUE EQ PUSH2 0x1515 JUMPI PUSH1 0x40 MLOAD PUSH32 0x8C379A000000000000000000000000000000000000000000000000000000000 DUP2 MSTORE PUSH1 0x4 ADD PUSH2 0x150C SWAP1 PUSH2 0x3C56 JUMP JUMPDEST PUSH1 0x40 MLOAD DUP1 SWAP2 SUB SWAP1 REVERT JUMPDEST PUSH2 0x1565 CALLER ADDRESS DUP7 DUP5 PUSH1 0x6 ADD PUSH0 SWAP1 SLOAD SWAP1 PUSH2 0x100 EXP SWAP1 DIV PUSH20 0xFFFFFFFFFFFFFFFFFFFFFFFFFFFFFFFFFFFFFFFF AND PUSH20 0xFFFFFFFFFFFFFFFFFFFFFFFFFFFFFFFFFFFFFFFF AND PUSH2 0x2347 SWAP1 SWAP4 SWAP3 SWAP2 SWAP1 PUSH4 0xFFFFFFFF AND JUMP JUMPDEST JUMPDEST PUSH0 PUSH1 0xA PUSH0 DUP9 DUP2 MSTORE PUSH1 0x20 ADD SWAP1 DUP2 MSTORE PUSH1 0x20 ADD PUSH0 KECCAK256 PUSH0 CALLER PUSH20 0xFFFFFFFFFFFFFFFFFFFFFFFFFFFFFFFFFFFFFFFF AND PUSH20 0xFFFFFFFFFFFFFFFFFFFFFFFFFFFFFFFFFFFFFFFF AND DUP2 MSTORE PUSH1 0x20 ADD SWAP1 DUP2 MSTORE PUSH1 0x20 ADD PUSH0 KECCAK256 SWAP1 POP PUSH0 PUSH20 0xFFFFFFFFFFFFFFFFFFFFFFFFFFFFFFFFFFFFFFFF AND DUP2 PUSH1 0x2 ADD PUSH0 SWAP1 SLOAD SWAP1 PUSH2 0x100 EXP SWAP1 DIV PUSH20 0xFFFFFFFFFFFFFFFFFFFFFFFFFFFFFFFFFFFFFFFF AND PUSH20 0xFFFFFFFFFFFFFFFFFFFFFFFFFFFFFFFFFFFFFFFF AND EQ DUP1 ISZERO PUSH2 0x163F JUMPI POP PUSH0 PUSH20 0xFFFFFFFFFFFFFFFFFFFFFFFFFFFFFFFFFFFFFFFF AND DUP5 PUSH20 0xFFFFFFFFFFFFFFFFFFFFFFFFFFFFFFFFFFFFFFFF AND EQ ISZERO JUMPDEST DUP1 ISZERO PUSH2 0x1677 JUMPI POP CALLER PUSH20 0xFFFFFFFFFFFFFFFFFFFFFFFFFFFFFFFFFFFFFFFF AND DUP5 PUSH20 0xFFFFFFFFFFFFFFFFFFFFFFFFFFFFFFFFFFFFFFFF AND EQ ISZERO JUMPDEST ISZERO PUSH2 0x16BF JUMPI DUP4 DUP2 PUSH1 0x2 ADD PUSH0 PUSH2 0x100 EXP DUP2 SLOAD DUP2 PUSH20 0xFFFFFFFFFFFFFFFFFFFFFFFFFFFFFFFFFFFFFFFF MUL NOT AND SWAP1 DUP4 PUSH20 0xFFFFFFFFFFFFFFFFFFFFFFFFFFFFFFFFFFFFFFFF AND MUL OR SWAP1 SSTORE POP JUMPDEST DUP6 ISZERO PUSH2 0x16FD JUMPI DUP5 DUP2 PUSH0 ADD PUSH0 DUP3 DUP3 SLOAD PUSH2 0x16D7 SWAP2 SWAP1 PUSH2 0x2F40 JUMP JUMPDEST SWAP3 POP POP DUP2 SWAP1 SSTORE POP DUP5 DUP4 PUSH1 0x2 ADD PUSH0 DUP3 DUP3 SLOAD PUSH2 0x16F1 SWAP2 SWAP1 PUSH2 0x2F40 JUMP JUMPDEST SWAP3 POP POP DUP2 SWAP1 SSTORE POP PUSH2 0x1732 JUMP JUMPDEST DUP5 DUP2 PUSH1 0x1 ADD PUSH0 DUP3 DUP3 SLOAD PUSH2 0x1710 SWAP2 SWAP1 PUSH2 0x2F40 JUMP JUMPDEST SWAP3 POP POP DUP2 SWAP1 SSTORE POP DUP5 DUP4 PUSH1 0x3 ADD PUSH0 DUP3 DUP3 SLOAD PUSH2 0x172A SWAP2 SWAP1 PUSH2 0x2F40 JUMP JUMPDEST SWAP3 POP POP DUP2 SWAP1 SSTORE POP JUMPDEST DUP5 DUP4 PUSH1 0x1 ADD PUSH0 DUP3 DUP3 SLOAD PUSH2 0x1745 SWAP2 SWAP1 PUSH2 0x2F40 JUMP JUMPDEST SWAP3 POP POP DUP2 SWAP1 SSTORE POP CALLER PUSH20 0xFFFFFFFFFFFFFFFFFFFFFFFFFFFFFFFFFFFFFFFF AND DUP8 PUSH32 0x1F6E85C010A3003B061F788065FDDD4A159E8FAE2662BA5AFE75F5583C89B65B DUP8 DUP10 DUP6 PUSH1 0x2 ADD PUSH0 SWAP1 SLOAD SWAP1 PUSH2 0x100 EXP SWAP1 DIV PUSH20 0xFFFFFFFFFFFFFFFFFFFFFFFFFFFFFFFFFFFFFFFF AND PUSH1 0x40 MLOAD PUSH2 0x17BA SWAP4 SWAP3 SWAP2 SWAP1 PUSH2 0x3C74 JUMP JUMPDEST PUSH1 0x40 MLOAD DUP1 SWAP2 SUB SWAP1 LOG3 POP POP POP PUSH1 0x1 DUP1 DUP2 SWAP1 SSTORE POP POP POP POP POP JUMP JUMPDEST PUSH1 0x6 SLOAD DUP2 JUMP JUMPDEST PUSH1 0x8 PUSH1 0x20 MSTORE DUP1 PUSH0 MSTORE PUSH1 0x40 PUSH0 KECCAK256 PUSH0 SWAP2 POP SWAP1 POP DUP1 PUSH0 ADD DUP1 SLOAD PUSH2 0x17F7 SWAP1 PUSH2 0x3415 JUMP JUMPDEST DUP1 PUSH1 0x1F ADD PUSH1 0x20 DUP1 SWAP2 DIV MUL PUSH1 0x20 ADD PUSH1 0x40 MLOAD SWAP1 DUP2 ADD PUSH1 0x40 MSTORE DUP1 SWAP3 SWAP2 SWAP1 DUP2 DUP2 MSTORE PUSH1 0x20 ADD DUP3 DUP1 SLOAD PUSH2 0x1823 SWAP1 PUSH2 0x3415 JUMP JUMPDEST DUP1 ISZERO PUSH2 0x186E JUMPI DUP1 PUSH1 0x1F LT PUSH2 0x1845 JUMPI PUSH2 0x100 DUP1 DUP4 SLOAD DIV MUL DUP4 MSTORE SWAP2 PUSH1 0x20 ADD SWAP2 PUSH2 0x186E JUMP JUMPDEST DUP3 ADD SWAP2 SWAP1 PUSH0 MSTORE PUSH1 0x20 PUSH0 KECCAK256 SWAP1 JUMPDEST DUP2 SLOAD DUP2 MSTORE SWAP1 PUSH1 0x1 ADD SWAP1 PUSH1 0x20 ADD DUP1 DUP4 GT PUSH2 0x1851 JUMPI DUP3 SWAP1 SUB PUSH1 0x1F AND DUP3 ADD SWAP2 JUMPDEST POP POP POP POP POP SWAP1 DUP1 PUSH1 0x1 ADD DUP1 SLOAD PUSH2 0x1883 SWAP1 PUSH2 0x3415 JUMP JUMPDEST DUP1 PUSH1 0x1F ADD PUSH1 0x20 DUP1 SWAP2 DIV MUL PUSH1 0x20 ADD PUSH1 0x40 MLOAD SWAP1 DUP2 ADD PUSH1 0x40 MSTORE DUP1 SWAP3 SWAP2 SWAP1 DUP2 DUP2 MSTORE PUSH1 0x20 ADD DUP3 DUP1 SLOAD PUSH2 0x18AF SWAP1 PUSH2 0x3415 JUMP JUMPDEST DUP1 ISZERO PUSH2 0x18FA JUMPI DUP1 PUSH1 0x1F LT PUSH2 0x18D1 JUMPI PUSH2 0x100 DUP1 DUP4 SLOAD DIV MUL DUP4 MSTORE SWAP2 PUSH1 0x20 ADD SWAP2 PUSH2 0x18FA JUMP JUMPDEST DUP3 ADD SWAP2 SWAP1 PUSH0 MSTORE PUSH1 0x20 PUSH0 KECCAK256 SWAP1 JUMPDEST DUP2 SLOAD DUP2 MSTORE SWAP1 PUSH1 0x1 ADD SWAP1 PUSH1 0x20 ADD DUP1 DUP4 GT PUSH2 0x18DD JUMPI DUP3 SWAP1 SUB PUSH1 0x1F AND DUP3 ADD SWAP2 JUMPDEST POP POP POP POP POP SWAP1 DUP1 PUSH1 0x2 ADD SLOAD SWAP1 DUP1 PUSH1 0x3 ADD SLOAD SWAP1 DUP1 PUSH1 0x4 ADD SLOAD SWAP1 DUP1 PUSH1 0x5 ADD PUSH0 SWAP1 SLOAD SWAP1 PUSH2 0x100 EXP SWAP1 DIV PUSH20 0xFFFFFFFFFFFFFFFFFFFFFFFFFFFFFFFFFFFFFFFF AND SWAP1 DUP1 PUSH1 0x6 ADD PUSH0 SWAP1 SLOAD SWAP1 PUSH2 0x100 EXP SWAP1 DIV PUSH20 0xFFFFFFFFFFFFFFFFFFFFFFFFFFFFFFFFFFFFFFFF AND SWAP1 DUP1 PUSH1 0x6 ADD PUSH1 0x14 SWAP1 SLOAD SWAP1 PUSH2 0x100 EXP SWAP1 DIV PUSH1 0xFF AND SWAP1 DUP1 PUSH1 0x7 ADD SLOAD SWAP1 POP DUP10 JUMP JUMPDEST PUSH2 0x1981 PUSH2 0x1EB4 JUMP JUMPDEST PUSH1 0x9 PUSH0 DUP3 DUP2 MSTORE PUSH1 0x20 ADD SWAP1 DUP2 MSTORE PUSH1 0x20 ADD PUSH0 KECCAK256 PUSH0 ADD PUSH0 SWAP1 SLOAD SWAP1 PUSH2 0x100 EXP SWAP1 DIV PUSH1 0xFF AND DUP1 ISZERO PUSH2 0x19CF JUMPI POP PUSH4 0x1E13380 PUSH1 0x8 PUSH0 DUP4 DUP2 MSTORE PUSH1 0x20 ADD SWAP1 DUP2 MSTORE PUSH1 0x20 ADD PUSH0 KECCAK256 PUSH1 0x3 ADD SLOAD PUSH2 0x19CC SWAP2 SWAP1 PUSH2 0x2F40 JUMP JUMPDEST TIMESTAMP GT JUMPDEST PUSH2 0x19D7 JUMPI PUSH0 PUSH0 REVERT JUMPDEST PUSH0 PUSH1 0x8 PUSH0 DUP4 DUP2 MSTORE PUSH1 0x20 ADD SWAP1 DUP2 MSTORE PUSH1 0x20 ADD PUSH0 KECCAK256 PUSH1 0x6 ADD PUSH0 SWAP1 SLOAD SWAP1 PUSH2 0x100 EXP SWAP1 DIV PUSH20 0xFFFFFFFFFFFFFFFFFFFFFFFFFFFFFFFFFFFFFFFF AND SWAP1 POP PUSH0 PUSH20 0xFFFFFFFFFFFFFFFFFFFFFFFFFFFFFFFFFFFFFFFF AND DUP2 PUSH20 0xFFFFFFFFFFFFFFFFFFFFFFFFFFFFFFFFFFFFFFFF AND SUB PUSH2 0x1A72 JUMPI PUSH2 0x1A6D PUSH0 PUSH1 0x7 PUSH0 SWAP1 SLOAD SWAP1 PUSH2 0x100 EXP SWAP1 DIV PUSH20 0xFFFFFFFFFFFFFFFFFFFFFFFFFFFFFFFFFFFFFFFF AND SELFBALANCE PUSH2 0x216B JUMP JUMPDEST PUSH2 0x1B16 JUMP JUMPDEST PUSH2 0x1B15 DUP2 PUSH1 0x7 PUSH0 SWAP1 SLOAD SWAP1 PUSH2 0x100 EXP SWAP1 DIV PUSH20 0xFFFFFFFFFFFFFFFFFFFFFFFFFFFFFFFFFFFFFFFF AND DUP4 PUSH20 0xFFFFFFFFFFFFFFFFFFFFFFFFFFFFFFFFFFFFFFFF AND PUSH4 0x70A08231 ADDRESS PUSH1 0x40 MLOAD DUP3 PUSH4 0xFFFFFFFF AND PUSH1 0xE0 SHL DUP2 MSTORE PUSH1 0x4 ADD PUSH2 0x1AD1 SWAP2 SWAP1 PUSH2 0x26E6 JUMP JUMPDEST PUSH1 0x20 PUSH1 0x40 MLOAD DUP1 DUP4 SUB DUP2 DUP7 GAS STATICCALL ISZERO DUP1 ISZERO PUSH2 0x1AEC JUMPI RETURNDATASIZE PUSH0 PUSH0 RETURNDATACOPY RETURNDATASIZE PUSH0 REVERT JUMPDEST POP POP POP POP PUSH1 0x40 MLOAD RETURNDATASIZE PUSH1 0x1F NOT PUSH1 0x1F DUP3 ADD AND DUP3 ADD DUP1 PUSH1 0x40 MSTORE POP DUP2 ADD SWAP1 PUSH2 0x1B10 SWAP2 SWAP1 PUSH2 0x3CA9 JUMP JUMPDEST PUSH2 0x216B JUMP JUMPDEST JUMPDEST POP POP JUMP JUMPDEST PUSH1 0x4 SLOAD DUP2 JUMP JUMPDEST PUSH1 0x9 PUSH1 0x20 MSTORE DUP1 PUSH0 MSTORE PUSH1 0x40 PUSH0 KECCAK256 PUSH0 SWAP2 POP SWAP1 POP DUP1 PUSH0 ADD PUSH0 SWAP1 SLOAD SWAP1 PUSH2 0x100 EXP SWAP1 DIV PUSH1 0xFF AND SWAP1 DUP1 PUSH0 ADD PUSH1 0x1 SWAP1 SLOAD SWAP1 PUSH2 0x100 EXP SWAP1 DIV PUSH1 0xFF AND SWAP1 DUP1 PUSH0 ADD PUSH1 0x2 SWAP1 SLOAD SWAP1 PUSH2 0x100 EXP SWAP1 DIV PUSH1 0xFF AND SWAP1 DUP1 PUSH1 0x1 ADD SLOAD SWAP1 DUP1 PUSH1 0x2 ADD SLOAD SWAP1 DUP1 PUSH1 0x3 ADD SLOAD SWAP1 DUP1 PUSH1 0x4 ADD SLOAD SWAP1 POP DUP8 JUMP JUMPDEST PUSH2 0x1B8A PUSH2 0x1EB4 JUMP JUMPDEST DUP1 PUSH1 0x7 PUSH0 PUSH2 0x100 EXP DUP2 SLOAD DUP2 PUSH20 0xFFFFFFFFFFFFFFFFFFFFFFFFFFFFFFFFFFFFFFFF MUL NOT AND SWAP1 DUP4 PUSH20 0xFFFFFFFFFFFFFFFFFFFFFFFFFFFFFFFFFFFFFFFF AND MUL OR SWAP1 SSTORE POP POP JUMP JUMPDEST PUSH2 0x1BD5 PUSH2 0x1EB4 JUMP JUMPDEST PUSH0 PUSH20 0xFFFFFFFFFFFFFFFFFFFFFFFFFFFFFFFFFFFFFFFF AND DUP2 PUSH20 0xFFFFFFFFFFFFFFFFFFFFFFFFFFFFFFFFFFFFFFFF AND SUB PUSH2 0x1C45 JUMPI PUSH0 PUSH1 0x40 MLOAD PUSH32 0x1E4FBDF700000000000000000000000000000000000000000000000000000000 DUP2 MSTORE PUSH1 0x4 ADD PUSH2 0x1C3C SWAP2 SWAP1 PUSH2 0x26E6 JUMP JUMPDEST PUSH1 0x40 MLOAD DUP1 SWAP2 SUB SWAP1 REVERT JUMPDEST PUSH2 0x1C4E DUP2 PUSH2 0x2286 JUMP JUMPDEST POP JUMP JUMPDEST PUSH2 0x1C59 PUSH2 0x1EB4 JUMP JUMPDEST PUSH0 PUSH1 0x9 PUSH0 DUP5 DUP2 MSTORE PUSH1 0x20 ADD SWAP1 DUP2 MSTORE PUSH1 0x20 ADD PUSH0 KECCAK256 SWAP1 POP PUSH0 PUSH1 0x8 PUSH0 DUP6 DUP2 MSTORE PUSH1 0x20 ADD SWAP1 DUP2 MSTORE PUSH1 0x20 ADD PUSH0 KECCAK256 SWAP1 POP DUP2 PUSH0 ADD PUSH0 SWAP1 SLOAD SWAP1 PUSH2 0x100 EXP SWAP1 DIV PUSH1 0xFF AND ISZERO PUSH2 0x1CD1 JUMPI PUSH1 0x40 MLOAD PUSH32 0x8C379A000000000000000000000000000000000000000000000000000000000 DUP2 MSTORE PUSH1 0x4 ADD PUSH2 0x1CC8 SWAP1 PUSH2 0x2C2C JUMP JUMPDEST PUSH1 0x40 MLOAD DUP1 SWAP2 SUB SWAP1 REVERT JUMPDEST DUP2 PUSH0 ADD PUSH1 0x1 SWAP1 SLOAD SWAP1 PUSH2 0x100 EXP SWAP1 DIV PUSH1 0xFF AND ISZERO PUSH2 0x1D22 JUMPI PUSH1 0x40 MLOAD PUSH32 0x8C379A000000000000000000000000000000000000000000000000000000000 DUP2 MSTORE PUSH1 0x4 ADD PUSH2 0x1D19 SWAP1 PUSH2 0x3D1E JUMP JUMPDEST PUSH1 0x40 MLOAD DUP1 SWAP2 SUB SWAP1 REVERT JUMPDEST PUSH0 PUSH20 0xFFFFFFFFFFFFFFFFFFFFFFFFFFFFFFFFFFFFFFFF AND DUP2 PUSH1 0x5 ADD PUSH0 SWAP1 SLOAD SWAP1 PUSH2 0x100 EXP SWAP1 DIV PUSH20 0xFFFFFFFFFFFFFFFFFFFFFFFFFFFFFFFFFFFFFFFF AND PUSH20 0xFFFFFFFFFFFFFFFFFFFFFFFFFFFFFFFFFFFFFFFF AND EQ PUSH2 0x1DB3 JUMPI PUSH1 0x40 MLOAD PUSH32 0x8C379A000000000000000000000000000000000000000000000000000000000 DUP2 MSTORE PUSH1 0x4 ADD PUSH2 0x1DAA SWAP1 PUSH2 0x3D86 JUMP JUMPDEST PUSH1 0x40 MLOAD DUP1 SWAP2 SUB SWAP1 REVERT JUMPDEST DUP1 PUSH1 0x3 ADD SLOAD TIMESTAMP LT ISZERO PUSH2 0x1DFA JUMPI PUSH1 0x40 MLOAD PUSH32 0x8C379A000000000000000000000000000000000000000000000000000000000 DUP2 MSTORE PUSH1 0x4 ADD PUSH2 0x1DF1 SWAP1 PUSH2 0x3DEE JUMP JUMPDEST PUSH1 0x40 MLOAD DUP1 SWAP2 SUB SWAP1 REVERT JUMPDEST PUSH2 0x1E04 DUP5 DUP5 PUSH2 0x1F3B JUMP JUMPDEST DUP4 PUSH32 0xEB81C972317ADB92322AF1A2FAF2BEF5309AFE1B1537C0D196B2DFCB36B91988 DUP4 PUSH0 ADD PUSH1 0x2 SWAP1 SLOAD SWAP1 PUSH2 0x100 EXP SWAP1 DIV PUSH1 0xFF AND PUSH1 0x1 PUSH1 0x40 MLOAD PUSH2 0x1E47 SWAP3 SWAP2 SWAP1 PUSH2 0x2E1C JUMP JUMPDEST PUSH1 0x40 MLOAD DUP1 SWAP2 SUB SWAP1 LOG2 POP POP POP POP JUMP JUMPDEST PUSH2 0x1E5D PUSH2 0x1EB4 JUMP JUMPDEST PUSH2 0x1F4 DUP3 GT ISZERO PUSH2 0x1EA2 JUMPI PUSH1 0x40 MLOAD PUSH32 0x8C379A000000000000000000000000000000000000000000000000000000000 DUP2 MSTORE PUSH1 0x4 ADD PUSH2 0x1E99 SWAP1 PUSH2 0x3E56 JUMP JUMPDEST PUSH1 0x40 MLOAD DUP1 SWAP2 SUB SWAP1 REVERT JUMPDEST DUP2 PUSH1 0x5 DUP2 SWAP1 SSTORE POP DUP1 PUSH1 0x6 DUP2 SWAP1 SSTORE POP POP POP JUMP JUMPDEST PUSH2 0x1EBC PUSH2 0x23C9 JUMP JUMPDEST PUSH20 0xFFFFFFFFFFFFFFFFFFFFFFFFFFFFFFFFFFFFFFFF AND PUSH2 0x1EDA PUSH2 0x10FE JUMP JUMPDEST PUSH20 0xFFFFFFFFFFFFFFFFFFFFFFFFFFFFFFFFFFFFFFFF AND EQ PUSH2 0x1F39 JUMPI PUSH2 0x1EFD PUSH2 0x23C9 JUMP JUMPDEST PUSH1 0x40 MLOAD PUSH32 0x118CDAA700000000000000000000000000000000000000000000000000000000 DUP2 MSTORE PUSH1 0x4 ADD PUSH2 0x1F30 SWAP2 SWAP1 PUSH2 0x26E6 JUMP JUMPDEST PUSH1 0x40 MLOAD DUP1 SWAP2 SUB SWAP1 REVERT JUMPDEST JUMP JUMPDEST PUSH0 PUSH1 0x9 PUSH0 DUP5 DUP2 MSTORE PUSH1 0x20 ADD SWAP1 DUP2 MSTORE PUSH1 0x20 ADD PUSH0 KECCAK256 SWAP1 POP PUSH0 PUSH1 0x8 PUSH0 DUP6 DUP2 MSTORE PUSH1 0x20 ADD SWAP1 DUP2 MSTORE PUSH1 0x20 ADD PUSH0 KECCAK256 SWAP1 POP PUSH1 0x2 DUP4 PUSH1 0xFF AND SUB PUSH2 0x1F9F JUMPI PUSH1 0x2 DUP3 PUSH0 ADD PUSH1 0x2 PUSH2 0x100 EXP DUP2 SLOAD DUP2 PUSH1 0xFF MUL NOT AND SWAP1 DUP4 PUSH1 0x3 DUP2 GT ISZERO PUSH2 0x1F95 JUMPI PUSH2 0x1F94 PUSH2 0x2A25 JUMP JUMPDEST JUMPDEST MUL OR SWAP1 SSTORE POP PUSH2 0x2009 JUMP JUMPDEST PUSH1 0x1 DUP4 PUSH1 0xFF AND SUB PUSH2 0x1FDB JUMPI PUSH1 0x1 DUP3 PUSH0 ADD PUSH1 0x2 PUSH2 0x100 EXP DUP2 SLOAD DUP2 PUSH1 0xFF MUL NOT AND SWAP1 DUP4 PUSH1 0x3 DUP2 GT ISZERO PUSH2 0x1FD1 JUMPI PUSH2 0x1FD0 PUSH2 0x2A25 JUMP JUMPDEST JUMPDEST MUL OR SWAP1 SSTORE POP PUSH2 0x2008 JUMP JUMPDEST PUSH1 0x3 DUP3 PUSH0 ADD PUSH1 0x2 PUSH2 0x100 EXP DUP2 SLOAD DUP2 PUSH1 0xFF MUL NOT AND SWAP1 DUP4 PUSH1 0x3 DUP2 GT ISZERO PUSH2 0x2002 JUMPI PUSH2 0x2001 PUSH2 0x2A25 JUMP JUMPDEST JUMPDEST MUL OR SWAP1 SSTORE POP JUMPDEST JUMPDEST PUSH1 0x1 DUP3 PUSH0 ADD PUSH0 PUSH2 0x100 EXP DUP2 SLOAD DUP2 PUSH1 0xFF MUL NOT AND SWAP1 DUP4 ISZERO ISZERO MUL OR SWAP1 SSTORE POP PUSH1 0x2 PUSH1 0x3 DUP2 GT ISZERO PUSH2 0x2038 JUMPI PUSH2 0x2037 PUSH2 0x2A25 JUMP JUMPDEST JUMPDEST DUP3 PUSH0 ADD PUSH1 0x2 SWAP1 SLOAD SWAP1 PUSH2 0x100 EXP SWAP1 DIV PUSH1 0xFF AND PUSH1 0x3 DUP2 GT ISZERO PUSH2 0x205B JUMPI PUSH2 0x205A PUSH2 0x2A25 JUMP JUMPDEST JUMPDEST EQ PUSH2 0x206A JUMPI DUP2 PUSH1 0x3 ADD SLOAD PUSH2 0x2070 JUMP JUMPDEST DUP2 PUSH1 0x2 ADD SLOAD JUMPDEST DUP3 PUSH1 0x4 ADD DUP2 SWAP1 SSTORE POP PUSH1 0x3 DUP1 DUP2 GT ISZERO PUSH2 0x208B JUMPI PUSH2 0x208A PUSH2 0x2A25 JUMP JUMPDEST JUMPDEST DUP3 PUSH0 ADD PUSH1 0x2 SWAP1 SLOAD SWAP1 PUSH2 0x100 EXP SWAP1 DIV PUSH1 0xFF AND PUSH1 0x3 DUP2 GT ISZERO PUSH2 0x20AE JUMPI PUSH2 0x20AD PUSH2 0x2A25 JUMP JUMPDEST JUMPDEST EQ ISZERO DUP1 ISZERO PUSH2 0x20BF JUMPI POP PUSH0 DUP3 PUSH1 0x4 ADD SLOAD EQ JUMPDEST DUP1 ISZERO PUSH2 0x20CE JUMPI POP PUSH0 DUP3 PUSH1 0x1 ADD SLOAD GT JUMPDEST ISZERO PUSH2 0x2165 JUMPI PUSH2 0x2126 DUP2 PUSH1 0x6 ADD PUSH0 SWAP1 SLOAD SWAP1 PUSH2 0x100 EXP SWAP1 DIV PUSH20 0xFFFFFFFFFFFFFFFFFFFFFFFFFFFFFFFFFFFFFFFF AND PUSH1 0x7 PUSH0 SWAP1 SLOAD SWAP1 PUSH2 0x100 EXP SWAP1 DIV PUSH20 0xFFFFFFFFFFFFFFFFFFFFFFFFFFFFFFFFFFFFFFFF AND DUP5 PUSH1 0x1 ADD SLOAD PUSH2 0x216B JUMP JUMPDEST DUP4 PUSH32 0x312C5308F42848705A866C73DEC11FD0783C2D64AAC6A97E94467062AD3F4058 DUP4 PUSH1 0x1 ADD SLOAD PUSH0 PUSH1 0x40 MLOAD PUSH2 0x215C SWAP3 SWAP2 SWAP1 PUSH2 0x3014 JUMP JUMPDEST PUSH1 0x40 MLOAD DUP1 SWAP2 SUB SWAP1 LOG2 JUMPDEST POP POP POP POP JUMP JUMPDEST PUSH0 DUP2 SUB ISZERO PUSH2 0x2281 JUMPI PUSH0 PUSH20 0xFFFFFFFFFFFFFFFFFFFFFFFFFFFFFFFFFFFFFFFF AND DUP4 PUSH20 0xFFFFFFFFFFFFFFFFFFFFFFFFFFFFFFFFFFFFFFFF AND SUB PUSH2 0x2254 JUMPI PUSH0 DUP3 PUSH20 0xFFFFFFFFFFFFFFFFFFFFFFFFFFFFFFFFFFFFFFFF AND DUP3 PUSH1 0x40 MLOAD PUSH2 0x21CB SWAP1 PUSH2 0x3EA1 JUMP JUMPDEST PUSH0 PUSH1 0x40 MLOAD DUP1 DUP4 SUB DUP2 DUP6 DUP8 GAS CALL SWAP3 POP POP POP RETURNDATASIZE DUP1 PUSH0 DUP2 EQ PUSH2 0x2205 JUMPI PUSH1 0x40 MLOAD SWAP2 POP PUSH1 0x1F NOT PUSH1 0x3F RETURNDATASIZE ADD AND DUP3 ADD PUSH1 0x40 MSTORE RETURNDATASIZE DUP3 MSTORE RETURNDATASIZE PUSH0 PUSH1 0x20 DUP5 ADD RETURNDATACOPY PUSH2 0x220A JUMP JUMPDEST PUSH1 0x60 SWAP2 POP JUMPDEST POP POP SWAP1 POP DUP1 PUSH2 0x224E JUMPI PUSH1 0x40 MLOAD PUSH32 0x8C379A000000000000000000000000000000000000000000000000000000000 DUP2 MSTORE PUSH1 0x4 ADD PUSH2 0x2245 SWAP1 PUSH2 0x3EFF JUMP JUMPDEST PUSH1 0x40 MLOAD DUP1 SWAP2 SUB SWAP1 REVERT JUMPDEST POP PUSH2 0x2280 JUMP JUMPDEST PUSH2 0x227F DUP3 DUP3 DUP6 PUSH20 0xFFFFFFFFFFFFFFFFFFFFFFFFFFFFFFFFFFFFFFFF AND PUSH2 0x23D0 SWAP1 SWAP3 SWAP2 SWAP1 PUSH4 0xFFFFFFFF AND JUMP JUMPDEST JUMPDEST JUMPDEST POP POP POP JUMP JUMPDEST PUSH0 PUSH0 PUSH0 SWAP1 SLOAD SWAP1 PUSH2 0x100 EXP SWAP1 DIV PUSH20 0xFFFFFFFFFFFFFFFFFFFFFFFFFFFFFFFFFFFFFFFF AND SWAP1 POP DUP2 PUSH0 PUSH0 PUSH2 0x100 EXP DUP2 SLOAD DUP2 PUSH20 0xFFFFFFFFFFFFFFFFFFFFFFFFFFFFFFFFFFFFFFFF MUL NOT AND SWAP1 DUP4 PUSH20 0xFFFFFFFFFFFFFFFFFFFFFFFFFFFFFFFFFFFFFFFF AND MUL OR SWAP1 SSTORE POP DUP2 PUSH20 0xFFFFFFFFFFFFFFFFFFFFFFFFFFFFFFFFFFFFFFFF AND DUP2 PUSH20 0xFFFFFFFFFFFFFFFFFFFFFFFFFFFFFFFFFFFFFFFF AND PUSH32 0x8BE0079C531659141344CD1FD0A4F28419497F9722A3DAAFE3B4186F6B6457E0 PUSH1 0x40 MLOAD PUSH1 0x40 MLOAD DUP1 SWAP2 SUB SWAP1 LOG3 POP POP JUMP JUMPDEST PUSH2 0x23C3 DUP5 DUP6 PUSH20 0xFFFFFFFFFFFFFFFFFFFFFFFFFFFFFFFFFFFFFFFF AND PUSH4 0x23B872DD DUP7 DUP7 DUP7 PUSH1 0x40 MLOAD PUSH1 0x24 ADD PUSH2 0x237C SWAP4 SWAP3 SWAP2 SWAP1 PUSH2 0x3F1D JUMP JUMPDEST PUSH1 0x40 MLOAD PUSH1 0x20 DUP2 DUP4 SUB SUB DUP2 MSTORE SWAP1 PUSH1 0x40 MSTORE SWAP2 POP PUSH1 0xE0 SHL PUSH1 0x20 DUP3 ADD DUP1 MLOAD PUSH28 0xFFFFFFFFFFFFFFFFFFFFFFFFFFFFFFFFFFFFFFFFFFFFFFFFFFFFFFFF DUP4 DUP2 DUP4 AND OR DUP4 MSTORE POP POP POP POP PUSH2 0x244F JUMP JUMPDEST POP POP POP POP JUMP JUMPDEST PUSH0 CALLER SWAP1 POP SWAP1 JUMP JUMPDEST PUSH2 0x244A DUP4 DUP5 PUSH20 0xFFFFFFFFFFFFFFFFFFFFFFFFFFFFFFFFFFFFFFFF AND PUSH4 0xA9059CBB DUP6 DUP6 PUSH1 0x40 MLOAD PUSH1 0x24 ADD PUSH2 0x2403 SWAP3 SWAP2 SWAP1 PUSH2 0x3F52 JUMP JUMPDEST PUSH1 0x40 MLOAD PUSH1 0x20 DUP2 DUP4 SUB SUB DUP2 MSTORE SWAP1 PUSH1 0x40 MSTORE SWAP2 POP PUSH1 0xE0 SHL PUSH1 0x20 DUP3 ADD DUP1 MLOAD PUSH28 0xFFFFFFFFFFFFFFFFFFFFFFFFFFFFFFFFFFFFFFFFFFFFFFFFFFFFFFFF DUP4 DUP2 DUP4 AND OR DUP4 MSTORE POP POP POP POP PUSH2 0x244F JUMP JUMPDEST POP POP POP JUMP JUMPDEST PUSH0 PUSH0 PUSH1 0x20 PUSH0 DUP5 MLOAD PUSH1 0x20 DUP7 ADD PUSH0 DUP9 GAS CALL DUP1 PUSH2 0x246E JUMPI PUSH1 0x40 MLOAD RETURNDATASIZE PUSH0 DUP3 RETURNDATACOPY RETURNDATASIZE DUP2 REVERT JUMPDEST RETURNDATASIZE SWAP3 POP PUSH0 MLOAD SWAP2 POP POP PUSH0 DUP3 EQ PUSH2 0x2487 JUMPI PUSH1 0x1 DUP2 EQ ISZERO PUSH2 0x24A2 JUMP JUMPDEST PUSH0 DUP5 PUSH20 0xFFFFFFFFFFFFFFFFFFFFFFFFFFFFFFFFFFFFFFFF AND EXTCODESIZE EQ JUMPDEST ISZERO PUSH2 0x24E4 JUMPI DUP4 PUSH1 0x40 MLOAD PUSH32 0x5274AFE700000000000000000000000000000000000000000000000000000000 DUP2 MSTORE PUSH1 0x4 ADD PUSH2 0x24DB SWAP2 SWAP1 PUSH2 0x26E6 JUMP JUMPDEST PUSH1 0x40 MLOAD DUP1 SWAP2 SUB SWAP1 REVERT JUMPDEST POP POP POP POP JUMP JUMPDEST PUSH0 PUSH20 0xFFFFFFFFFFFFFFFFFFFFFFFFFFFFFFFFFFFFFFFF DUP3 AND SWAP1 POP SWAP2 SWAP1 POP JUMP JUMPDEST PUSH0 DUP2 SWAP1 POP SWAP2 SWAP1 POP JUMP JUMPDEST PUSH0 PUSH2 0x252C PUSH2 0x2527 PUSH2 0x2522 DUP5 PUSH2 0x24EA JUMP JUMPDEST PUSH2 0x2509 JUMP JUMPDEST PUSH2 0x24EA JUMP JUMPDEST SWAP1 POP SWAP2 SWAP1 POP JUMP JUMPDEST PUSH0 PUSH2 0x253D DUP3 PUSH2 0x2512 JUMP JUMPDEST SWAP1 POP SWAP2 SWAP1 POP JUMP JUMPDEST PUSH0 PUSH2 0x254E DUP3 PUSH2 0x2533 JUMP JUMPDEST SWAP1 POP SWAP2 SWAP1 POP JUMP JUMPDEST PUSH2 0x255E DUP2 PUSH2 0x2544 JUMP JUMPDEST DUP3 MSTORE POP POP JUMP JUMPDEST PUSH0 PUSH1 0x20 DUP3 ADD SWAP1 POP PUSH2 0x2577 PUSH0 DUP4 ADD DUP5 PUSH2 0x2555 JUMP JUMPDEST SWAP3 SWAP2 POP POP JUMP JUMPDEST PUSH0 PUSH1 0x40 MLOAD SWAP1 POP SWAP1 JUMP JUMPDEST PUSH0 PUSH0 REVERT JUMPDEST PUSH0 PUSH0 REVERT JUMPDEST PUSH0 DUP2 ISZERO ISZERO SWAP1 POP SWAP2 SWAP1 POP JUMP JUMPDEST PUSH2 0x25A2 DUP2 PUSH2 0x258E JUMP JUMPDEST DUP2 EQ PUSH2 0x25AC JUMPI PUSH0 PUSH0 REVERT JUMPDEST POP JUMP JUMPDEST PUSH0 DUP2 CALLDATALOAD SWAP1 POP PUSH2 0x25BD DUP2 PUSH2 0x2599 JUMP JUMPDEST SWAP3 SWAP2 POP POP JUMP JUMPDEST PUSH0 PUSH1 0x20 DUP3 DUP5 SUB SLT ISZERO PUSH2 0x25D8 JUMPI PUSH2 0x25D7 PUSH2 0x2586 JUMP JUMPDEST JUMPDEST PUSH0 PUSH2 0x25E5 DUP5 DUP3 DUP6 ADD PUSH2 0x25AF JUMP JUMPDEST SWAP2 POP POP SWAP3 SWAP2 POP POP JUMP JUMPDEST PUSH0 DUP2 SWAP1 POP SWAP2 SWAP1 POP JUMP JUMPDEST PUSH2 0x2600 DUP2 PUSH2 0x25EE JUMP JUMPDEST DUP3 MSTORE POP POP JUMP JUMPDEST PUSH0 PUSH1 0x20 DUP3 ADD SWAP1 POP PUSH2 0x2619 PUSH0 DUP4 ADD DUP5 PUSH2 0x25F7 JUMP JUMPDEST SWAP3 SWAP2 POP POP JUMP JUMPDEST PUSH2 0x2628 DUP2 PUSH2 0x25EE JUMP JUMPDEST DUP2 EQ PUSH2 0x2632 JUMPI PUSH0 PUSH0 REVERT JUMPDEST POP JUMP JUMPDEST PUSH0 DUP2 CALLDATALOAD SWAP1 POP PUSH2 0x2643 DUP2 PUSH2 0x261F JUMP JUMPDEST SWAP3 SWAP2 POP POP JUMP JUMPDEST PUSH0 PUSH10 0xFFFFFFFFFFFFFFFFFFFF DUP3 AND SWAP1 POP SWAP2 SWAP1 POP JUMP JUMPDEST PUSH2 0x2667 DUP2 PUSH2 0x2649 JUMP JUMPDEST DUP2 EQ PUSH2 0x2671 JUMPI PUSH0 PUSH0 REVERT JUMPDEST POP JUMP JUMPDEST PUSH0 DUP2 CALLDATALOAD SWAP1 POP PUSH2 0x2682 DUP2 PUSH2 0x265E JUMP JUMPDEST SWAP3 SWAP2 POP POP JUMP JUMPDEST PUSH0 PUSH0 PUSH1 0x40 DUP4 DUP6 SUB SLT ISZERO PUSH2 0x269E JUMPI PUSH2 0x269D PUSH2 0x2586 JUMP JUMPDEST JUMPDEST PUSH0 PUSH2 0x26AB DUP6 DUP3 DUP7 ADD PUSH2 0x2635 JUMP JUMPDEST SWAP3 POP POP PUSH1 0x20 PUSH2 0x26BC DUP6 DUP3 DUP7 ADD PUSH2 0x2674 JUMP JUMPDEST SWAP2 POP POP SWAP3 POP SWAP3 SWAP1 POP JUMP JUMPDEST PUSH0 PUSH2 0x26D0 DUP3 PUSH2 0x24EA JUMP JUMPDEST SWAP1 POP SWAP2 SWAP1 POP JUMP JUMPDEST PUSH2 0x26E0 DUP2 PUSH2 0x26C6 JUMP JUMPDEST DUP3 MSTORE POP POP JUMP JUMPDEST PUSH0 PUSH1 0x20 DUP3 ADD SWAP1 POP PUSH2 0x26F9 PUSH0 DUP4 ADD DUP5 PUSH2 0x26D7 JUMP JUMPDEST SWAP3 SWAP2 POP POP JUMP JUMPDEST PUSH0 PUSH1 0x20 DUP3 DUP5 SUB SLT ISZERO PUSH2 0x2714 JUMPI PUSH2 0x2713 PUSH2 0x2586 JUMP JUMPDEST JUMPDEST PUSH0 PUSH2 0x2721 DUP5 DUP3 DUP6 ADD PUSH2 0x2635 JUMP JUMPDEST SWAP2 POP POP SWAP3 SWAP2 POP POP JUMP JUMPDEST PUSH2 0x2733 DUP2 PUSH2 0x26C6 JUMP JUMPDEST DUP2 EQ PUSH2 0x273D JUMPI PUSH0 PUSH0 REVERT JUMPDEST POP JUMP JUMPDEST PUSH0 DUP2 CALLDATALOAD SWAP1 POP PUSH2 0x274E DUP2 PUSH2 0x272A JUMP JUMPDEST SWAP3 SWAP2 POP POP JUMP JUMPDEST PUSH0 PUSH0 PUSH1 0x40 DUP4 DUP6 SUB SLT ISZERO PUSH2 0x276A JUMPI PUSH2 0x2769 PUSH2 0x2586 JUMP JUMPDEST JUMPDEST PUSH0 PUSH2 0x2777 DUP6 DUP3 DUP7 ADD PUSH2 0x2635 JUMP JUMPDEST SWAP3 POP POP PUSH1 0x20 PUSH2 0x2788 DUP6 DUP3 DUP7 ADD PUSH2 0x2740 JUMP JUMPDEST SWAP2 POP POP SWAP3 POP SWAP3 SWAP1 POP JUMP JUMPDEST PUSH2 0x279B DUP2 PUSH2 0x258E JUMP JUMPDEST DUP3 MSTORE POP POP JUMP JUMPDEST PUSH0 PUSH1 0x80 DUP3 ADD SWAP1 POP PUSH2 0x27B4 PUSH0 DUP4 ADD DUP8 PUSH2 0x25F7 JUMP JUMPDEST PUSH2 0x27C1 PUSH1 0x20 DUP4 ADD DUP7 PUSH2 0x25F7 JUMP JUMPDEST PUSH2 0x27CE PUSH1 0x40 DUP4 ADD DUP6 PUSH2 0x26D7 JUMP JUMPDEST PUSH2 0x27DB PUSH1 0x60 DUP4 ADD DUP5 PUSH2 0x2792 JUMP JUMPDEST SWAP6 SWAP5 POP POP POP POP POP JUMP JUMPDEST PUSH0 PUSH0 REVERT JUMPDEST PUSH0 PUSH2 0x120 DUP3 DUP5 SUB SLT ISZERO PUSH2 0x27FE JUMPI PUSH2 0x27FD PUSH2 0x27E4 JUMP JUMPDEST JUMPDEST DUP2 SWAP1 POP SWAP3 SWAP2 POP POP JUMP JUMPDEST PUSH0 PUSH1 0x20 DUP3 DUP5 SUB SLT ISZERO PUSH2 0x281C JUMPI PUSH2 0x281B PUSH2 0x2586 JUMP JUMPDEST JUMPDEST PUSH0 DUP3 ADD CALLDATALOAD PUSH8 0xFFFFFFFFFFFFFFFF DUP2 GT ISZERO PUSH2 0x2839 JUMPI PUSH2 0x2838 PUSH2 0x258A JUMP JUMPDEST JUMPDEST PUSH2 0x2845 DUP5 DUP3 DUP6 ADD PUSH2 0x27E8 JUMP JUMPDEST SWAP2 POP POP SWAP3 SWAP2 POP POP JUMP JUMPDEST PUSH0 PUSH2 0x2858 DUP3 PUSH2 0x2533 JUMP JUMPDEST SWAP1 POP SWAP2 SWAP1 POP JUMP JUMPDEST PUSH2 0x2868 DUP2 PUSH2 0x284E JUMP JUMPDEST DUP3 MSTORE POP POP JUMP JUMPDEST PUSH0 PUSH1 0x20 DUP3 ADD SWAP1 POP PUSH2 0x2881 PUSH0 DUP4 ADD DUP5 PUSH2 0x285F JUMP JUMPDEST SWAP3 SWAP2 POP POP JUMP JUMPDEST PUSH0 PUSH1 0x20 DUP3 ADD SWAP1 POP PUSH2 0x289A PUSH0 DUP4 ADD DUP5 PUSH2 0x2792 JUMP JUMPDEST SWAP3 SWAP2 POP POP JUMP JUMPDEST PUSH0 PUSH0 PUSH0 PUSH0 PUSH1 0x80 DUP6 DUP8 SUB SLT ISZERO PUSH2 0x28B8 JUMPI PUSH2 0x28B7 PUSH2 0x2586 JUMP JUMPDEST JUMPDEST PUSH0 PUSH2 0x28C5 DUP8 DUP3 DUP9 ADD PUSH2 0x2635 JUMP JUMPDEST SWAP5 POP POP PUSH1 0x20 PUSH2 0x28D6 DUP8 DUP3 DUP9 ADD PUSH2 0x25AF JUMP JUMPDEST SWAP4 POP POP PUSH1 0x40 PUSH2 0x28E7 DUP8 DUP3 DUP9 ADD PUSH2 0x2635 JUMP JUMPDEST SWAP3 POP POP PUSH1 0x60 PUSH2 0x28F8 DUP8 DUP3 DUP9 ADD PUSH2 0x2740 JUMP JUMPDEST SWAP2 POP POP SWAP3 SWAP6 SWAP2 SWAP5 POP SWAP3 POP JUMP JUMPDEST PUSH0 DUP2 MLOAD SWAP1 POP SWAP2 SWAP1 POP JUMP JUMPDEST PUSH0 DUP3 DUP3 MSTORE PUSH1 0x20 DUP3 ADD SWAP1 POP SWAP3 SWAP2 POP POP JUMP JUMPDEST DUP3 DUP2 DUP4 MCOPY PUSH0 DUP4 DUP4 ADD MSTORE POP POP POP JUMP JUMPDEST PUSH0 PUSH1 0x1F NOT PUSH1 0x1F DUP4 ADD AND SWAP1 POP SWAP2 SWAP1 POP JUMP JUMPDEST PUSH0 PUSH2 0x2946 DUP3 PUSH2 0x2904 JUMP JUMPDEST PUSH2 0x2950 DUP2 DUP6 PUSH2 0x290E JUMP JUMPDEST SWAP4 POP PUSH2 0x2960 DUP2 DUP6 PUSH1 0x20 DUP7 ADD PUSH2 0x291E JUMP JUMPDEST PUSH2 0x2969 DUP2 PUSH2 0x292C JUMP JUMPDEST DUP5 ADD SWAP2 POP POP SWAP3 SWAP2 POP POP JUMP JUMPDEST PUSH0 DUP2 SWAP1 POP SWAP2 SWAP1 POP JUMP JUMPDEST PUSH2 0x2986 DUP2 PUSH2 0x2974 JUMP JUMPDEST DUP3 MSTORE POP POP JUMP JUMPDEST PUSH0 PUSH2 0x120 DUP3 ADD SWAP1 POP DUP2 DUP2 SUB PUSH0 DUP4 ADD MSTORE PUSH2 0x29A5 DUP2 DUP13 PUSH2 0x293C JUMP JUMPDEST SWAP1 POP DUP2 DUP2 SUB PUSH1 0x20 DUP4 ADD MSTORE PUSH2 0x29B9 DUP2 DUP12 PUSH2 0x293C JUMP JUMPDEST SWAP1 POP PUSH2 0x29C8 PUSH1 0x40 DUP4 ADD DUP11 PUSH2 0x25F7 JUMP JUMPDEST PUSH2 0x29D5 PUSH1 0x60 DUP4 ADD DUP10 PUSH2 0x25F7 JUMP JUMPDEST PUSH2 0x29E2 PUSH1 0x80 DUP4 ADD DUP9 PUSH2 0x297D JUMP JUMPDEST PUSH2 0x29EF PUSH1 0xA0 DUP4 ADD DUP8 PUSH2 0x26D7 JUMP JUMPDEST PUSH2 0x29FC PUSH1 0xC0 DUP4 ADD DUP7 PUSH2 0x26D7 JUMP JUMPDEST PUSH2 0x2A09 PUSH1 0xE0 DUP4 ADD DUP6 PUSH2 0x2792 JUMP JUMPDEST PUSH2 0x2A17 PUSH2 0x100 DUP4 ADD DUP5 PUSH2 0x25F7 JUMP JUMPDEST SWAP11 SWAP10 POP POP POP POP POP POP POP POP POP POP JUMP JUMPDEST PUSH32 0x4E487B7100000000000000000000000000000000000000000000000000000000 PUSH0 MSTORE PUSH1 0x21 PUSH1 0x4 MSTORE PUSH1 0x24 PUSH0 REVERT JUMPDEST PUSH1 0x4 DUP2 LT PUSH2 0x2A63 JUMPI PUSH2 0x2A62 PUSH2 0x2A25 JUMP JUMPDEST JUMPDEST POP JUMP JUMPDEST PUSH0 DUP2 SWAP1 POP PUSH2 0x2A73 DUP3 PUSH2 0x2A52 JUMP JUMPDEST SWAP2 SWAP1 POP JUMP JUMPDEST PUSH0 PUSH2 0x2A82 DUP3 PUSH2 0x2A66 JUMP JUMPDEST SWAP1 POP SWAP2 SWAP1 POP JUMP JUMPDEST PUSH2 0x2A92 DUP2 PUSH2 0x2A78 JUMP JUMPDEST DUP3 MSTORE POP POP JUMP JUMPDEST PUSH0 PUSH1 0xE0 DUP3 ADD SWAP1 POP PUSH2 0x2AAB PUSH0 DUP4 ADD DUP11 PUSH2 0x2792 JUMP JUMPDEST PUSH2 0x2AB8 PUSH1 0x20 DUP4 ADD DUP10 PUSH2 0x2792 JUMP JUMPDEST PUSH2 0x2AC5 PUSH1 0x40 DUP4 ADD DUP9 PUSH2 0x2A89 JUMP JUMPDEST PUSH2 0x2AD2 PUSH1 0x60 DUP4 ADD DUP8 PUSH2 0x25F7 JUMP JUMPDEST PUSH2 0x2ADF PUSH1 0x80 DUP4 ADD DUP7 PUSH2 0x25F7 JUMP JUMPDEST PUSH2 0x2AEC PUSH1 0xA0 DUP4 ADD DUP6 PUSH2 0x25F7 JUMP JUMPDEST PUSH2 0x2AF9 PUSH1 0xC0 DUP4 ADD DUP5 PUSH2 0x25F7 JUMP JUMPDEST SWAP9 SWAP8 POP POP POP POP POP POP POP POP JUMP JUMPDEST PUSH0 PUSH1 0x20 DUP3 DUP5 SUB SLT ISZERO PUSH2 0x2B1A JUMPI PUSH2 0x2B19 PUSH2 0x2586 JUMP JUMPDEST JUMPDEST PUSH0 PUSH2 0x2B27 DUP5 DUP3 DUP6 ADD PUSH2 0x2740 JUMP JUMPDEST SWAP2 POP POP SWAP3 SWAP2 POP POP JUMP JUMPDEST PUSH0 PUSH1 0xFF DUP3 AND SWAP1 POP SWAP2 SWAP1 POP JUMP JUMPDEST PUSH2 0x2B45 DUP2 PUSH2 0x2B30 JUMP JUMPDEST DUP2 EQ PUSH2 0x2B4F JUMPI PUSH0 PUSH0 REVERT JUMPDEST POP JUMP JUMPDEST PUSH0 DUP2 CALLDATALOAD SWAP1 POP PUSH2 0x2B60 DUP2 PUSH2 0x2B3C JUMP JUMPDEST SWAP3 SWAP2 POP POP JUMP JUMPDEST PUSH0 PUSH0 PUSH1 0x40 DUP4 DUP6 SUB SLT ISZERO PUSH2 0x2B7C JUMPI PUSH2 0x2B7B PUSH2 0x2586 JUMP JUMPDEST JUMPDEST PUSH0 PUSH2 0x2B89 DUP6 DUP3 DUP7 ADD PUSH2 0x2635 JUMP JUMPDEST SWAP3 POP POP PUSH1 0x20 PUSH2 0x2B9A DUP6 DUP3 DUP7 ADD PUSH2 0x2B52 JUMP JUMPDEST SWAP2 POP POP SWAP3 POP SWAP3 SWAP1 POP JUMP JUMPDEST PUSH0 PUSH0 PUSH1 0x40 DUP4 DUP6 SUB SLT ISZERO PUSH2 0x2BBA JUMPI PUSH2 0x2BB9 PUSH2 0x2586 JUMP JUMPDEST JUMPDEST PUSH0 PUSH2 0x2BC7 DUP6 DUP3 DUP7 ADD PUSH2 0x2635 JUMP JUMPDEST SWAP3 POP POP PUSH1 0x20 PUSH2 0x2BD8 DUP6 DUP3 DUP7 ADD PUSH2 0x2635 JUMP JUMPDEST SWAP2 POP POP SWAP3 POP SWAP3 SWAP1 POP JUMP JUMPDEST PUSH32 0x5265736F6C766564000000000000000000000000000000000000000000000000 PUSH0 DUP3 ADD MSTORE POP JUMP JUMPDEST PUSH0 PUSH2 0x2C16 PUSH1 0x8 DUP4 PUSH2 0x290E JUMP JUMPDEST SWAP2 POP PUSH2 0x2C21 DUP3 PUSH2 0x2BE2 JUMP JUMPDEST PUSH1 0x20 DUP3 ADD SWAP1 POP SWAP2 SWAP1 POP JUMP JUMPDEST PUSH0 PUSH1 0x20 DUP3 ADD SWAP1 POP DUP2 DUP2 SUB PUSH0 DUP4 ADD MSTORE PUSH2 0x2C43 DUP2 PUSH2 0x2C0A JUMP JUMPDEST SWAP1 POP SWAP2 SWAP1 POP JUMP JUMPDEST PUSH32 0x557365204D616E75616C00000000000000000000000000000000000000000000 PUSH0 DUP3 ADD MSTORE POP JUMP JUMPDEST PUSH0 PUSH2 0x2C7E PUSH1 0xA DUP4 PUSH2 0x290E JUMP JUMPDEST SWAP2 POP PUSH2 0x2C89 DUP3 PUSH2 0x2C4A JUMP JUMPDEST PUSH1 0x20 DUP3 ADD SWAP1 POP SWAP2 SWAP1 POP JUMP JUMPDEST PUSH0 PUSH1 0x20 DUP3 ADD SWAP1 POP DUP2 DUP2 SUB PUSH0 DUP4 ADD MSTORE PUSH2 0x2CAB DUP2 PUSH2 0x2C72 JUMP JUMPDEST SWAP1 POP SWAP2 SWAP1 POP JUMP JUMPDEST PUSH2 0x2CBB DUP2 PUSH2 0x2649 JUMP JUMPDEST DUP3 MSTORE POP POP JUMP JUMPDEST PUSH0 PUSH1 0xA0 DUP3 ADD SWAP1 POP PUSH2 0x2CD4 PUSH0 DUP4 ADD DUP9 PUSH2 0x26D7 JUMP JUMPDEST PUSH2 0x2CE1 PUSH1 0x20 DUP4 ADD DUP8 PUSH2 0x2CB2 JUMP JUMPDEST PUSH2 0x2CEE PUSH1 0x40 DUP4 ADD DUP7 PUSH2 0x25F7 JUMP JUMPDEST PUSH2 0x2CFB PUSH1 0x60 DUP4 ADD DUP6 PUSH2 0x297D JUMP JUMPDEST PUSH2 0x2D08 PUSH1 0x80 DUP4 ADD DUP5 PUSH2 0x2792 JUMP JUMPDEST SWAP7 SWAP6 POP POP POP POP POP POP JUMP JUMPDEST PUSH0 DUP2 MLOAD SWAP1 POP PUSH2 0x2D20 DUP2 PUSH2 0x2B3C JUMP JUMPDEST SWAP3 SWAP2 POP POP JUMP JUMPDEST PUSH2 0x2D2F DUP2 PUSH2 0x2974 JUMP JUMPDEST DUP2 EQ PUSH2 0x2D39 JUMPI PUSH0 PUSH0 REVERT JUMPDEST POP JUMP JUMPDEST PUSH0 DUP2 MLOAD SWAP1 POP PUSH2 0x2D4A DUP2 PUSH2 0x2D26 JUMP JUMPDEST SWAP3 SWAP2 POP POP JUMP JUMPDEST PUSH0 DUP2 MLOAD SWAP1 POP PUSH2 0x2D5E DUP2 PUSH2 0x2599 JUMP JUMPDEST SWAP3 SWAP2 POP POP JUMP JUMPDEST PUSH0 PUSH0 PUSH0 PUSH1 0x60 DUP5 DUP7 SUB SLT ISZERO PUSH2 0x2D7B JUMPI PUSH2 0x2D7A PUSH2 0x2586 JUMP JUMPDEST JUMPDEST PUSH0 PUSH2 0x2D88 DUP7 DUP3 DUP8 ADD PUSH2 0x2D12 JUMP JUMPDEST SWAP4 POP POP PUSH1 0x20 PUSH2 0x2D99 DUP7 DUP3 DUP8 ADD PUSH2 0x2D3C JUMP JUMPDEST SWAP3 POP POP PUSH1 0x40 PUSH2 0x2DAA DUP7 DUP3 DUP8 ADD PUSH2 0x2D50 JUMP JUMPDEST SWAP2 POP POP SWAP3 POP SWAP3 POP SWAP3 JUMP JUMPDEST PUSH32 0x496E76616C696420526F756E6400000000000000000000000000000000000000 PUSH0 DUP3 ADD MSTORE POP JUMP JUMPDEST PUSH0 PUSH2 0x2DE8 PUSH1 0xD DUP4 PUSH2 0x290E JUMP JUMPDEST SWAP2 POP PUSH2 0x2DF3 DUP3 PUSH2 0x2DB4 JUMP JUMPDEST PUSH1 0x20 DUP3 ADD SWAP1 POP SWAP2 SWAP1 POP JUMP JUMPDEST PUSH0 PUSH1 0x20 DUP3 ADD SWAP1 POP DUP2 DUP2 SUB PUSH0 DUP4 ADD MSTORE PUSH2 0x2E15 DUP2 PUSH2 0x2DDC JUMP JUMPDEST SWAP1 POP SWAP2 SWAP1 POP JUMP JUMPDEST PUSH0 PUSH1 0x40 DUP3 ADD SWAP1 POP PUSH2 0x2E2F PUSH0 DUP4 ADD DUP6 PUSH2 0x2A89 JUMP JUMPDEST PUSH2 0x2E3C PUSH1 0x20 DUP4 ADD DUP5 PUSH2 0x2792 JUMP JUMPDEST SWAP4 SWAP3 POP POP POP JUMP JUMPDEST PUSH32 0x5265656E7472616E740000000000000000000000000000000000000000000000 PUSH0 DUP3 ADD MSTORE POP JUMP JUMPDEST PUSH0 PUSH2 0x2E77 PUSH1 0x9 DUP4 PUSH2 0x290E JUMP JUMPDEST SWAP2 POP PUSH2 0x2E82 DUP3 PUSH2 0x2E43 JUMP JUMPDEST PUSH1 0x20 DUP3 ADD SWAP1 POP SWAP2 SWAP1 POP JUMP JUMPDEST PUSH0 PUSH1 0x20 DUP3 ADD SWAP1 POP DUP2 DUP2 SUB PUSH0 DUP4 ADD MSTORE PUSH2 0x2EA4 DUP2 PUSH2 0x2E6B JUMP JUMPDEST SWAP1 POP SWAP2 SWAP1 POP JUMP JUMPDEST PUSH32 0x496E76616C696420636C61696D00000000000000000000000000000000000000 PUSH0 DUP3 ADD MSTORE POP JUMP JUMPDEST PUSH0 PUSH2 0x2EDF PUSH1 0xD DUP4 PUSH2 0x290E JUMP JUMPDEST SWAP2 POP PUSH2 0x2EEA DUP3 PUSH2 0x2EAB JUMP JUMPDEST PUSH1 0x20 DUP3 ADD SWAP1 POP SWAP2 SWAP1 POP JUMP JUMPDEST PUSH0 PUSH1 0x20 DUP3 ADD SWAP1 POP DUP2 DUP2 SUB PUSH0 DUP4 ADD MSTORE PUSH2 0x2F0C DUP2 PUSH2 0x2ED3 JUMP JUMPDEST SWAP1 POP SWAP2 SWAP1 POP JUMP JUMPDEST PUSH32 0x4E487B7100000000000000000000000000000000000000000000000000000000 PUSH0 MSTORE PUSH1 0x11 PUSH1 0x4 MSTORE PUSH1 0x24 PUSH0 REVERT JUMPDEST PUSH0 PUSH2 0x2F4A DUP3 PUSH2 0x25EE JUMP JUMPDEST SWAP2 POP PUSH2 0x2F55 DUP4 PUSH2 0x25EE JUMP JUMPDEST SWAP3 POP DUP3 DUP3 ADD SWAP1 POP DUP1 DUP3 GT ISZERO PUSH2 0x2F6D JUMPI PUSH2 0x2F6C PUSH2 0x2F13 JUMP JUMPDEST JUMPDEST SWAP3 SWAP2 POP POP JUMP JUMPDEST PUSH32 0x4E6F7468696E6720746F20636C61696D00000000000000000000000000000000 PUSH0 DUP3 ADD MSTORE POP JUMP JUMPDEST PUSH0 PUSH2 0x2FA7 PUSH1 0x10 DUP4 PUSH2 0x290E JUMP JUMPDEST SWAP2 POP PUSH2 0x2FB2 DUP3 PUSH2 0x2F73 JUMP JUMPDEST PUSH1 0x20 DUP3 ADD SWAP1 POP SWAP2 SWAP1 POP JUMP JUMPDEST PUSH0 PUSH1 0x20 DUP3 ADD SWAP1 POP DUP2 DUP2 SUB PUSH0 DUP4 ADD MSTORE PUSH2 0x2FD4 DUP2 PUSH2 0x2F9B JUMP JUMPDEST SWAP1 POP SWAP2 SWAP1 POP JUMP JUMPDEST PUSH0 DUP2 SWAP1 POP SWAP2 SWAP1 POP JUMP JUMPDEST PUSH0 PUSH2 0x2FFE PUSH2 0x2FF9 PUSH2 0x2FF4 DUP5 PUSH2 0x2FDB JUMP JUMPDEST PUSH2 0x2509 JUMP JUMPDEST PUSH2 0x25EE JUMP JUMPDEST SWAP1 POP SWAP2 SWAP1 POP JUMP JUMPDEST PUSH2 0x300E DUP2 PUSH2 0x2FE4 JUMP JUMPDEST DUP3 MSTORE POP POP JUMP JUMPDEST PUSH0 PUSH1 0x40 DUP3 ADD SWAP1 POP PUSH2 0x3027 PUSH0 DUP4 ADD DUP6 PUSH2 0x25F7 JUMP JUMPDEST PUSH2 0x3034 PUSH1 0x20 DUP4 ADD DUP5 PUSH2 0x3005 JUMP JUMPDEST SWAP4 SWAP3 POP POP POP JUMP JUMPDEST PUSH0 PUSH1 0xC0 DUP3 ADD SWAP1 POP PUSH2 0x304E PUSH0 DUP4 ADD DUP10 PUSH2 0x25F7 JUMP JUMPDEST PUSH2 0x305B PUSH1 0x20 DUP4 ADD DUP9 PUSH2 0x25F7 JUMP JUMPDEST PUSH2 0x3068 PUSH1 0x40 DUP4 ADD DUP8 PUSH2 0x25F7 JUMP JUMPDEST PUSH2 0x3075 PUSH1 0x60 DUP4 ADD DUP7 PUSH2 0x25F7 JUMP JUMPDEST PUSH2 0x3082 PUSH1 0x80 DUP4 ADD DUP6 PUSH2 0x25F7 JUMP JUMPDEST PUSH2 0x308F PUSH1 0xA0 DUP4 ADD DUP5 PUSH2 0x2792 JUMP JUMPDEST SWAP8 SWAP7 POP POP POP POP POP POP POP JUMP JUMPDEST PUSH0 PUSH0 REVERT JUMPDEST PUSH32 0x4E487B7100000000000000000000000000000000000000000000000000000000 PUSH0 MSTORE PUSH1 0x41 PUSH1 0x4 MSTORE PUSH1 0x24 PUSH0 REVERT JUMPDEST PUSH2 0x30D4 DUP3 PUSH2 0x292C JUMP JUMPDEST DUP2 ADD DUP2 DUP2 LT PUSH8 0xFFFFFFFFFFFFFFFF DUP3 GT OR ISZERO PUSH2 0x30F3 JUMPI PUSH2 0x30F2 PUSH2 0x309E JUMP JUMPDEST JUMPDEST DUP1 PUSH1 0x40 MSTORE POP POP POP JUMP JUMPDEST PUSH0 PUSH2 0x3105 PUSH2 0x257D JUMP JUMPDEST SWAP1 POP PUSH2 0x3111 DUP3 DUP3 PUSH2 0x30CB JUMP JUMPDEST SWAP2 SWAP1 POP JUMP JUMPDEST PUSH0 DUP2 MLOAD SWAP1 POP PUSH2 0x3124 DUP2 PUSH2 0x261F JUMP JUMPDEST SWAP3 SWAP2 POP POP JUMP JUMPDEST PUSH0 PUSH1 0x80 DUP3 DUP5 SUB SLT ISZERO PUSH2 0x313F JUMPI PUSH2 0x313E PUSH2 0x309A JUMP JUMPDEST JUMPDEST PUSH2 0x3149 PUSH1 0x80 PUSH2 0x30FC JUMP JUMPDEST SWAP1 POP PUSH0 PUSH2 0x3158 DUP5 DUP3 DUP6 ADD PUSH2 0x3116 JUMP JUMPDEST PUSH0 DUP4 ADD MSTORE POP PUSH1 0x20 PUSH2 0x316B DUP5 DUP3 DUP6 ADD PUSH2 0x3116 JUMP JUMPDEST PUSH1 0x20 DUP4 ADD MSTORE POP PUSH1 0x40 PUSH2 0x317F DUP5 DUP3 DUP6 ADD PUSH2 0x3116 JUMP JUMPDEST PUSH1 0x40 DUP4 ADD MSTORE POP PUSH1 0x60 PUSH2 0x3193 DUP5 DUP3 DUP6 ADD PUSH2 0x3116 JUMP JUMPDEST PUSH1 0x60 DUP4 ADD MSTORE POP SWAP3 SWAP2 POP POP JUMP JUMPDEST PUSH0 PUSH1 0x80 DUP3 DUP5 SUB SLT ISZERO PUSH2 0x31B4 JUMPI PUSH2 0x31B3 PUSH2 0x2586 JUMP JUMPDEST JUMPDEST PUSH0 PUSH2 0x31C1 DUP5 DUP3 DUP6 ADD PUSH2 0x312A JUMP JUMPDEST SWAP2 POP POP SWAP3 SWAP2 POP POP JUMP JUMPDEST PUSH0 PUSH1 0x40 DUP3 ADD SWAP1 POP PUSH2 0x31DD PUSH0 DUP4 ADD DUP6 PUSH2 0x25F7 JUMP JUMPDEST PUSH2 0x31EA PUSH1 0x20 DUP4 ADD DUP5 PUSH2 0x25F7 JUMP JUMPDEST SWAP4 SWAP3 POP POP POP JUMP JUMPDEST PUSH32 0x416C7265616479207265736F6C76656400000000000000000000000000000000 PUSH0 DUP3 ADD MSTORE POP JUMP JUMPDEST PUSH0 PUSH2 0x3225 PUSH1 0x10 DUP4 PUSH2 0x290E JUMP JUMPDEST SWAP2 POP PUSH2 0x3230 DUP3 PUSH2 0x31F1 JUMP JUMPDEST PUSH1 0x20 DUP3 ADD SWAP1 POP SWAP2 SWAP1 POP JUMP JUMPDEST PUSH0 PUSH1 0x20 DUP3 ADD SWAP1 POP DUP2 DUP2 SUB PUSH0 DUP4 ADD MSTORE PUSH2 0x3252 DUP2 PUSH2 0x3219 JUMP JUMPDEST SWAP1 POP SWAP2 SWAP1 POP JUMP JUMPDEST PUSH32 0x456E642074696D65207061737400000000000000000000000000000000000000 PUSH0 DUP3 ADD MSTORE POP JUMP JUMPDEST PUSH0 PUSH2 0x328D PUSH1 0xD DUP4 PUSH2 0x290E JUMP JUMPDEST SWAP2 POP PUSH2 0x3298 DUP3 PUSH2 0x3259 JUMP JUMPDEST PUSH1 0x20 DUP3 ADD SWAP1 POP SWAP2 SWAP1 POP JUMP JUMPDEST PUSH0 PUSH1 0x20 DUP3 ADD SWAP1 POP DUP2 DUP2 SUB PUSH0 DUP4 ADD MSTORE PUSH2 0x32BA DUP2 PUSH2 0x3281 JUMP JUMPDEST SWAP1 POP SWAP2 SWAP1 POP JUMP JUMPDEST PUSH32 0x5265732074696D65203C20456E642074696D6500000000000000000000000000 PUSH0 DUP3 ADD MSTORE POP JUMP JUMPDEST PUSH0 PUSH2 0x32F5 PUSH1 0x13 DUP4 PUSH2 0x290E JUMP JUMPDEST SWAP2 POP PUSH2 0x3300 DUP3 PUSH2 0x32C1 JUMP JUMPDEST PUSH1 0x20 DUP3 ADD SWAP1 POP SWAP2 SWAP1 POP JUMP JUMPDEST PUSH0 PUSH1 0x20 DUP3 ADD SWAP1 POP DUP2 DUP2 SUB PUSH0 DUP4 ADD MSTORE PUSH2 0x3322 DUP2 PUSH2 0x32E9 JUMP JUMPDEST SWAP1 POP SWAP2 SWAP1 POP JUMP JUMPDEST PUSH0 PUSH2 0x3333 DUP3 PUSH2 0x25EE JUMP JUMPDEST SWAP2 POP PUSH32 0xFFFFFFFFFFFFFFFFFFFFFFFFFFFFFFFFFFFFFFFFFFFFFFFFFFFFFFFFFFFFFFFF DUP3 SUB PUSH2 0x3365 JUMPI PUSH2 0x3364 PUSH2 0x2F13 JUMP JUMPDEST JUMPDEST PUSH1 0x1 DUP3 ADD SWAP1 POP SWAP2 SWAP1 POP JUMP JUMPDEST PUSH0 PUSH0 REVERT JUMPDEST PUSH0 PUSH0 REVERT JUMPDEST PUSH0 PUSH0 REVERT JUMPDEST PUSH0 PUSH0 DUP4 CALLDATALOAD PUSH1 0x1 PUSH1 0x20 SUB DUP5 CALLDATASIZE SUB SUB DUP2 SLT PUSH2 0x3398 JUMPI PUSH2 0x3397 PUSH2 0x3370 JUMP JUMPDEST JUMPDEST DUP1 DUP5 ADD SWAP3 POP DUP3 CALLDATALOAD SWAP2 POP PUSH8 0xFFFFFFFFFFFFFFFF DUP3 GT ISZERO PUSH2 0x33BA JUMPI PUSH2 0x33B9 PUSH2 0x3374 JUMP JUMPDEST JUMPDEST PUSH1 0x20 DUP4 ADD SWAP3 POP PUSH1 0x1 DUP3 MUL CALLDATASIZE SUB DUP4 SGT ISZERO PUSH2 0x33D6 JUMPI PUSH2 0x33D5 PUSH2 0x3378 JUMP JUMPDEST JUMPDEST POP SWAP3 POP SWAP3 SWAP1 POP JUMP JUMPDEST PUSH0 DUP3 SWAP1 POP SWAP3 SWAP2 POP POP JUMP JUMPDEST PUSH32 0x4E487B7100000000000000000000000000000000000000000000000000000000 PUSH0 MSTORE PUSH1 0x22 PUSH1 0x4 MSTORE PUSH1 0x24 PUSH0 REVERT JUMPDEST PUSH0 PUSH1 0x2 DUP3 DIV SWAP1 POP PUSH1 0x1 DUP3 AND DUP1 PUSH2 0x342C JUMPI PUSH1 0x7F DUP3 AND SWAP2 POP JUMPDEST PUSH1 0x20 DUP3 LT DUP2 SUB PUSH2 0x343F JUMPI PUSH2 0x343E PUSH2 0x33E8 JUMP JUMPDEST JUMPDEST POP SWAP2 SWAP1 POP JUMP JUMPDEST PUSH0 DUP2 SWAP1 POP DUP2 PUSH0 MSTORE PUSH1 0x20 PUSH0 KECCAK256 SWAP1 POP SWAP2 SWAP1 POP JUMP JUMPDEST PUSH0 PUSH1 0x20 PUSH1 0x1F DUP4 ADD DIV SWAP1 POP SWAP2 SWAP1 POP JUMP JUMPDEST PUSH0 DUP3 DUP3 SHL SWAP1 POP SWAP3 SWAP2 POP POP JUMP JUMPDEST PUSH0 PUSH1 0x8 DUP4 MUL PUSH2 0x34A1 PUSH32 0xFFFFFFFFFFFFFFFFFFFFFFFFFFFFFFFFFFFFFFFFFFFFFFFFFFFFFFFFFFFFFFFF DUP3 PUSH2 0x3466 JUMP JUMPDEST PUSH2 0x34AB DUP7 DUP4 PUSH2 0x3466 JUMP JUMPDEST SWAP6 POP DUP1 NOT DUP5 AND SWAP4 POP DUP1 DUP7 AND DUP5 OR SWAP3 POP POP POP SWAP4 SWAP3 POP POP POP JUMP JUMPDEST PUSH0 PUSH2 0x34DD PUSH2 0x34D8 PUSH2 0x34D3 DUP5 PUSH2 0x25EE JUMP JUMPDEST PUSH2 0x2509 JUMP JUMPDEST PUSH2 0x25EE JUMP JUMPDEST SWAP1 POP SWAP2 SWAP1 POP JUMP JUMPDEST PUSH0 DUP2 SWAP1 POP SWAP2 SWAP1 POP JUMP JUMPDEST PUSH2 0x34F6 DUP4 PUSH2 0x34C3 JUMP JUMPDEST PUSH2 0x350A PUSH2 0x3502 DUP3 PUSH2 0x34E4 JUMP JUMPDEST DUP5 DUP5 SLOAD PUSH2 0x3472 JUMP JUMPDEST DUP3 SSTORE POP POP POP POP JUMP JUMPDEST PUSH0 PUSH0 SWAP1 POP SWAP1 JUMP JUMPDEST PUSH2 0x3521 PUSH2 0x3512 JUMP JUMPDEST PUSH2 0x352C DUP2 DUP5 DUP5 PUSH2 0x34ED JUMP JUMPDEST POP POP POP JUMP JUMPDEST JUMPDEST DUP2 DUP2 LT ISZERO PUSH2 0x354F JUMPI PUSH2 0x3544 PUSH0 DUP3 PUSH2 0x3519 JUMP JUMPDEST PUSH1 0x1 DUP2 ADD SWAP1 POP PUSH2 0x3532 JUMP JUMPDEST POP POP JUMP JUMPDEST PUSH1 0x1F DUP3 GT ISZERO PUSH2 0x3594 JUMPI PUSH2 0x3565 DUP2 PUSH2 0x3445 JUMP JUMPDEST PUSH2 0x356E DUP5 PUSH2 0x3457 JUMP JUMPDEST DUP2 ADD PUSH1 0x20 DUP6 LT ISZERO PUSH2 0x357D JUMPI DUP2 SWAP1 POP JUMPDEST PUSH2 0x3591 PUSH2 0x3589 DUP6 PUSH2 0x3457 JUMP JUMPDEST DUP4 ADD DUP3 PUSH2 0x3531 JUMP JUMPDEST POP POP JUMPDEST POP POP POP JUMP JUMPDEST PUSH0 DUP3 DUP3 SHR SWAP1 POP SWAP3 SWAP2 POP POP JUMP JUMPDEST PUSH0 PUSH2 0x35B4 PUSH0 NOT DUP5 PUSH1 0x8 MUL PUSH2 0x3599 JUMP JUMPDEST NOT DUP1 DUP4 AND SWAP2 POP POP SWAP3 SWAP2 POP POP JUMP JUMPDEST PUSH0 PUSH2 0x35CC DUP4 DUP4 PUSH2 0x35A5 JUMP JUMPDEST SWAP2 POP DUP3 PUSH1 0x2 MUL DUP3 OR SWAP1 POP SWAP3 SWAP2 POP POP JUMP JUMPDEST PUSH2 0x35E6 DUP4 DUP4 PUSH2 0x33DE JUMP JUMPDEST PUSH8 0xFFFFFFFFFFFFFFFF DUP2 GT ISZERO PUSH2 0x35FF JUMPI PUSH2 0x35FE PUSH2 0x309E JUMP JUMPDEST JUMPDEST PUSH2 0x3609 DUP3 SLOAD PUSH2 0x3415 JUMP JUMPDEST PUSH2 0x3614 DUP3 DUP3 DUP6 PUSH2 0x3553 JUMP JUMPDEST PUSH0 PUSH1 0x1F DUP4 GT PUSH1 0x1 DUP2 EQ PUSH2 0x3641 JUMPI PUSH0 DUP5 ISZERO PUSH2 0x362F JUMPI DUP3 DUP8 ADD CALLDATALOAD SWAP1 POP JUMPDEST PUSH2 0x3639 DUP6 DUP3 PUSH2 0x35C1 JUMP JUMPDEST DUP7 SSTORE POP PUSH2 0x36A0 JUMP JUMPDEST PUSH1 0x1F NOT DUP5 AND PUSH2 0x364F DUP7 PUSH2 0x3445 JUMP JUMPDEST PUSH0 JUMPDEST DUP3 DUP2 LT ISZERO PUSH2 0x3676 JUMPI DUP5 DUP10 ADD CALLDATALOAD DUP3 SSTORE PUSH1 0x1 DUP3 ADD SWAP2 POP PUSH1 0x20 DUP6 ADD SWAP5 POP PUSH1 0x20 DUP2 ADD SWAP1 POP PUSH2 0x3651 JUMP JUMPDEST DUP7 DUP4 LT ISZERO PUSH2 0x3693 JUMPI DUP5 DUP10 ADD CALLDATALOAD PUSH2 0x368F PUSH1 0x1F DUP10 AND DUP3 PUSH2 0x35A5 JUMP JUMPDEST DUP4 SSTORE POP JUMPDEST PUSH1 0x1 PUSH1 0x2 DUP9 MUL ADD DUP9 SSTORE POP POP POP JUMPDEST POP POP POP POP POP POP POP JUMP JUMPDEST PUSH2 0x36B4 DUP4 DUP4 DUP4 PUSH2 0x35DC JUMP JUMPDEST POP POP POP JUMP JUMPDEST PUSH0 DUP2 CALLDATALOAD PUSH2 0x36C5 DUP2 PUSH2 0x261F JUMP JUMPDEST DUP1 SWAP2 POP POP SWAP2 SWAP1 POP JUMP JUMPDEST PUSH0 DUP2 PUSH0 SHL SWAP1 POP SWAP2 SWAP1 POP JUMP JUMPDEST PUSH0 PUSH32 0xFFFFFFFFFFFFFFFFFFFFFFFFFFFFFFFFFFFFFFFFFFFFFFFFFFFFFFFFFFFFFFFF PUSH2 0x3704 DUP5 PUSH2 0x36CE JUMP JUMPDEST SWAP4 POP DUP1 NOT DUP4 AND SWAP3 POP DUP1 DUP5 AND DUP4 OR SWAP2 POP POP SWAP3 SWAP2 POP POP JUMP JUMPDEST PUSH2 0x3723 DUP3 PUSH2 0x34C3 JUMP JUMPDEST PUSH2 0x3736 PUSH2 0x372F DUP3 PUSH2 0x34E4 JUMP JUMPDEST DUP4 SLOAD PUSH2 0x36D9 JUMP JUMPDEST DUP3 SSTORE POP POP POP JUMP JUMPDEST PUSH0 DUP2 CALLDATALOAD PUSH2 0x3749 DUP2 PUSH2 0x2D26 JUMP JUMPDEST DUP1 SWAP2 POP POP SWAP2 SWAP1 POP JUMP JUMPDEST PUSH0 PUSH2 0x376C PUSH2 0x3767 PUSH2 0x3762 DUP5 PUSH2 0x2974 JUMP JUMPDEST PUSH2 0x2509 JUMP JUMPDEST PUSH2 0x2974 JUMP JUMPDEST SWAP1 POP SWAP2 SWAP1 POP JUMP JUMPDEST PUSH0 DUP2 SWAP1 POP SWAP2 SWAP1 POP JUMP JUMPDEST PUSH2 0x3785 DUP3 PUSH2 0x3752 JUMP JUMPDEST PUSH2 0x3798 PUSH2 0x3791 DUP3 PUSH2 0x3773 JUMP JUMPDEST DUP4 SLOAD PUSH2 0x36D9 JUMP JUMPDEST DUP3 SSTORE POP POP POP JUMP JUMPDEST PUSH0 DUP2 CALLDATALOAD PUSH2 0x37AB DUP2 PUSH2 0x272A JUMP JUMPDEST DUP1 SWAP2 POP POP SWAP2 SWAP1 POP JUMP JUMPDEST PUSH0 PUSH20 0xFFFFFFFFFFFFFFFFFFFFFFFFFFFFFFFFFFFFFFFF PUSH2 0x37D3 DUP5 PUSH2 0x36CE JUMP JUMPDEST SWAP4 POP DUP1 NOT DUP4 AND SWAP3 POP DUP1 DUP5 AND DUP4 OR SWAP2 POP POP SWAP3 SWAP2 POP POP JUMP JUMPDEST PUSH0 PUSH2 0x37F3 DUP3 PUSH2 0x2533 JUMP JUMPDEST SWAP1 POP SWAP2 SWAP1 POP JUMP JUMPDEST PUSH0 DUP2 SWAP1 POP SWAP2 SWAP1 POP JUMP JUMPDEST PUSH2 0x380C DUP3 PUSH2 0x37E9 JUMP JUMPDEST PUSH2 0x381F PUSH2 0x3818 DUP3 PUSH2 0x37FA JUMP JUMPDEST DUP4 SLOAD PUSH2 0x37B4 JUMP JUMPDEST DUP3 SSTORE POP POP POP JUMP JUMPDEST PUSH0 DUP2 CALLDATALOAD PUSH2 0x3832 DUP2 PUSH2 0x2599 JUMP JUMPDEST DUP1 SWAP2 POP POP SWAP2 SWAP1 POP JUMP JUMPDEST PUSH0 DUP2 PUSH1 0xA0 SHL SWAP1 POP SWAP2 SWAP1 POP JUMP JUMPDEST PUSH0 PUSH21 0xFF0000000000000000000000000000000000000000 PUSH2 0x3867 DUP5 PUSH2 0x383B JUMP JUMPDEST SWAP4 POP DUP1 NOT DUP4 AND SWAP3 POP DUP1 DUP5 AND DUP4 OR SWAP2 POP POP SWAP3 SWAP2 POP POP JUMP JUMPDEST PUSH0 PUSH2 0x3887 DUP3 PUSH2 0x258E JUMP JUMPDEST SWAP1 POP SWAP2 SWAP1 POP JUMP JUMPDEST PUSH0 DUP2 SWAP1 POP SWAP2 SWAP1 POP JUMP JUMPDEST PUSH2 0x38A0 DUP3 PUSH2 0x387D JUMP JUMPDEST PUSH2 0x38B3 PUSH2 0x38AC DUP3 PUSH2 0x388E JUMP JUMPDEST DUP4 SLOAD PUSH2 0x3847 JUMP JUMPDEST DUP3 SSTORE POP POP POP JUMP JUMPDEST PUSH0 DUP2 ADD PUSH0 DUP4 ADD PUSH2 0x38CA DUP2 DUP6 PUSH2 0x337C JUMP JUMPDEST PUSH2 0x38D5 DUP2 DUP4 DUP7 PUSH2 0x36A9 JUMP JUMPDEST POP POP POP POP PUSH1 0x1 DUP2 ADD PUSH1 0x20 DUP4 ADD PUSH2 0x38EB DUP2 DUP6 PUSH2 0x337C JUMP JUMPDEST PUSH2 0x38F6 DUP2 DUP4 DUP7 PUSH2 0x36A9 JUMP JUMPDEST POP POP POP POP PUSH1 0x2 DUP2 ADD PUSH1 0x40 DUP4 ADD DUP1 PUSH2 0x390C DUP2 PUSH2 0x36B9 JUMP JUMPDEST SWAP1 POP PUSH2 0x3918 DUP2 DUP5 PUSH2 0x371A JUMP JUMPDEST POP POP POP PUSH1 0x3 DUP2 ADD PUSH1 0x60 DUP4 ADD DUP1 PUSH2 0x392D DUP2 PUSH2 0x36B9 JUMP JUMPDEST SWAP1 POP PUSH2 0x3939 DUP2 DUP5 PUSH2 0x371A JUMP JUMPDEST POP POP POP PUSH1 0x4 DUP2 ADD PUSH1 0x80 DUP4 ADD DUP1 PUSH2 0x394E DUP2 PUSH2 0x373D JUMP JUMPDEST SWAP1 POP PUSH2 0x395A DUP2 DUP5 PUSH2 0x377C JUMP JUMPDEST POP POP POP PUSH1 0x5 DUP2 ADD PUSH1 0xA0 DUP4 ADD DUP1 PUSH2 0x396F DUP2 PUSH2 0x379F JUMP JUMPDEST SWAP1 POP PUSH2 0x397B DUP2 DUP5 PUSH2 0x3803 JUMP JUMPDEST POP POP POP PUSH1 0x6 DUP2 ADD PUSH1 0xC0 DUP4 ADD DUP1 PUSH2 0x3990 DUP2 PUSH2 0x379F JUMP JUMPDEST SWAP1 POP PUSH2 0x399C DUP2 DUP5 PUSH2 0x3803 JUMP JUMPDEST POP POP POP PUSH1 0x6 DUP2 ADD PUSH1 0xE0 DUP4 ADD DUP1 PUSH2 0x39B1 DUP2 PUSH2 0x3826 JUMP JUMPDEST SWAP1 POP PUSH2 0x39BD DUP2 DUP5 PUSH2 0x3897 JUMP JUMPDEST POP POP POP PUSH1 0x7 DUP2 ADD PUSH2 0x100 DUP4 ADD DUP1 PUSH2 0x39D3 DUP2 PUSH2 0x36B9 JUMP JUMPDEST SWAP1 POP PUSH2 0x39DF DUP2 DUP5 PUSH2 0x371A JUMP JUMPDEST POP POP POP POP POP JUMP JUMPDEST PUSH2 0x39F0 DUP3 DUP3 PUSH2 0x38BA JUMP JUMPDEST POP POP JUMP JUMPDEST DUP3 DUP2 DUP4 CALLDATACOPY PUSH0 DUP4 DUP4 ADD MSTORE POP POP POP JUMP JUMPDEST PUSH0 PUSH2 0x3A0D DUP4 DUP6 PUSH2 0x290E JUMP JUMPDEST SWAP4 POP PUSH2 0x3A1A DUP4 DUP6 DUP5 PUSH2 0x39F4 JUMP JUMPDEST PUSH2 0x3A23 DUP4 PUSH2 0x292C JUMP JUMPDEST DUP5 ADD SWAP1 POP SWAP4 SWAP3 POP POP POP JUMP JUMPDEST PUSH0 PUSH1 0x60 DUP3 ADD SWAP1 POP DUP2 DUP2 SUB PUSH0 DUP4 ADD MSTORE PUSH2 0x3A47 DUP2 DUP7 DUP9 PUSH2 0x3A02 JUMP JUMPDEST SWAP1 POP PUSH2 0x3A56 PUSH1 0x20 DUP4 ADD DUP6 PUSH2 0x25F7 JUMP JUMPDEST PUSH2 0x3A63 PUSH1 0x40 DUP4 ADD DUP5 PUSH2 0x25F7 JUMP JUMPDEST SWAP6 SWAP5 POP POP POP POP POP JUMP JUMPDEST PUSH32 0x5061757365640000000000000000000000000000000000000000000000000000 PUSH0 DUP3 ADD MSTORE POP JUMP JUMPDEST PUSH0 PUSH2 0x3AA0 PUSH1 0x6 DUP4 PUSH2 0x290E JUMP JUMPDEST SWAP2 POP PUSH2 0x3AAB DUP3 PUSH2 0x3A6C JUMP JUMPDEST PUSH1 0x20 DUP3 ADD SWAP1 POP SWAP2 SWAP1 POP JUMP JUMPDEST PUSH0 PUSH1 0x20 DUP3 ADD SWAP1 POP DUP2 DUP2 SUB PUSH0 DUP4 ADD MSTORE PUSH2 0x3ACD DUP2 PUSH2 0x3A94 JUMP JUMPDEST SWAP1 POP SWAP2 SWAP1 POP JUMP JUMPDEST PUSH32 0x42657474696E6720636C6F736564000000000000000000000000000000000000 PUSH0 DUP3 ADD MSTORE POP JUMP JUMPDEST PUSH0 PUSH2 0x3B08 PUSH1 0xE DUP4 PUSH2 0x290E JUMP JUMPDEST SWAP2 POP PUSH2 0x3B13 DUP3 PUSH2 0x3AD4 JUMP JUMPDEST PUSH1 0x20 DUP3 ADD SWAP1 POP SWAP2 SWAP1 POP JUMP JUMPDEST PUSH0 PUSH1 0x20 DUP3 ADD SWAP1 POP DUP2 DUP2 SUB PUSH0 DUP4 ADD MSTORE PUSH2 0x3B35 DUP2 PUSH2 0x3AFC JUMP JUMPDEST SWAP1 POP SWAP2 SWAP1 POP JUMP JUMPDEST PUSH32 0x42656C6F77206D696E2062657400000000000000000000000000000000000000 PUSH0 DUP3 ADD MSTORE POP JUMP JUMPDEST PUSH0 PUSH2 0x3B70 PUSH1 0xD DUP4 PUSH2 0x290E JUMP JUMPDEST SWAP2 POP PUSH2 0x3B7B DUP3 PUSH2 0x3B3C JUMP JUMPDEST PUSH1 0x20 DUP3 ADD SWAP1 POP SWAP2 SWAP1 POP JUMP JUMPDEST PUSH0 PUSH1 0x20 DUP3 ADD SWAP1 POP DUP2 DUP2 SUB PUSH0 DUP4 ADD MSTORE PUSH2 0x3B9D DUP2 PUSH2 0x3B64 JUMP JUMPDEST SWAP1 POP SWAP2 SWAP1 POP JUMP JUMPDEST PUSH32 0x455448206D69736D617463680000000000000000000000000000000000000000 PUSH0 DUP3 ADD MSTORE POP JUMP JUMPDEST PUSH0 PUSH2 0x3BD8 PUSH1 0xC DUP4 PUSH2 0x290E JUMP JUMPDEST SWAP2 POP PUSH2 0x3BE3 DUP3 PUSH2 0x3BA4 JUMP JUMPDEST PUSH1 0x20 DUP3 ADD SWAP1 POP SWAP2 SWAP1 POP JUMP JUMPDEST PUSH0 PUSH1 0x20 DUP3 ADD SWAP1 POP DUP2 DUP2 SUB PUSH0 DUP4 ADD MSTORE PUSH2 0x3C05 DUP2 PUSH2 0x3BCC JUMP JUMPDEST SWAP1 POP SWAP2 SWAP1 POP JUMP JUMPDEST PUSH32 0x446F6E27742073656E6420455448000000000000000000000000000000000000 PUSH0 DUP3 ADD MSTORE POP JUMP JUMPDEST PUSH0 PUSH2 0x3C40 PUSH1 0xE DUP4 PUSH2 0x290E JUMP JUMPDEST SWAP2 POP PUSH2 0x3C4B DUP3 PUSH2 0x3C0C JUMP JUMPDEST PUSH1 0x20 DUP3 ADD SWAP1 POP SWAP2 SWAP1 POP JUMP JUMPDEST PUSH0 PUSH1 0x20 DUP3 ADD SWAP1 POP DUP2 DUP2 SUB PUSH0 DUP4 ADD MSTORE PUSH2 0x3C6D DUP2 PUSH2 0x3C34 JUMP JUMPDEST SWAP1 POP SWAP2 SWAP1 POP JUMP JUMPDEST PUSH0 PUSH1 0x60 DUP3 ADD SWAP1 POP PUSH2 0x3C87 PUSH0 DUP4 ADD DUP7 PUSH2 0x25F7 JUMP JUMPDEST PUSH2 0x3C94 PUSH1 0x20 DUP4 ADD DUP6 PUSH2 0x2792 JUMP JUMPDEST PUSH2 0x3CA1 PUSH1 0x40 DUP4 ADD DUP5 PUSH2 0x26D7 JUMP JUMPDEST SWAP5 SWAP4 POP POP POP POP JUMP JUMPDEST PUSH0 PUSH1 0x20 DUP3 DUP5 SUB SLT ISZERO PUSH2 0x3CBE JUMPI PUSH2 0x3CBD PUSH2 0x2586 JUMP JUMPDEST JUMPDEST PUSH0 PUSH2 0x3CCB DUP5 DUP3 DUP6 ADD PUSH2 0x3116 JUMP JUMPDEST SWAP2 POP POP SWAP3 SWAP2 POP POP JUMP JUMPDEST PUSH32 0x43616E63656C6C65640000000000000000000000000000000000000000000000 PUSH0 DUP3 ADD MSTORE POP JUMP JUMPDEST PUSH0 PUSH2 0x3D08 PUSH1 0x9 DUP4 PUSH2 0x290E JUMP JUMPDEST SWAP2 POP PUSH2 0x3D13 DUP3 PUSH2 0x3CD4 JUMP JUMPDEST PUSH1 0x20 DUP3 ADD SWAP1 POP SWAP2 SWAP1 POP JUMP JUMPDEST PUSH0 PUSH1 0x20 DUP3 ADD SWAP1 POP DUP2 DUP2 SUB PUSH0 DUP4 ADD MSTORE PUSH2 0x3D35 DUP2 PUSH2 0x3CFC JUMP JUMPDEST SWAP1 POP SWAP2 SWAP1 POP JUMP JUMPDEST PUSH32 0x557365204175746F000000000000000000000000000000000000000000000000 PUSH0 DUP3 ADD MSTORE POP JUMP JUMPDEST PUSH0 PUSH2 0x3D70 PUSH1 0x8 DUP4 PUSH2 0x290E JUMP JUMPDEST SWAP2 POP PUSH2 0x3D7B DUP3 PUSH2 0x3D3C JUMP JUMPDEST PUSH1 0x20 DUP3 ADD SWAP1 POP SWAP2 SWAP1 POP JUMP JUMPDEST PUSH0 PUSH1 0x20 DUP3 ADD SWAP1 POP DUP2 DUP2 SUB PUSH0 DUP4 ADD MSTORE PUSH2 0x3D9D DUP2 PUSH2 0x3D64 JUMP JUMPDEST SWAP1 POP SWAP2 SWAP1 POP JUMP JUMPDEST PUSH32 0x4E6F7420796574207265736F6C7574696F6E2074696D65000000000000000000 PUSH0 DUP3 ADD MSTORE POP JUMP JUMPDEST PUSH0 PUSH2 0x3DD8 PUSH1 0x17 DUP4 PUSH2 0x290E JUMP JUMPDEST SWAP2 POP PUSH2 0x3DE3 DUP3 PUSH2 0x3DA4 JUMP JUMPDEST PUSH1 0x20 DUP3 ADD SWAP1 POP SWAP2 SWAP1 POP JUMP JUMPDEST PUSH0 PUSH1 0x20 DUP3 ADD SWAP1 POP DUP2 DUP2 SUB PUSH0 DUP4 ADD MSTORE PUSH2 0x3E05 DUP2 PUSH2 0x3DCC JUMP JUMPDEST SWAP1 POP SWAP2 SWAP1 POP JUMP JUMPDEST PUSH32 0x4D61782066656520352500000000000000000000000000000000000000000000 PUSH0 DUP3 ADD MSTORE POP JUMP JUMPDEST PUSH0 PUSH2 0x3E40 PUSH1 0xA DUP4 PUSH2 0x290E JUMP JUMPDEST SWAP2 POP PUSH2 0x3E4B DUP3 PUSH2 0x3E0C JUMP JUMPDEST PUSH1 0x20 DUP3 ADD SWAP1 POP SWAP2 SWAP1 POP JUMP JUMPDEST PUSH0 PUSH1 0x20 DUP3 ADD SWAP1 POP DUP2 DUP2 SUB PUSH0 DUP4 ADD MSTORE PUSH2 0x3E6D DUP2 PUSH2 0x3E34 JUMP JUMPDEST SWAP1 POP SWAP2 SWAP1 POP JUMP JUMPDEST PUSH0 DUP2 SWAP1 POP SWAP3 SWAP2 POP POP JUMP JUMPDEST POP JUMP JUMPDEST PUSH0 PUSH2 0x3E8C PUSH0 DUP4 PUSH2 0x3E74 JUMP JUMPDEST SWAP2 POP PUSH2 0x3E97 DUP3 PUSH2 0x3E7E JUMP JUMPDEST PUSH0 DUP3 ADD SWAP1 POP SWAP2 SWAP1 POP JUMP JUMPDEST PUSH0 PUSH2 0x3EAB DUP3 PUSH2 0x3E81 JUMP JUMPDEST SWAP2 POP DUP2 SWAP1 POP SWAP2 SWAP1 POP JUMP JUMPDEST PUSH32 0x455448205472616E73666572206661696C656400000000000000000000000000 PUSH0 DUP3 ADD MSTORE POP JUMP JUMPDEST PUSH0 PUSH2 0x3EE9 PUSH1 0x13 DUP4 PUSH2 0x290E JUMP JUMPDEST SWAP2 POP PUSH2 0x3EF4 DUP3 PUSH2 0x3EB5 JUMP JUMPDEST PUSH1 0x20 DUP3 ADD SWAP1 POP SWAP2 SWAP1 POP JUMP JUMPDEST PUSH0 PUSH1 0x20 DUP3 ADD SWAP1 POP DUP2 DUP2 SUB PUSH0 DUP4 ADD MSTORE PUSH2 0x3F16 DUP2 PUSH2 0x3EDD JUMP JUMPDEST SWAP1 POP SWAP2 SWAP1 POP JUMP JUMPDEST PUSH0 PUSH1 0x60 DUP3 ADD SWAP1 POP PUSH2 0x3F30 PUSH0 DUP4 ADD DUP7 PUSH2 0x26D7 JUMP JUMPDEST PUSH2 0x3F3D PUSH1 0x20 DUP4 ADD DUP6 PUSH2 0x26D7 JUMP JUMPDEST PUSH2 0x3F4A PUSH1 0x40 DUP4 ADD DUP5 PUSH2 0x25F7 JUMP JUMPDEST SWAP5 SWAP4 POP POP POP POP JUMP JUMPDEST PUSH0 PUSH1 0x40 DUP3 ADD SWAP1 POP PUSH2 0x3F65 PUSH0 DUP4 ADD DUP6 PUSH2 0x26D7 JUMP JUMPDEST PUSH2 0x3F72 PUSH1 0x20 DUP4 ADD DUP5 PUSH2 0x25F7 JUMP JUMPDEST SWAP4 SWAP3 POP POP POP JUMP INVALID LOG2 PUSH5 0x6970667358 0x22 SLT KECCAK256 0xE9 0xF7 SWAP10 DUP6 PUSH14 0xA94A864290A4F82E37BB08AF302C 0xEF PUSH1 0x83 DUP4 0xC9 0x2A PUSH28 0x893529C2743164736F6C634300081F00330000000000000000000000 "
		},
		"gasEstimates": {
			"creation": {
				"codeDepositCost": "3260600",
				"executionCost": "infinite",
				"totalCost": "infinite"
			},
			"external": {
				"cancelMarket(uint256)": "infinite",
				"claimWinnings(uint256)": "infinite",
				"createMarket((string,string,uint256,uint256,int256,address,address,bool,uint256))": "infinite",
				"emergencyRefund(uint256)": "infinite",
				"feeBasis()": "2493",
				"isPaused()": "2562",
				"marketConfigs(uint256)": "infinite",
				"marketCount()": "2447",
				"marketStatuses(uint256)": "infinite",
				"math()": "infinite",
				"owner()": "2625",
				"placeBet(uint256,bool,uint256,address)": "infinite",
				"referralSplit()": "2514",
				"renounceOwnership()": "infinite",
				"resolveManual(uint256,uint8)": "infinite",
				"resolveMarket(uint256,uint80)": "infinite",
				"resolver()": "infinite",
				"setFeeRates(uint256,uint256)": "infinite",
				"setPaused(bool)": "infinite",
				"setTreasury(address)": "infinite",
				"sweepUnclaimed(uint256)": "infinite",
				"transferOwnership(address)": "infinite",
				"treasury()": "2620",
				"userBets(uint256,address)": "infinite"
			},
			"internal": {
				"_finalizeMarket(uint256,uint8)": "infinite",
				"_safeTransfer(address,address,uint256)": "infinite"
			}
		},
		"methodIdentifiers": {
			"cancelMarket(uint256)": "7c16cd9e",
			"claimWinnings(uint256)": "677bd9ff",
			"createMarket((string,string,uint256,uint256,int256,address,address,bool,uint256))": "9c6720a3",
			"emergencyRefund(uint256)": "70e5deb9",
			"feeBasis()": "5a94ee46",
			"isPaused()": "b187bd26",
			"marketConfigs(uint256)": "e4cfcc23",
			"marketCount()": "ec979082",
			"marketStatuses(uint256)": "eec8138e",
			"math()": "addf3804",
			"owner()": "8da5cb5b",
			"placeBet(uint256,bool,uint256,address)": "c1de1343",
			"referralSplit()": "d1f8301a",
			"renounceOwnership()": "715018a6",
			"resolveManual(uint256,uint8)": "fe33ae7a",
			"resolveMarket(uint256,uint80)": "5cabbbf8",
			"resolver()": "04f3bcec",
			"setFeeRates(uint256,uint256)": "feaca583",
			"setPaused(bool)": "16c38b3c",
			"setTreasury(address)": "f0f44260",
			"sweepUnclaimed(uint256)": "e50e64d5",
			"transferOwnership(address)": "f2fde38b",
			"treasury()": "61d027b3",
			"userBets(uint256,address)": "7d06a8e1"
		}
	},
	"abi": [
		{
			"inputs": [
				{
					"internalType": "address",
					"name": "_math",
					"type": "address"
				},
				{
					"internalType": "address",
					"name": "_resolver",
					"type": "address"
				}
			],
			"stateMutability": "nonpayable",
			"type": "constructor"
		},
		{
			"inputs": [
				{
					"internalType": "address",
					"name": "owner",
					"type": "address"
				}
			],
			"name": "OwnableInvalidOwner",
			"type": "error"
		},
		{
			"inputs": [
				{
					"internalType": "address",
					"name": "account",
					"type": "address"
				}
			],
			"name": "OwnableUnauthorizedAccount",
			"type": "error"
		},
		{
			"inputs": [
				{
					"internalType": "address",
					"name": "token",
					"type": "address"
				}
			],
			"name": "SafeERC20FailedOperation",
			"type": "error"
		},
		{
			"anonymous": false,
			"inputs": [
				{
					"indexed": true,
					"internalType": "uint256",
					"name": "marketId",
					"type": "uint256"
				},
				{
					"indexed": true,
					"internalType": "address",
					"name": "user",
					"type": "address"
				},
				{
					"indexed": false,
					"internalType": "uint256",
					"name": "amount",
					"type": "uint256"
				},
				{
					"indexed": false,
					"internalType": "bool",
					"name": "isYes",
					"type": "bool"
				},
				{
					"indexed": false,
					"internalType": "address",
					"name": "referrer",
					"type": "address"
				}
			],
			"name": "BetPlaced",
			"type": "event"
		},
		{
			"anonymous": false,
			"inputs": [
				{
					"indexed": true,
					"internalType": "uint256",
					"name": "marketId",
					"type": "uint256"
				},
				{
					"indexed": false,
					"internalType": "uint256",
					"name": "adminAmount",
					"type": "uint256"
				},
				{
					"indexed": false,
					"internalType": "uint256",
					"name": "referrerAmount",
					"type": "uint256"
				}
			],
			"name": "FeesDistributed",
			"type": "event"
		},
		{
			"anonymous": false,
			"inputs": [
				{
					"indexed": true,
					"internalType": "uint256",
					"name": "marketId",
					"type": "uint256"
				}
			],
			"name": "MarketCancelled",
			"type": "event"
		},
		{
			"anonymous": false,
			"inputs": [
				{
					"indexed": true,
					"internalType": "uint256",
					"name": "marketId",
					"type": "uint256"
				},
				{
					"indexed": false,
					"internalType": "string",
					"name": "question",
					"type": "string"
				},
				{
					"indexed": true,
					"internalType": "address",
					"name": "token",
					"type": "address"
				},
				{
					"indexed": false,
					"internalType": "uint256",
					"name": "minBet",
					"type": "uint256"
				},
				{
					"indexed": false,
					"internalType": "uint256",
					"name": "resolutionTime",
					"type": "uint256"
				}
			],
			"name": "MarketCreated",
			"type": "event"
		},
		{
			"anonymous": false,
			"inputs": [
				{
					"indexed": true,
					"internalType": "uint256",
					"name": "marketId",
					"type": "uint256"
				},
				{
					"indexed": false,
					"internalType": "enum LucidMarketsV4.MarketOutcome",
					"name": "outcome",
					"type": "uint8"
				},
				{
					"indexed": false,
					"internalType": "bool",
					"name": "isManual",
					"type": "bool"
				}
			],
			"name": "MarketResolved",
			"type": "event"
		},
		{
			"anonymous": false,
			"inputs": [
				{
					"indexed": true,
					"internalType": "address",
					"name": "previousOwner",
					"type": "address"
				},
				{
					"indexed": true,
					"internalType": "address",
					"name": "newOwner",
					"type": "address"
				}
			],
			"name": "OwnershipTransferred",
			"type": "event"
		},
		{
			"anonymous": false,
			"inputs": [
				{
					"indexed": true,
					"internalType": "uint256",
					"name": "marketId",
					"type": "uint256"
				},
				{
					"indexed": true,
					"internalType": "address",
					"name": "user",
					"type": "address"
				},
				{
					"indexed": false,
					"internalType": "uint256",
					"name": "amount",
					"type": "uint256"
				},
				{
					"indexed": false,
					"internalType": "uint256",
					"name": "feePaid",
					"type": "uint256"
				}
			],
			"name": "WinningsClaimed",
			"type": "event"
		},
		{
			"inputs": [
				{
					"internalType": "uint256",
					"name": "_id",
					"type": "uint256"
				}
			],
			"name": "cancelMarket",
			"outputs": [],
			"stateMutability": "nonpayable",
			"type": "function"
		},
		{
			"inputs": [
				{
					"internalType": "uint256",
					"name": "_id",
					"type": "uint256"
				}
			],
			"name": "claimWinnings",
			"outputs": [],
			"stateMutability": "nonpayable",
			"type": "function"
		},
		{
			"inputs": [
				{
					"components": [
						{
							"internalType": "string",
							"name": "question",
							"type": "string"
						},
						{
							"internalType": "string",
							"name": "metadataURI",
							"type": "string"
						},
						{
							"internalType": "uint256",
							"name": "endTime",
							"type": "uint256"
						},
						{
							"internalType": "uint256",
							"name": "resolutionTime",
							"type": "uint256"
						},
						{
							"internalType": "int256",
							"name": "targetPrice",
							"type": "int256"
						},
						{
							"internalType": "address",
							"name": "oracleFeed",
							"type": "address"
						},
						{
							"internalType": "address",
							"name": "bettingToken",
							"type": "address"
						},
						{
							"internalType": "bool",
							"name": "isLessThan",
							"type": "bool"
						},
						{
							"internalType": "uint256",
							"name": "minBet",
							"type": "uint256"
						}
					],
					"internalType": "struct LucidMarketsV4.MarketConfig",
					"name": "params",
					"type": "tuple"
				}
			],
			"name": "createMarket",
			"outputs": [],
			"stateMutability": "nonpayable",
			"type": "function"
		},
		{
			"inputs": [
				{
					"internalType": "uint256",
					"name": "_id",
					"type": "uint256"
				}
			],
			"name": "emergencyRefund",
			"outputs": [],
			"stateMutability": "nonpayable",
			"type": "function"
		},
		{
			"inputs": [],
			"name": "feeBasis",
			"outputs": [
				{
					"internalType": "uint256",
					"name": "",
					"type": "uint256"
				}
			],
			"stateMutability": "view",
			"type": "function"
		},
		{
			"inputs": [],
			"name": "isPaused",
			"outputs": [
				{
					"internalType": "bool",
					"name": "",
					"type": "bool"
				}
			],
			"stateMutability": "view",
			"type": "function"
		},
		{
			"inputs": [
				{
					"internalType": "uint256",
					"name": "",
					"type": "uint256"
				}
			],
			"name": "marketConfigs",
			"outputs": [
				{
					"internalType": "string",
					"name": "question",
					"type": "string"
				},
				{
					"internalType": "string",
					"name": "metadataURI",
					"type": "string"
				},
				{
					"internalType": "uint256",
					"name": "endTime",
					"type": "uint256"
				},
				{
					"internalType": "uint256",
					"name": "resolutionTime",
					"type": "uint256"
				},
				{
					"internalType": "int256",
					"name": "targetPrice",
					"type": "int256"
				},
				{
					"internalType": "address",
					"name": "oracleFeed",
					"type": "address"
				},
				{
					"internalType": "address",
					"name": "bettingToken",
					"type": "address"
				},
				{
					"internalType": "bool",
					"name": "isLessThan",
					"type": "bool"
				},
				{
					"internalType": "uint256",
					"name": "minBet",
					"type": "uint256"
				}
			],
			"stateMutability": "view",
			"type": "function"
		},
		{
			"inputs": [],
			"name": "marketCount",
			"outputs": [
				{
					"internalType": "uint256",
					"name": "",
					"type": "uint256"
				}
			],
			"stateMutability": "view",
			"type": "function"
		},
		{
			"inputs": [
				{
					"internalType": "uint256",
					"name": "",
					"type": "uint256"
				}
			],
			"name": "marketStatuses",
			"outputs": [
				{
					"internalType": "bool",
					"name": "resolved",
					"type": "bool"
				},
				{
					"internalType": "bool",
					"name": "cancelled",
					"type": "bool"
				},
				{
					"internalType": "enum LucidMarketsV4.MarketOutcome",
					"name": "outcome",
					"type": "uint8"
				},
				{
					"internalType": "uint256",
					"name": "totalPool",
					"type": "uint256"
				},
				{
					"internalType": "uint256",
					"name": "totalYes",
					"type": "uint256"
				},
				{
					"internalType": "uint256",
					"name": "totalNo",
					"type": "uint256"
				},
				{
					"internalType": "uint256",
					"name": "winningPool",
					"type": "uint256"
				}
			],
			"stateMutability": "view",
			"type": "function"
		},
		{
			"inputs": [],
			"name": "math",
			"outputs": [
				{
					"internalType": "contract ILucidMathV3",
					"name": "",
					"type": "address"
				}
			],
			"stateMutability": "view",
			"type": "function"
		},
		{
			"inputs": [],
			"name": "owner",
			"outputs": [
				{
					"internalType": "address",
					"name": "",
					"type": "address"
				}
			],
			"stateMutability": "view",
			"type": "function"
		},
		{
			"inputs": [
				{
					"internalType": "uint256",
					"name": "_id",
					"type": "uint256"
				},
				{
					"internalType": "bool",
					"name": "_isYes",
					"type": "bool"
				},
				{
					"internalType": "uint256",
					"name": "_amt",
					"type": "uint256"
				},
				{
					"internalType": "address",
					"name": "_ref",
					"type": "address"
				}
			],
			"name": "placeBet",
			"outputs": [],
			"stateMutability": "payable",
			"type": "function"
		},
		{
			"inputs": [],
			"name": "referralSplit",
			"outputs": [
				{
					"internalType": "uint256",
					"name": "",
					"type": "uint256"
				}
			],
			"stateMutability": "view",
			"type": "function"
		},
		{
			"inputs": [],
			"name": "renounceOwnership",
			"outputs": [],
			"stateMutability": "nonpayable",
			"type": "function"
		},
		{
			"inputs": [
				{
					"internalType": "uint256",
					"name": "_id",
					"type": "uint256"
				},
				{
					"internalType": "uint8",
					"name": "_outcomeCode",
					"type": "uint8"
				}
			],
			"name": "resolveManual",
			"outputs": [],
			"stateMutability": "nonpayable",
			"type": "function"
		},
		{
			"inputs": [
				{
					"internalType": "uint256",
					"name": "_id",
					"type": "uint256"
				},
				{
					"internalType": "uint80",
					"name": "_roundId",
					"type": "uint80"
				}
			],
			"name": "resolveMarket",
			"outputs": [],
			"stateMutability": "nonpayable",
			"type": "function"
		},
		{
			"inputs": [],
			"name": "resolver",
			"outputs": [
				{
					"internalType": "contract ILucidResolverV3",
					"name": "",
					"type": "address"
				}
			],
			"stateMutability": "view",
			"type": "function"
		},
		{
			"inputs": [
				{
					"internalType": "uint256",
					"name": "_totalBasis",
					"type": "uint256"
				},
				{
					"internalType": "uint256",
					"name": "_refSplit",
					"type": "uint256"
				}
			],
			"name": "setFeeRates",
			"outputs": [],
			"stateMutability": "nonpayable",
			"type": "function"
		},
		{
			"inputs": [
				{
					"internalType": "bool",
					"name": "_s",
					"type": "bool"
				}
			],
			"name": "setPaused",
			"outputs": [],
			"stateMutability": "nonpayable",
			"type": "function"
		},
		{
			"inputs": [
				{
					"internalType": "address",
					"name": "_t",
					"type": "address"
				}
			],
			"name": "setTreasury",
			"outputs": [],
			"stateMutability": "nonpayable",
			"type": "function"
		},
		{
			"inputs": [
				{
					"internalType": "uint256",
					"name": "_id",
					"type": "uint256"
				}
			],
			"name": "sweepUnclaimed",
			"outputs": [],
			"stateMutability": "nonpayable",
			"type": "function"
		},
		{
			"inputs": [
				{
					"internalType": "address",
					"name": "newOwner",
					"type": "address"
				}
			],
			"name": "transferOwnership",
			"outputs": [],
			"stateMutability": "nonpayable",
			"type": "function"
		},
		{
			"inputs": [],
			"name": "treasury",
			"outputs": [
				{
					"internalType": "address",
					"name": "",
					"type": "address"
				}
			],
			"stateMutability": "view",
			"type": "function"
		},
		{
			"inputs": [
				{
					"internalType": "uint256",
					"name": "",
					"type": "uint256"
				},
				{
					"internalType": "address",
					"name": "",
					"type": "address"
				}
			],
			"name": "userBets",
			"outputs": [
				{
					"internalType": "uint256",
					"name": "yesAmount",
					"type": "uint256"
				},
				{
					"internalType": "uint256",
					"name": "noAmount",
					"type": "uint256"
				},
				{
					"internalType": "address",
					"name": "referrer",
					"type": "address"
				},
				{
					"internalType": "bool",
					"name": "claimed",
					"type": "bool"
				}
			],
			"stateMutability": "view",
			"type": "function"
		},
		{
			"stateMutability": "payable",
			"type": "receive"
		}
	]
}