{
	"data": {
		"bytecode": {
			"linkReferences": {},
			"object": "6080604052348015600e575f5ffd5b506102318061001c5f395ff3fe608060405234801561000f575f5ffd5b5060043610610029575f3560e01c8063c494293b1461002d575b5f5ffd5b61004061003b366004610143565b61007c565b60405161007391908151815260208083015190820152604080830151908201526060918201519181019190915260800190565b60405180910390f35b6100a360405180608001604052805f81526020015f81526020015f81526020015f81525090565b5f856100af888a6101ac565b6100b991906101c9565b905085871115610127576127106100d086836101ac565b6100da91906101c9565b6020830152821561011c576127106100f285836101ac565b6100fc91906101c9565b60608301819052602083015161011291906101e8565b6040830152610127565b602082015160408301525b602082015161013690826101e8565b8252509695505050505050565b5f5f5f5f5f5f60c08789031215610158575f5ffd5b863595506020870135945060408701359350606087013592506080870135915060a0870135801515811461018a575f5ffd5b809150509295509295509295565b634e487b7160e01b5f52601160045260245ffd5b80820281158282048414176101c3576101c3610198565b92915050565b5f826101e357634e487b7160e01b5f52601260045260245ffd5b500490565b818103818111156101c3576101c361019856fea264697066735822122086065c1f119198620930231518cc0c51e7e57a4716cfcc89cb9daaa5a049eab864736f6c634300081f0033",
			"opcodes": "PUSH1 0x80 PUSH1 0x40 MSTORE CALLVALUE DUP1 ISZERO PUSH1 0xE JUMPI PUSH0 PUSH0 REVERT JUMPDEST POP PUSH2 0x231 DUP1 PUSH2 0x1C PUSH0 CODECOPY PUSH0 RETURN INVALID PUSH1 0x80 PUSH1 0x40 MSTORE CALLVALUE DUP1 ISZERO PUSH2 0xF JUMPI PUSH0 PUSH0 REVERT JUMPDEST POP PUSH1 0x4 CALLDATASIZE LT PUSH2 0x29 JUMPI PUSH0 CALLDATALOAD PUSH1 0xE0 SHR DUP1 PUSH4 0xC494293B EQ PUSH2 0x2D JUMPI JUMPDEST PUSH0 PUSH0 REVERT JUMPDEST PUSH2 0x40 PUSH2 0x3B CALLDATASIZE PUSH1 0x4 PUSH2 0x143 JUMP JUMPDEST PUSH2 0x7C JUMP JUMPDEST PUSH1 0x40 MLOAD PUSH2 0x73 SWAP2 SWAP1 DUP2 MLOAD DUP2 MSTORE PUSH1 0x20 DUP1 DUP4 ADD MLOAD SWAP1 DUP3 ADD MSTORE PUSH1 0x40 DUP1 DUP4 ADD MLOAD SWAP1 DUP3 ADD MSTORE PUSH1 0x60 SWAP2 DUP3 ADD MLOAD SWAP2 DUP2 ADD SWAP2 SWAP1 SWAP2 MSTORE PUSH1 0x80 ADD SWAP1 JUMP JUMPDEST PUSH1 0x40 MLOAD DUP1 SWAP2 SUB SWAP1 RETURN JUMPDEST PUSH2 0xA3 PUSH1 0x40 MLOAD DUP1 PUSH1 0x80 ADD PUSH1 0x40 MSTORE DUP1 PUSH0 DUP2 MSTORE PUSH1 0x20 ADD PUSH0 DUP2 MSTORE PUSH1 0x20 ADD PUSH0 DUP2 MSTORE PUSH1 0x20 ADD PUSH0 DUP2 MSTORE POP SWAP1 JUMP JUMPDEST PUSH0 DUP6 PUSH2 0xAF DUP9 DUP11 PUSH2 0x1AC JUMP JUMPDEST PUSH2 0xB9 SWAP2 SWAP1 PUSH2 0x1C9 JUMP JUMPDEST SWAP1 POP DUP6 DUP8 GT ISZERO PUSH2 0x127 JUMPI PUSH2 0x2710 PUSH2 0xD0 DUP7 DUP4 PUSH2 0x1AC JUMP JUMPDEST PUSH2 0xDA SWAP2 SWAP1 PUSH2 0x1C9 JUMP JUMPDEST PUSH1 0x20 DUP4 ADD MSTORE DUP3 ISZERO PUSH2 0x11C JUMPI PUSH2 0x2710 PUSH2 0xF2 DUP6 DUP4 PUSH2 0x1AC JUMP JUMPDEST PUSH2 0xFC SWAP2 SWAP1 PUSH2 0x1C9 JUMP JUMPDEST PUSH1 0x60 DUP4 ADD DUP2 SWAP1 MSTORE PUSH1 0x20 DUP4 ADD MLOAD PUSH2 0x112 SWAP2 SWAP1 PUSH2 0x1E8 JUMP JUMPDEST PUSH1 0x40 DUP4 ADD MSTORE PUSH2 0x127 JUMP JUMPDEST PUSH1 0x20 DUP3 ADD MLOAD PUSH1 0x40 DUP4 ADD MSTORE JUMPDEST PUSH1 0x20 DUP3 ADD MLOAD PUSH2 0x136 SWAP1 DUP3 PUSH2 0x1E8 JUMP JUMPDEST DUP3 MSTORE POP SWAP7 SWAP6 POP POP POP POP POP POP JUMP JUMPDEST PUSH0 PUSH0 PUSH0 PUSH0 PUSH0 PUSH0 PUSH1 0xC0 DUP8 DUP10 SUB SLT ISZERO PUSH2 0x158 JUMPI PUSH0 PUSH0 REVERT JUMPDEST DUP7 CALLDATALOAD SWAP6 POP PUSH1 0x20 DUP8 ADD CALLDATALOAD SWAP5 POP PUSH1 0x40 DUP8 ADD CALLDATALOAD SWAP4 POP PUSH1 0x60 DUP8 ADD CALLDATALOAD SWAP3 POP PUSH1 0x80 DUP8 ADD CALLDATALOAD SWAP2 POP PUSH1 0xA0 DUP8 ADD CALLDATALOAD DUP1 ISZERO ISZERO DUP2 EQ PUSH2 0x18A JUMPI PUSH0 PUSH0 REVERT JUMPDEST DUP1 SWAP2 POP POP SWAP3 SWAP6 POP SWAP3 SWAP6 POP SWAP3 SWAP6 JUMP JUMPDEST PUSH4 0x4E487B71 PUSH1 0xE0 SHL PUSH0 MSTORE PUSH1 0x11 PUSH1 0x4 MSTORE PUSH1 0x24 PUSH0 REVERT JUMPDEST DUP1 DUP3 MUL DUP2 ISZERO DUP3 DUP3 DIV DUP5 EQ OR PUSH2 0x1C3 JUMPI PUSH2 0x1C3 PUSH2 0x198 JUMP JUMPDEST SWAP3 SWAP2 POP POP JUMP JUMPDEST PUSH0 DUP3 PUSH2 0x1E3 JUMPI PUSH4 0x4E487B71 PUSH1 0xE0 SHL PUSH0 MSTORE PUSH1 0x12 PUSH1 0x4 MSTORE PUSH1 0x24 PUSH0 REVERT JUMPDEST POP DIV SWAP1 JUMP JUMPDEST DUP2 DUP2 SUB DUP2 DUP2 GT ISZERO PUSH2 0x1C3 JUMPI PUSH2 0x1C3 PUSH2 0x198 JUMP INVALID LOG2 PUSH5 0x6970667358 0x22 SLT KECCAK256 DUP7 MOD TLOAD 0x1F GT SWAP2 SWAP9 PUSH3 0x93023 ISZERO XOR 0xCC 0xC MLOAD SWAPN 0xE5 PUSH27 0x4716CFCC89CB9DAAA5A049EAB864736F6C634300081F0033000000 "
		},
		"gasEstimates": {
			"creation": {
				"codeDepositCost": "112200",
				"executionCost": "157",
				"totalCost": "112357"
			},
			"external": {
				"calculate(uint256,uint256,uint256,uint256,uint256,bool)": "infinite"
			}
		},
		"methodIdentifiers": {
			"calculate(uint256,uint256,uint256,uint256,uint256,bool)": "c494293b"
		}
	},
	"abi": [
		{
			"inputs": [
				{
					"internalType": "uint256",
					"name": "userStake",
					"type": "uint256"
				},
				{
					"internalType": "uint256",
					"name": "totalPool",
					"type": "uint256"
				},
				{
					"internalType": "uint256",
					"name": "winningPool",
					"type": "uint256"
				},
				{
					"internalType": "uint256",
					"name": "feeBasis",
					"type": "uint256"
				},
				{
					"internalType": "uint256",
					"name": "refBasis",
					"type": "uint256"
				},
				{
					"internalType": "bool",
					"name": "hasReferrer",
					"type": "bool"
				}
			],
			"name": "calculate",
			"outputs": [
				{
					"components": [
						{
							"internalType": "uint256",
							"name": "netPayout",
							"type": "uint256"
						},
						{
							"internalType": "uint256",
							"name": "totalFee",
							"type": "uint256"
						},
						{
							"internalType": "uint256",
							"name": "adminShare",
							"type": "uint256"
						},
						{
							"internalType": "uint256",
							"name": "refShare",
							"type": "uint256"
						}
					],
					"internalType": "struct LucidMath.Distribution",
					"name": "dist",
					"type": "tuple"
				}
			],
			"stateMutability": "pure",
			"type": "function"
		}
	]
}