{
	"data": {
		"bytecode": {
			"linkReferences": {},
			"object": "6080604052348015600e575f5ffd5b506105218061001c5f395ff3fe608060405234801561000f575f5ffd5b5060043610610029575f3560e01c8063fce6093d1461002d575b5f5ffd5b61004760048036038101906100429190610298565b61005f565b60405161005693929190610348565b60405180910390f35b5f5f5f5f5f8973ffffffffffffffffffffffffffffffffffffffff16639a6fc8f58a6040518263ffffffff1660e01b815260040161009d919061038c565b60a060405180830381865afa1580156100b8573d5f5f3e3d5ffd5b505050506040513d601f19601f820116820180604052508101906100dc91906103e1565b5093505092505062015180886100f29190610485565b81108061010c5750620151808861010991906104b8565b81115b15610121575f5f5f9450945094505050610155565b5f8615610132578783129050610139565b8783121590505b80610145576001610148565b60025b8360019550955095505050505b955095509592505050565b5f5ffd5b5f73ffffffffffffffffffffffffffffffffffffffff82169050919050565b5f61018d82610164565b9050919050565b61019d81610183565b81146101a7575f5ffd5b50565b5f813590506101b881610194565b92915050565b5f69ffffffffffffffffffff82169050919050565b6101dc816101be565b81146101e6575f5ffd5b50565b5f813590506101f7816101d3565b92915050565b5f819050919050565b61020f816101fd565b8114610219575f5ffd5b50565b5f8135905061022a81610206565b92915050565b5f819050919050565b61024281610230565b811461024c575f5ffd5b50565b5f8135905061025d81610239565b92915050565b5f8115159050919050565b61027781610263565b8114610281575f5ffd5b50565b5f813590506102928161026e565b92915050565b5f5f5f5f5f60a086880312156102b1576102b0610160565b5b5f6102be888289016101aa565b95505060206102cf888289016101e9565b94505060406102e08882890161021c565b93505060606102f18882890161024f565b925050608061030288828901610284565b9150509295509295909350565b5f60ff82169050919050565b6103248161030f565b82525050565b61033381610230565b82525050565b61034281610263565b82525050565b5f60608201905061035b5f83018661031b565b610368602083018561032a565b6103756040830184610339565b949350505050565b610386816101be565b82525050565b5f60208201905061039f5f83018461037d565b92915050565b5f815190506103b3816101d3565b92915050565b5f815190506103c781610239565b92915050565b5f815190506103db81610206565b92915050565b5f5f5f5f5f60a086880312156103fa576103f9610160565b5b5f610407888289016103a5565b9550506020610418888289016103b9565b9450506040610429888289016103cd565b935050606061043a888289016103cd565b925050608061044b888289016103a5565b9150509295509295909350565b7f4e487b71000000000000000000000000000000000000000000000000000000005f52601160045260245ffd5b5f61048f826101fd565b915061049a836101fd565b92508282039050818111156104b2576104b1610458565b5b92915050565b5f6104c2826101fd565b91506104cd836101fd565b92508282019050808211156104e5576104e4610458565b5b9291505056fea26469706673582212209bc4ba85b84fc4a766ea88e3c432d4daf6ef736373d9ed1f9a14ff21294f40ee64736f6c634300081f0033",
			"opcodes": "PUSH1 0x80 PUSH1 0x40 MSTORE CALLVALUE DUP1 ISZERO PUSH1 0xE JUMPI PUSH0 PUSH0 REVERT JUMPDEST POP PUSH2 0x521 DUP1 PUSH2 0x1C PUSH0 CODECOPY PUSH0 RETURN INVALID PUSH1 0x80 PUSH1 0x40 MSTORE CALLVALUE DUP1 ISZERO PUSH2 0xF JUMPI PUSH0 PUSH0 REVERT JUMPDEST POP PUSH1 0x4 CALLDATASIZE LT PUSH2 0x29 JUMPI PUSH0 CALLDATALOAD PUSH1 0xE0 SHR DUP1 PUSH4 0xFCE6093D EQ PUSH2 0x2D JUMPI JUMPDEST PUSH0 PUSH0 REVERT JUMPDEST PUSH2 0x47 PUSH1 0x4 DUP1 CALLDATASIZE SUB DUP2 ADD SWAP1 PUSH2 0x42 SWAP2 SWAP1 PUSH2 0x298 JUMP JUMPDEST PUSH2 0x5F JUMP JUMPDEST PUSH1 0x40 MLOAD PUSH2 0x56 SWAP4 SWAP3 SWAP2 SWAP1 PUSH2 0x348 JUMP JUMPDEST PUSH1 0x40 MLOAD DUP1 SWAP2 SUB SWAP1 RETURN JUMPDEST PUSH0 PUSH0 PUSH0 PUSH0 PUSH0 DUP10 PUSH20 0xFFFFFFFFFFFFFFFFFFFFFFFFFFFFFFFFFFFFFFFF AND PUSH4 0x9A6FC8F5 DUP11 PUSH1 0x40 MLOAD DUP3 PUSH4 0xFFFFFFFF AND PUSH1 0xE0 SHL DUP2 MSTORE PUSH1 0x4 ADD PUSH2 0x9D SWAP2 SWAP1 PUSH2 0x38C JUMP JUMPDEST PUSH1 0xA0 PUSH1 0x40 MLOAD DUP1 DUP4 SUB DUP2 DUP7 GAS STATICCALL ISZERO DUP1 ISZERO PUSH2 0xB8 JUMPI RETURNDATASIZE PUSH0 PUSH0 RETURNDATACOPY RETURNDATASIZE PUSH0 REVERT JUMPDEST POP POP POP POP PUSH1 0x40 MLOAD RETURNDATASIZE PUSH1 0x1F NOT PUSH1 0x1F DUP3 ADD AND DUP3 ADD DUP1 PUSH1 0x40 MSTORE POP DUP2 ADD SWAP1 PUSH2 0xDC SWAP2 SWAP1 PUSH2 0x3E1 JUMP JUMPDEST POP SWAP4 POP POP SWAP3 POP POP PUSH3 0x15180 DUP9 PUSH2 0xF2 SWAP2 SWAP1 PUSH2 0x485 JUMP JUMPDEST DUP2 LT DUP1 PUSH2 0x10C JUMPI POP PUSH3 0x15180 DUP9 PUSH2 0x109 SWAP2 SWAP1 PUSH2 0x4B8 JUMP JUMPDEST DUP2 GT JUMPDEST ISZERO PUSH2 0x121 JUMPI PUSH0 PUSH0 PUSH0 SWAP5 POP SWAP5 POP SWAP5 POP POP POP PUSH2 0x155 JUMP JUMPDEST PUSH0 DUP7 ISZERO PUSH2 0x132 JUMPI DUP8 DUP4 SLT SWAP1 POP PUSH2 0x139 JUMP JUMPDEST DUP8 DUP4 SLT ISZERO SWAP1 POP JUMPDEST DUP1 PUSH2 0x145 JUMPI PUSH1 0x1 PUSH2 0x148 JUMP JUMPDEST PUSH1 0x2 JUMPDEST DUP4 PUSH1 0x1 SWAP6 POP SWAP6 POP SWAP6 POP POP POP POP JUMPDEST SWAP6 POP SWAP6 POP SWAP6 SWAP3 POP POP POP JUMP JUMPDEST PUSH0 PUSH0 REVERT JUMPDEST PUSH0 PUSH20 0xFFFFFFFFFFFFFFFFFFFFFFFFFFFFFFFFFFFFFFFF DUP3 AND SWAP1 POP SWAP2 SWAP1 POP JUMP JUMPDEST PUSH0 PUSH2 0x18D DUP3 PUSH2 0x164 JUMP JUMPDEST SWAP1 POP SWAP2 SWAP1 POP JUMP JUMPDEST PUSH2 0x19D DUP2 PUSH2 0x183 JUMP JUMPDEST DUP2 EQ PUSH2 0x1A7 JUMPI PUSH0 PUSH0 REVERT JUMPDEST POP JUMP JUMPDEST PUSH0 DUP2 CALLDATALOAD SWAP1 POP PUSH2 0x1B8 DUP2 PUSH2 0x194 JUMP JUMPDEST SWAP3 SWAP2 POP POP JUMP JUMPDEST PUSH0 PUSH10 0xFFFFFFFFFFFFFFFFFFFF DUP3 AND SWAP1 POP SWAP2 SWAP1 POP JUMP JUMPDEST PUSH2 0x1DC DUP2 PUSH2 0x1BE JUMP JUMPDEST DUP2 EQ PUSH2 0x1E6 JUMPI PUSH0 PUSH0 REVERT JUMPDEST POP JUMP JUMPDEST PUSH0 DUP2 CALLDATALOAD SWAP1 POP PUSH2 0x1F7 DUP2 PUSH2 0x1D3 JUMP JUMPDEST SWAP3 SWAP2 POP POP JUMP JUMPDEST PUSH0 DUP2 SWAP1 POP SWAP2 SWAP1 POP JUMP JUMPDEST PUSH2 0x20F DUP2 PUSH2 0x1FD JUMP JUMPDEST DUP2 EQ PUSH2 0x219 JUMPI PUSH0 PUSH0 REVERT JUMPDEST POP JUMP JUMPDEST PUSH0 DUP2 CALLDATALOAD SWAP1 POP PUSH2 0x22A DUP2 PUSH2 0x206 JUMP JUMPDEST SWAP3 SWAP2 POP POP JUMP JUMPDEST PUSH0 DUP2 SWAP1 POP SWAP2 SWAP1 POP JUMP JUMPDEST PUSH2 0x242 DUP2 PUSH2 0x230 JUMP JUMPDEST DUP2 EQ PUSH2 0x24C JUMPI PUSH0 PUSH0 REVERT JUMPDEST POP JUMP JUMPDEST PUSH0 DUP2 CALLDATALOAD SWAP1 POP PUSH2 0x25D DUP2 PUSH2 0x239 JUMP JUMPDEST SWAP3 SWAP2 POP POP JUMP JUMPDEST PUSH0 DUP2 ISZERO ISZERO SWAP1 POP SWAP2 SWAP1 POP JUMP JUMPDEST PUSH2 0x277 DUP2 PUSH2 0x263 JUMP JUMPDEST DUP2 EQ PUSH2 0x281 JUMPI PUSH0 PUSH0 REVERT JUMPDEST POP JUMP JUMPDEST PUSH0 DUP2 CALLDATALOAD SWAP1 POP PUSH2 0x292 DUP2 PUSH2 0x26E JUMP JUMPDEST SWAP3 SWAP2 POP POP JUMP JUMPDEST PUSH0 PUSH0 PUSH0 PUSH0 PUSH0 PUSH1 0xA0 DUP7 DUP9 SUB SLT ISZERO PUSH2 0x2B1 JUMPI PUSH2 0x2B0 PUSH2 0x160 JUMP JUMPDEST JUMPDEST PUSH0 PUSH2 0x2BE DUP9 DUP3 DUP10 ADD PUSH2 0x1AA JUMP JUMPDEST SWAP6 POP POP PUSH1 0x20 PUSH2 0x2CF DUP9 DUP3 DUP10 ADD PUSH2 0x1E9 JUMP JUMPDEST SWAP5 POP POP PUSH1 0x40 PUSH2 0x2E0 DUP9 DUP3 DUP10 ADD PUSH2 0x21C JUMP JUMPDEST SWAP4 POP POP PUSH1 0x60 PUSH2 0x2F1 DUP9 DUP3 DUP10 ADD PUSH2 0x24F JUMP JUMPDEST SWAP3 POP POP PUSH1 0x80 PUSH2 0x302 DUP9 DUP3 DUP10 ADD PUSH2 0x284 JUMP JUMPDEST SWAP2 POP POP SWAP3 SWAP6 POP SWAP3 SWAP6 SWAP1 SWAP4 POP JUMP JUMPDEST PUSH0 PUSH1 0xFF DUP3 AND SWAP1 POP SWAP2 SWAP1 POP JUMP JUMPDEST PUSH2 0x324 DUP2 PUSH2 0x30F JUMP JUMPDEST DUP3 MSTORE POP POP JUMP JUMPDEST PUSH2 0x333 DUP2 PUSH2 0x230 JUMP JUMPDEST DUP3 MSTORE POP POP JUMP JUMPDEST PUSH2 0x342 DUP2 PUSH2 0x263 JUMP JUMPDEST DUP3 MSTORE POP POP JUMP JUMPDEST PUSH0 PUSH1 0x60 DUP3 ADD SWAP1 POP PUSH2 0x35B PUSH0 DUP4 ADD DUP7 PUSH2 0x31B JUMP JUMPDEST PUSH2 0x368 PUSH1 0x20 DUP4 ADD DUP6 PUSH2 0x32A JUMP JUMPDEST PUSH2 0x375 PUSH1 0x40 DUP4 ADD DUP5 PUSH2 0x339 JUMP JUMPDEST SWAP5 SWAP4 POP POP POP POP JUMP JUMPDEST PUSH2 0x386 DUP2 PUSH2 0x1BE JUMP JUMPDEST DUP3 MSTORE POP POP JUMP JUMPDEST PUSH0 PUSH1 0x20 DUP3 ADD SWAP1 POP PUSH2 0x39F PUSH0 DUP4 ADD DUP5 PUSH2 0x37D JUMP JUMPDEST SWAP3 SWAP2 POP POP JUMP JUMPDEST PUSH0 DUP2 MLOAD SWAP1 POP PUSH2 0x3B3 DUP2 PUSH2 0x1D3 JUMP JUMPDEST SWAP3 SWAP2 POP POP JUMP JUMPDEST PUSH0 DUP2 MLOAD SWAP1 POP PUSH2 0x3C7 DUP2 PUSH2 0x239 JUMP JUMPDEST SWAP3 SWAP2 POP POP JUMP JUMPDEST PUSH0 DUP2 MLOAD SWAP1 POP PUSH2 0x3DB DUP2 PUSH2 0x206 JUMP JUMPDEST SWAP3 SWAP2 POP POP JUMP JUMPDEST PUSH0 PUSH0 PUSH0 PUSH0 PUSH0 PUSH1 0xA0 DUP7 DUP9 SUB SLT ISZERO PUSH2 0x3FA JUMPI PUSH2 0x3F9 PUSH2 0x160 JUMP JUMPDEST JUMPDEST PUSH0 PUSH2 0x407 DUP9 DUP3 DUP10 ADD PUSH2 0x3A5 JUMP JUMPDEST SWAP6 POP POP PUSH1 0x20 PUSH2 0x418 DUP9 DUP3 DUP10 ADD PUSH2 0x3B9 JUMP JUMPDEST SWAP5 POP POP PUSH1 0x40 PUSH2 0x429 DUP9 DUP3 DUP10 ADD PUSH2 0x3CD JUMP JUMPDEST SWAP4 POP POP PUSH1 0x60 PUSH2 0x43A DUP9 DUP3 DUP10 ADD PUSH2 0x3CD JUMP JUMPDEST SWAP3 POP POP PUSH1 0x80 PUSH2 0x44B DUP9 DUP3 DUP10 ADD PUSH2 0x3A5 JUMP JUMPDEST SWAP2 POP POP SWAP3 SWAP6 POP SWAP3 SWAP6 SWAP1 SWAP4 POP JUMP JUMPDEST PUSH32 0x4E487B7100000000000000000000000000000000000000000000000000000000 PUSH0 MSTORE PUSH1 0x11 PUSH1 0x4 MSTORE PUSH1 0x24 PUSH0 REVERT JUMPDEST PUSH0 PUSH2 0x48F DUP3 PUSH2 0x1FD JUMP JUMPDEST SWAP2 POP PUSH2 0x49A DUP4 PUSH2 0x1FD JUMP JUMPDEST SWAP3 POP DUP3 DUP3 SUB SWAP1 POP DUP2 DUP2 GT ISZERO PUSH2 0x4B2 JUMPI PUSH2 0x4B1 PUSH2 0x458 JUMP JUMPDEST JUMPDEST SWAP3 SWAP2 POP POP JUMP JUMPDEST PUSH0 PUSH2 0x4C2 DUP3 PUSH2 0x1FD JUMP JUMPDEST SWAP2 POP PUSH2 0x4CD DUP4 PUSH2 0x1FD JUMP JUMPDEST SWAP3 POP DUP3 DUP3 ADD SWAP1 POP DUP1 DUP3 GT ISZERO PUSH2 0x4E5 JUMPI PUSH2 0x4E4 PUSH2 0x458 JUMP JUMPDEST JUMPDEST SWAP3 SWAP2 POP POP JUMP INVALID LOG2 PUSH5 0x6970667358 0x22 SLT KECCAK256 SWAP12 0xC4 0xBA DUP6 0xB8 0x4F 0xC4 0xA7 PUSH7 0xEA88E3C432D4DA 0xF6 0xEF PUSH20 0x6373D9ED1F9A14FF21294F40EE64736F6C634300 ADDMOD 0x1F STOP CALLER "
		},
		"gasEstimates": {
			"creation": {
				"codeDepositCost": "262600",
				"executionCost": "304",
				"totalCost": "262904"
			},
			"external": {
				"checkOutcome(address,uint80,uint256,int256,bool)": "infinite"
			}
		},
		"methodIdentifiers": {
			"checkOutcome(address,uint80,uint256,int256,bool)": "fce6093d"
		}
	},
	"abi": [
		{
			"inputs": [
				{
					"internalType": "address",
					"name": "_oracleFeed",
					"type": "address"
				},
				{
					"internalType": "uint80",
					"name": "_roundId",
					"type": "uint80"
				},
				{
					"internalType": "uint256",
					"name": "_endTime",
					"type": "uint256"
				},
				{
					"internalType": "int256",
					"name": "_targetPrice",
					"type": "int256"
				},
				{
					"internalType": "bool",
					"name": "_isLessThan",
					"type": "bool"
				}
			],
			"name": "checkOutcome",
			"outputs": [
				{
					"internalType": "uint8",
					"name": "",
					"type": "uint8"
				},
				{
					"internalType": "int256",
					"name": "",
					"type": "int256"
				},
				{
					"internalType": "bool",
					"name": "",
					"type": "bool"
				}
			],
			"stateMutability": "view",
			"type": "function"
		}
	]
}